:020000040800F2
:2000000000280020F100000839010008390100083901000839010008390100080000000055
:200020000000000000000000000000003901000839010008000000003901000839010008B8
:20004000390100083901000839010008390100083901000839010008390100083901000890
:20006000390100083901000839010008390100083901000839010008390100083901000870
:2000800039010008390100083901000839010008F90400083901000839010008390100088D
:2000A000390100083901000839010008390100083901000839010008390100083901000830
:2000C000390100083901000839010008390100083901000839010008390100083901000810
:2000E0003901000839010008390100085FF808F1002100F004B80B4B5B58435004310A48FA
:200100000A4B42189A42FFF4F6AF094A00F003B8002342F8043B074B9A42FFF4F9AF00F069
:2001200045FA70473C19000800000020C8020020C80200200C030020FFF7FEBF7047704728
:20014000704703288CBF02200020704770470000034B1B689B7A13B1024B05221A60704773
:200160000403002010030020704770477047704770477047014B04221A6070471003002005
:2001800010B500F089FC214B214A1B68002412689C72D27920465A721E4A1F4B14601968DB
:2001A00021F4EC4121F0700141F4007189B21960196821F4E04121F0400189B281F010015B
:2001C00019601168154B89B20B445B0040211960136880229BB203F1005303F540535B0077
:2001E0001A6000F039FE0E4B20461B6893F8301000F08EFE204600F020FE0A4B0122204683
:20020000BDE810401A6001F025BB00BF04030020B8020020505C0040005C00400430002002
:20022000DC0200201003002038B5124B05461A681C46127802F07F02212A19D100F0C2FC34
:20024000B0B1681E042813D8DFE800F0030507120900094B04E0094B02E0094B00E0094BC9
:20026000226800242046936154829847204638BD022038BD040300200D0B0008350B0008C0
:20028000F50A0008DD0A0008014901F0E3B800BF44010020014901F0DDB800BFB802002005
:2002A000054B1B689B78072B04D8044901EBC30101F0D0B800207047040300209400002022
:2002C000014901F0C7B800BFE000002008B5084B1B681B7803F07F03212B06D100F072FC89
:2002E00000280CBF0220002008BD022008BD00BF0403002037B5194C0C20256800F080FBC2
:20030000284040F48035256015480C21002200F0BBF900230193019BB3F5007F02D2019BCD
:200320000133F7E70C20256800F06AFB284040F48025256000F076FB0A4BC2B218600A4BE0
:20034000C0F3072083F8292083F82A00074B5A71987100F0A7FE03B030BD00BF04080140F3
:2003600000080140C8020020EC00002029010020044B1A6892B242F00C021A60024B0322B3
:200380001A607047405C004010030020044B4FF6FB7219680A401A604FF43F421A607047E2
:2003A000405C004010B51E4C072818BF20702378052B32D8DFE803F003060A0E1621FFF7BF
:2003C000E5FF2AE0FFF7E2FF042327E002236370032323E06378013BDBB263706378F3B90B
:2003E000042217E00F4B1A6892B242F010021A60052323700A23637010BD6378013BDBB2D6
:20040000637063785BB9074A4FF6EF7311680B4013600622024B1A7010BD0623237010BD96
:20042000CE020020405C0040064B01221A60064A00200649186010604FF4E0520A801A60E2
:20044000704700BF405C0040445C004008030020044B01221A60044A0020106003221A60D6
:20046000704700BF405C0040445C0040FFF7F0BF07B514238DF8043000238DF805308DF897
:20048000063001A801238DF8073000F001FA03B05DF804FB10B500F0D1FA094B00241B6830
:2004A0009C72FFF7C1FF074B074A1C604FF43F431380064A1360FFF7DBFF054B1C6010BDD5
:2004C00004030020445C004008030020405C00401003002007B514238DF8043001A8002363
:2004E0008DF805308DF806308DF8073000F0D0F903B05DF804FB000070B5274D274C2B686C
:20050000274E9BB22380228833881340590505D54FF6FF332B60234B5B689847228833880F
:200520001A40920444BF4DF6FF722A6022881340DB0405D54EF6FF732B600020FFF732FF4C
:20054000228833881340180504D5FFF711FF4FF2FF732B60228833881A40910507D54FF633
:20056000FF522A60104A11780131C9B2117022881340DA0505D54FF6FF632B600720FFF78A
:2005800011FF2288338813401B0403D5BDE8704000F0DEBC70BD00BF445C0040CC02002003
:2005A00008030020000000200C03002037B500F0A7F800F0C9F800F0F7F8FFF79BFE00F037
:2005C00009F900F041F9012804464FF0000302D0022835D008E0009328480D2105224FF4B6
:2005E000A02300F065F844E0009324480D2105224FF4A02300F05CF8214800F0F9F828B106
:2006000000F04EF8041C18BF012432E01D4800F0EFF80028F4D101242BE000230093174808
:200620000D2101224FF4801300F042F800F0E8FB08B100F0EBFB0135052DEEDD002CECD1EB
:20064000104800F0D5F808B10E4804E00C4800F0CFF818B10A4800F063F90CE000900D2176
:20066000064805224FF4A02300F022F800F06CF901E00025E0E7002003B030BD00100140C2
:200680000050000800200008012303FA01F1D2F1010238BF002213019940016170470000E2
:2006A000024B1868C0F38000704700BF080C01402DE9F0479DF820A01446CAF10107FFB2FF
:2006C0003A46804689461E46FFF7DEFFB4B1354615B100BF013DFBE7404649465246FFF7A6
:2006E000D3FF354615B100BF013DFBE7404649463A46013CFFF7C8FFE4B2E7E7BDE8F087F9
:200700000D4B0E491A6842F001021A600C4A106801401160196821F0847121F480311960B3
:20072000196821F480211960136823F4FE031360044B00221A607047001002400000FFF818
:200740000410024008100240154B1A6842F001121A601A6812489203FBD5124A1221116007
:20076000A2F6FC72116841F4E81141F480611160016841F080710160196811F0407FFBD04D
:20078000116841F00201116011680907FCD59A6942F4FE729A61DA6942F40002DA617047D0
:2007A0000010024000200240094B1A6822F4706242F480621A604FF480221A61D3F80424E2
:2007C00022F4700242F48012C3F80424704700BF000C0140054B1A68D10703D41A6842F0EE
:2007E00001021A601A689207FCD5704700100240036803481840B0F100535842584170479B
:200800000000FE2F044A08B543681060026882F30888984708BD00BF08ED00E0084BDA6948
:2008200042F0C052DA61A3F5D0331A6842F480721A60044A10851A6822F480721A607047DC
:2008400000100240006C004038B50F4B44F24C21DA691D4642F0C052DA610C4A128D92B252
:200860008A4205D044F24D239A4203D0002409E0012400E002240020FFF7D0FFEB6923F0FE
:20088000C053EB61204638BD00100240006C0040184B30B5DB684478DB43C3F30223C3F1AC
:2008A000040204FA02F20F24DC40817803780C40144303F00301C9002401FF228C408A403E
:2008C00003F0FC0303F1604303F56143D3F8005325EA020122400A43C3F800230378012298
:2008E000590903F01F0302FA03F3034A42F8213030BD00BF00ED00E000E100E0074B4FF0EC
:20090000FF32C3F88020C3F88420C3F88021C3F88421042243F8F02C704700BF00E100E07C
:2009200010B5084B802204461A60FFF7D3FDFFF7E5FFFFF79BFDFFF7E3FE2046BDE81040D9
:20094000FFF760BF10200240024A034BDA6000BFFDE700BF0400FA0500ED00E00A4B10B5F0
:200960001A6802221A60094A1168144611F0010FF9D1906042221A60226812F00101FBD12E
:200980001960012010BD00BF102002400C20024037B58BB200930B0C01930E4B01221C68EA
:2009A0001A600D4A1568ED07FBD4019DADB245801568ED07FCD4009DADB205801568ED0731
:2009C000FCD424F001021A600068431A5842584103B030BD102002400C200240014B802250
:2009E0001A60704710200240034B044A1A6002F188321A60704700BF04200240230167456B
:200A00000728C8BF08380F23800003FA00F0C04370470000024B188800F50030800270473C
:200A2000E0F7FF1F044B1B88812B34BF4FF480604FF40060704700BFE0F7FF1F0D4A002385
:200A40000221137053709370D370117153710A4A0A4913600A4A13800A4A11600A4A01F591
:200A600088411160094A03211370094A1170094A137070471D0B0020180B0020000C00202A
:200A8000160B0020C4020020C00200201C0B0020D0020020230B002008B50E4B0E481979C8
:200AA0000022C9B20129026008D1022119711A70FFF724FFBDE80840FFF7DABC11F0FD0F5E
:200AC00006D0022119711A70BDE80840FFF73CBF08BD00BF1D0B0020180B002020B9034BF5
:200AE00001221B681A8270470148704704030020210B002020B9034B06221B681A82704765
:200B000001487047040300201D0B0020064B1B6830B9DA88598A511A1982044B1A807047BE
:200B20005B8A03481844704704030020160B002014030020084B30B91B68084A11885A8A45
:200B40008A1A1A8270470649064A1B68126808685B8A10441844704704030020160B0020DE
:200B6000C4020020180B002070B5124B124E1B783468022B04F100640CBF04F5A04404F514
:200B800000542046FFF7EAFE00250C4B1A8892B2954206DA0A4B6019E958FFF7F9FE04356F
:200BA000F3E731681A8892B20A44326000221A8070BD00BF1C0B0020180B0020160B002089
:200BC000140300202DE9F0418149824C0120087023790022DBB2022B22705AD108707E49F2
:200BE0000968487801282AD1C888002800F0C5807A48097B026001294FF0030222710BD06F
:200C000002291AD1764B1A70764A774B1A60FFF7E1FDFFF7E9FE0BE07449734A1160704A36
:200C20001370FFF7D7FDFFF7DFFE6E48FFF796FE44F24D20FFF7F2FDC2E00A2362E0022891
:200C400021D109232371CA88694B1A801888694A80B210801A884B8892B25A435F4B1A60B3
:200C60000B7B012B03D0022B09D15E4A00E05F4A5D4B1A60FFF7CEFE5F4B1860A0E00A2304
:200C8000237103239BE006283CD0032819D005283CE0032B0BD1504A12685278032A04D19E
:200CA00005232371FFF760FF8AE0052A2EE0042B09D152490878022803D1032362700B70E7
:200CC000052323717CE0052B14D1434B1A685378012B08D1D3880BB10323F2E70623237134
:200CE000FFF77CFE6CE0062B4DD0032B4BD0052B62D148E0062B0BD137490968497803292B
:200D000003D10823237122705AE0052954D1D8E7072BF6D0082BD4D0092B3CD12E4B1A6857
:200D20005378022B2DD1D08838B3314952880B882D4D9BB25343294A2F4E13602F68D2F872
:200D40000080B1F800C0474433681FFA8CFC67449F42284B03D80A8892B21A8019E0366802
:200D60002D681168721B521A92B21A801A8892B2824208D300221A8005E00A23237109237B
:200D80001DE0062B01D102239BE7032B01D0052B12D1092395E70A2B0ED10F4B1B685B782E
:200DA000032B01D10A238CE7052BFBD0042B03D102232371002302E00A2323710F23237051
:200DC0002078D0F1010038BF0020BDE8F08100BF230B00201D0B002004030020180B0020CD
:200DE0001C0B002000200008C402002000500008140B0020160B0020C0020020D0020020F2
:200E0000014B1878704700BF230B002000BFFDE7800000F1804000F5B8400368CA0623F41F
:200E2000E04323F040039BB248BF83F010038A0648BF83F0200303607047800000F18040E7
:200E400000F5B840036823F4804323F070039BB283F4405303607047800000F1804000F543
:200E6000B840036823F4E24323F070031B041B0C03607047800000F1804000F5B840036864
:200E80005B0406D5026848F68F73134043F4804303607047800000F1804000F5B84003687E
:200EA0005B0606D5026848F68F73134043F0400303607047064B1B689BB203EBC00000F1A9
:200EC000005000F540504000006880B2704700BF505C0040054B1B689BB203EBC000044BE4
:200EE00003445B00186880B2704700BF505C004004300020044B1B689BB203EBC000034BCD
:200F000003445B0019607047505C0040023000200D4B3E291B689BB203EBC0000B4B0344E7
:200F20004FEA430209D94B09C80604BF03F1FF339BB29B0243F4004304E04B08C90748BFD4
:200F400001339B0213607047505C00400630002070B54C4A4C4B116888B20C04188040F176
:200F6000908047F6FF7111601A88484C02F00F022270002A5FD1464C464D2268464E02F4E5
:200F800040522A80226802F030023280226822F4804222F0700292B282F4005222602268B7
:200FA00022F4E04222F0400292B282F0200222601B88D80602D52368190607D5226848F6A5
:200FC0000F731340236000F061FC12E01A0507D5226840F68F731340236000F069FA08E0AC
:200FE0001804B6D5226840F68F731340236000F0CDFB23682A8823F4804323F070039BB210
:20100000D10448BF83F480539504214A48BF83F4005313601368318823F4E04323F040039E
:201020009BB2CC0648BF83F01003880648BF83F02003136070BD930003F1804303F5B843FC
:201040001D68290409D5186840F68F7101401960124B013A53F8223098472B067FF579AFAF
:20106000217848F60F728B0003F1804303F5B8431868013902401A60094B53F8213098479E
:2010800067E770BD445C0040CC020020E0020020005C0040D2020020D4020020500000200F
:2010A0003400002008B5074A074B0849136002221A72074B074A1360074A1B6811609847CE
:2010C00008BD00BF04030020E40200206C00002000000020DC0200200003002010B5064C7B
:2010E00018B9236801221A8210BD044B1B681B68984720680A3010BD0403002000030020FB
:2011000010B5064C18B9236801221A8210BD044B1B689B68984720680C3010BD0403002064
:201120000003002010B5204B18B91B6802221A8210BD1E4A1968002010800C78134614F001
:201140007F040DD14A7A910644BF0221197012F0400F1A7814BF22F0010242F0010214E030
:20116000012C1FD0022C1ED1097901F00F02920002F1804202F5B84211F0800F126806D09A
:2011800002F03002102A07D101221A7004E002F44052B2F5805FF6E7054B1B681B69984767
:2011A000024810BD104610BD040300200A03002000030020234A2DE9F84314689046238AC1
:2011C000267A214FA3B9042E12D120490A78012A0AD11F4A10681F4A80B202445200136016
:2011E00030223A800B7027E010233B80072623E0A58AAB428CBF022604269D4228BF1D4661
:201200002846A369984781460020FFF753FE2A460146484600F068FB29460020FFF76AFEC2
:20122000238A4FF440525B1B2382638A1D4430233B80094B65821A80D8F800301E72BDE8AB
:20124000F88300BF04030020D4020020240B0020505C004002300020D202002010B50A4B9C
:201260000A491B6849789A7891420AD3D97841B99C8834B99A72064B1B685B6898472046D1
:2012800010BD022010BD00BF04030020900000200003002038B50E4A0E4C1268236892693A
:2012A00018799978904723689A7A7AB170B95A7962B9DD7855B9084B1B68DB6898472368EE
:2012C00028461A79DA729A781A7338BD022038BDDC020020040300200003002038B52F4B67
:2012E0001B68187810F07F0004D15A7A22F020025A7238BD02284ED15A88002A4CD15A7979
:20130000002A49D11A79264D22F08000840004F1804101F5B84109682D7812F0800F14BF4E
:2013200001F0300101F44051A84234D2002932D09B7A83B304F1804404F5B844120623684E
:201340000CD503F03003102B1FD1C4B22046FFF7A1FD20463021FFF75BFD16E003F4405366
:20136000B3F5805F11D128B90E4B93F83010FFF7CFFD01E0FFF77EFD236823F4804323F073
:2013800070039BB283F440532360074B1B685B699847002038BD022038BD00BF0403002076
:2013A00090000020000000200003002038B51D4B1D4D19682D780A7922F08004A30003F1A5
:2013C000804000F5B840006812F0800F14BF00F0300000F44050AC4222D24C8804BBF8B1D2
:2013E000897AE9B103F1804303F5B84312F0800F1A6807D022F4E04222F0400292B282F07A
:20140000100206E022F4804222F0700292B282F480521A60054B1B689B699847002038BDA7
:20142000022038BD04030020900000200003002008B5064B1B685A7A42F020025A72044BC7
:201440001B68DB699847002008BD00BF0403002000030020054B1A68538A18B98988CB1A82
:201460001382704708681844704700BF0403002008B50B4B002093F83010FFF749FD094B29
:201480001B68187A082806D1074B4FF480521A80064B10221A80B0F109035842584108BD6D
:2014A0000000002004030020D2020020D402002073B5964E964B3268964D92B213445B009B
:2014C0001A682B68197A09290FD092B2520002F1804202F5C0421178197051785970918852
:2014E0005980118999809289DA8001221A72DA885C78002A61D11A7812F07F023AD1092C55
:2015000002D1FFF7ABFE44E0052C0FD193F90220002A01DA08234DE0DA78002AFAD19A88B0
:20152000002AF7D19B7A002B37D0F3E7032C13D19A78012A07D0784B20461B685B69984722
:20154000032828D135E09A88002AF4D15B7A9806F1D5FFF76DFF1CE0012CECD19A78012A83
:20156000E9D19A88002AE6D15B7A9906E3D5FFF7B5FE0EE0012A04D10B2CDCD1FFF78AFE89
:2015800007E0022AD7D1012CF1D0032CD3D1FFF70DFF10B1CFE70028BCD132685F4B92B219
:2015A00013445B0000221A605D4B30221A80062300E009232A681372D4E0062C18D11A789C
:2015C00052067CD1DA78544B012A02D11B68DB696CE0022A02D11B681B6A67E0032A02D116
:2015E0001B685B6A62E0212A69D11B689B6A5DE0002C3CD15988002961D15A6822F0FF02CD
:20160000B2F5003F5BD11A7812F07F0204D19B88002B00F0AB8052E0012A0CD13E4A187912
:20162000126892699047002849D12B689B7A002B40F09C8043E0022A41D11B79394803F094
:201640000F018A0002F1804202F5B8421268007813F0800F14BF02F0300202F44052814284
:201660002DD213F0700F2AD1002A7FD127E0082C03D11B785B067BD021E00A2C1FD11A786D
:2016800002F07F02012A1AD19A7AC2B15988B1B95A6822F0FF02B2F5803F10D11E4A1879DA
:2016A000126892699047002864D008E03BB12A680024548293612046984720460AE0164B38
:2016C0001A682B68126958789047032802D1114B1B6805E02B684FF6FF711A8A8A4201D187
:2016E000092203E0022800D012B908221A7239E093F9001000292FDAD9880191019882422A
:20170000054811D9019A1A821FE000BF505C00400430002004030020DC02002002300020E6
:20172000D4020020900000208A420ED2016891F830108A4201D2002105E092FBF1F401FB12
:20174000142212B901210C4A1170026892F830209A82FFF72FFD05E003221A72074B4FF4E2
:2017600040521A80FFF784FE02B070BD044B9EE7044B9CE7044B9AE7240B0020D20200202D
:2017800025110008DD10000801110008F8B52B4D2C68237A032B01D0052B41D1A369228AAD
:2017A000ABB1A2B1A68A964228BF164630469847238A07469B1B2382638A0020334463821C
:2017C000FFF788FB32460146384600F0A5F8238A53B11B4B00204FF4405201461A80FFF7E3
:2017E00089FB184B30221A80238AA28A9A4202D82B68032202E01BB12B6805221A720CE0EF
:201800002A6806211172104A1168104A89B20A44520013600B4B30221A802B681B7A06E0C1
:20182000072B03D10A4B1B68DB68984708232A681372BDE8F840FFF71BBE00BF04030020D4
:20184000D2020020D4020020505C004002300020DC02002030B50B4B1C780023A3420CD2AD
:2018600003F1805202F5B85291000D6848F68F722A401A430A600133F0E7034B40F0800022
:20188000186030BD900000204C5C004010B5134C23681A7A022A01D0042A04D1FFF78AFC8C
:2018A00023681B7A13E0062A10D15A78052A09D11A78520606D19878FFF7CCFF084B1B68C1
:2018C0001B6A9847074B1B689B689847082322681372BDE81040FFF7CBBD00BF040300205A
:2018E00000030020DC02002030B501F10051013201F54051521049000023934200F102004F
:2019000009D010F8015C10F8024C44EA052421F823400133F1E730BD10B501F1005101322C
:2019200001F54051521049000023934205D051F8234020F813400133F7E710BD9504000811
:20194000810100083F0100084101000829020008CD020008430100088902000895020008E3
:20196000A1020008C102000800000000400000003D0100083D0100083D0100083D01000899
:201980003D0100083D0100083D0100083D0100083D0100083D0100083D0100083D01000817
:2019A0003D0100083D0100084D01000851010008690100086B0100086D0100086F01000817
:2019C00071010008730100087501000801010000E800002004000000320100201200000020
:2019E0004C0100201400000019010020100000006001002080000000E00100206C000000AE
:201A00004C0200206C0000001201000100000040AF1E030001020102030100002901002074
:201A2000090000000403090409022D0001010080320904000000FE0102040904000100FE7F
:201A40000102050904000200FE010206092103FF000008100110034C004C004D00200030DB
:201A60000030003300092103FF000008100112034C006500610066004C00610062007300AF
:201A8000CC0000201200000014034D00610070006C006500200030003000330080035300B9
:201AA00054004D00330032006400750069006E006F00200062006F006F0074006C006F0052
:201AC00061006400650072002000760031002E003000200020004500520052004F0052007B
:201AE0002E002000550070006C006F0061006400200074006F002000520041004D00200010
:201B00006E006F007400200073007500700070006F0072007400650064002E006C0353007E
:201B200054004D00330032006400750069006E006F00200062006F006F0074006C006F00D1
:201B400061006400650072002000760031002E00300020002000550070006C006F00610083
:201B60006400200074006F00200046006C0061007300680020003000780038003000300090
:201B800035003000300030006C03530054004D00330032006400750069006E006F00200079
:201BA00062006F006F0074006C006F0061006400650072002000760031002E0030002000B5
:201BC0002000550070006C006F0061006400200074006F00200046006C006100730068006F
:201BE0002000300078003800300030003200300030003000EC0000202D000000005000201A
:201C0000000C00200000000000000000000000000000000000000000000000000000000098
:201C20000000000000000000000000000000000000000000000000000000000000000000A4
:201C4000000000000000000000000000000000000000000000000000000000000000000084
:201C6000000000000000000000000000000000000000000000000000000000000000000064
:201C8000000000000000000000000000000000000000000000000000000000000000000044
:201CA000000000000000000000000000000000000000000000000000000000000000000024
:201CC000000000000000000000000000000000000000000000000000000000000000000004
:201CE0000000000000000000000000000000000000000000000000000000000000000000E4
:201D00000000000000000000000000000000000000000000000000000000000000000000C3
:201D20000000000000000000000000000000000000000000000000000000000000000000A3
:201D4000000000000000000000000000000000000000000000000000000000000000000083
:201D6000000000000000000000000000000000000000000000000000000000000000000063
:201D8000000000000000000000000000000000000000000000000000000000000000000043
:201DA000000000000000000000000000000000000000000000000000000000000000000023
:201DC000000000000000000000000000000000000000000000000000000000000000000003
:201DE0000000000000000000000000000000000000000000000000000000000000000000E3
:201E00000000000000000000000000000000000000000000000000000000000000000000C2
:201E20000000000000000000000000000000000000000000000000000000000000000000A2
:201E4000000000000000000000000000000000000000000000000000000000000000000082
:201E6000000000000000000000000000000000000000000000000000000000000000000062
:201E8000000000000000000000000000000000000000000000000000000000000000000042
:201EA000000000000000000000000000000000000000000000000000000000000000000022
:201EC000000000000000000000000000000000000000000000000000000000000000000002
:201EE0000000000000000000000000000000000000000000000000000000000000000000E2
:201F00000000000000000000000000000000000000000000000000000000000000000000C1
:201F20000000000000000000000000000000000000000000000000000000000000000000A1
:201F4000000000000000000000000000000000000000000000000000000000000000000081
:201F6000000000000000000000000000000000000000000000000000000000000000000061
:201F8000000000000000000000000000000000000000000000000000000000000000000041
:201FA000000000000000000000000000000000000000000000000000000000000000000021
:201FC000000000000000000000000000000000000000000000000000000000000000000001
:201FE0000000000000000000000000000000000000000000000000000000000000000000E1
:2020000000500020CD4A0008914D0008954D0008994D00089D4D0008A14D0008F14D000845
:20202000F14D0008F14D0008F14D0008F14D0008F14D0008F14D0008F14D00080154000859
:20204000F14D0008F14D0008F14D0008F14D0008F14D0008F14D0008F5500008FB5000083C
:2020600001510008075100080D510008354F0008454F0008554F0008654F0008754F0008E4
:20208000854F0008954F0008494E0008F14D000805590008F14D0008F14D00081351000835
:2020A000095600082D5600085156000885560008D5560008E1560008ED560008E5510008A1
:2020C000FD510008F151000809520008F14D0008F14D0008C1570008D9570008F1570008C9
:2020E0001B510008F14D0008F14D000810B5054C237833B9044B13B10448AFF3008001239E
:20210000237010BD500F002000000000C0D9000808B5064B1BB106480649AFF30080064858
:20212000036813B1054B03B1984708BD00000000C0D90008540F0020500F00200000000025
:2021400008B5094920F0004007F08AF906F040FC03A3D3E9002305F0D9F806F06FFF08BD00
:20216000666666666666F63F00004842AFF3008090F900308B4205D0002300224360028154
:202180004281C360017070472DE9F743044647680846884607F05CF80146384607F0ACF821
:2021A000E16806F0A1FF0021064607F061FAB0B1304605F067F82E49054607F04FFA50B94B
:2021C00028464FF0434107F03FFA30B9284607F059FAC5B204E07F2502E0802500E005464C
:2021E00068B207F035F80146304606F07BFF2389E06033B1984528BF9846C8EB03032381A5
:202200001BE06689BEB1B04528BFB046C8EB0608404607F01DF80146384607F06DF8814658
:20222000304607F015F80146484607F019F9A4F80A80606001E000236360237838465D43E0
:2022400000218DF8045007F0EBF948B9606800214FF0010507F0E4F900B90546EDB200E023
:2022600000259DF8040040EA052003B0BDE8F0830000FE4208B504F01DFD003018BF012053
:2022800008BD08B504F016FDD0F1010038BF002008BD000010B50024044B0421185D013410
:2022A00004F03CFC082CF7D110BD00BF1000002038B5074C04F108056078002104F02EFCE1
:2022C00014F8010F002104F00BFDAC42F4D138BD0700002008B5FFF7EBFFFFF7DBFF002366
:2022E000074900225A5407495A5407495A540133082BF5D1BDE808404FF4FA7004F020BD2A
:202300002C100020900F0020541000202DE9F0410025384E0021384C705D04F0E1FC4FF4A6
:202320002F7004F022FD2078FFF7ABFF80466078FFF7A7FF0746A078FFF7A3FF800040EAD2
:202340004707E078FFF79DFF47EA0807FFB247EAC000C7B22079FFF794FF47EA0010C7B20E
:202360006079FFF78EFF47EA4010C7B2A079FFF788FF47EA8010C7B2E079FFF782FF47EA36
:20238000C010C4B20121705D04F0AAFC1B4BEA5C1E46A24206D05C55194B01221A70194A7F
:2023A00012685A800135082DB3D115480378D3B1144B1A684388D31A142B14D90023002175
:2023C0000A46B45C1C4104F00104944001322143082AC9B2F5D10C4AD1540133082BEED1C8
:2023E0000023037002E0012004F0AAFC0120BDE8F08100BF0800002010000020900F00209D
:20240000A60F0020B01900202C10002008B5FFF761FF024B00221A705A8008BDA60F002022
:2024200008B5302004F046FCC0B208BD70B502EBC102D6B2827C1D4604464F4B3AB106EBA4
:20244000821233F812104D4B01229A5504E0027C06EB821233F812104FF6FF73994200F03B
:202460008980E9293ED006D8C12915D0E82925D085296DD10AE0F72958D002D8F6294BD04E
:2024800066E0F8295CD0F92955D061E02068012D036811D1DB6861E0012D07D120680368A1
:2024A000DB689847236883F8615070BD002D61D12068036880F861501B694FE0FFF7B0FF43
:2024C00001280CD1012D03D120680368DB6804E0002D4FD1206803681B6920213EE0A068AF
:2024E000092112E0FFF79CFF01280CD1012D03D120680368DB6804E0002D3BD120680368E1
:202500001B69B0212AE0A0680A212A1C18BF0122BDE8704001F000BF012D02D1E0686F210B
:2025200012E0E068BDE8704001F0EABE012DF8D1E068702108E0012DF3D1E068E92103E094
:20254000012DEED1E068EA21BDE8704001F0D4BE012D05D12068C9B20368DB68984770BDA2
:2025600045B92068C9B203681B699847A37C0BB1024B9D5570BD00BFCAEA0008C60F0020D5
:2025800070B50E4BA2B05B5C06461341DB070D46144611D50A2301FB033313440133009322
:2025A00007492A46234602A807F032FF3046294622460123FFF73AFF22B070BD2C10002025
:2025C00050E90008F0B50F4BA3B05B5C0746134113F001060D46144611D10A2201FB02222B
:2025E00022440132009208492A46234602A807F00FFF3846294622463346FFF717FF23B02A
:20260000F0BD00BF2C10002063E900082DE9F84F8046FFF77BFE0024154B5FFA84F9E75C6F
:20262000144B14F803B09A4697EA0B0B04D10134082CF1D1BDE8F88F0025012616EA0B0F73
:202640000ED03E42404649462A4602D0FFF798FF01E0FFF7B7FF1AF8043073400AF804307C
:202660000135EDB27600082DF6B2E7D1DFE700BF2C1000205410002010B50024044B0421B8
:20268000185D013404F04AFA112CF7D110BD00BF1800002038B51E2004F067FB002425467F
:2026A000154B185DFFF7E6FD80F00100C3B2A3400134112C45EA0305F2D110490B68AB427E
:2026C0000F4B05D001221A700E4A0D6012685A801B780B4A5BB10B4B18685388C31A052B53
:2026E00005D9094B096819600023137002E0012004F026FB012038BD18000020241000205E
:202700009A0F0020B0190020A00F002010B50446FFF7B2FFA06840F2FF1101F00CFEA06835
:2027200040F2FF1101F024FE024B00221A705A8010BD00BF9A0F002081422EBFC0EB0100C0
:202740004042C1EB0000704710B51446FFF7F4FFA04228BF204610BD38B50B4B04461D687E
:20276000038913B94FF47A7308E0006829464FF47A72FFF7E9FF63681844430863604FF48D
:202780007A732560238138BDB019002003898B428CBFC1EB030300230381038913B143684D
:2027A000194441607047000008B5038953B1406830B106F049FD0146034806F051FE08BDB6
:2027C000014808BD002008BD00007A4443780BB10123837070470023437083708088C01A58
:2027E00018BF012070470000A14B70B533F811104FF6FF7399420446154600F05C81EE29B2
:2028000000F0BC8018D8872900F04B8108D8812927D0822900F04581802940F04C8140E187
:20282000EB295ED002D8EA2942D070BDEC2972D0ED2900F0898070BDF2291DD005D8F02999
:2028400000F0CB8040F2AF80DBE0F42900F0F780C0F0EB80F52900F01581FA2900F0E58066
:2028600070BD012A02D1006803681FE1002A40F02281006803681BE1012A01D1A27470BD4E
:20288000002A40F018817B4EAB5D5BB12068A17C0368794A05EB81111B6912F81110984785
:2028A0000023AB550135402DEDD10023A37470BDFFF7B6FD01280DD1012D03D12068036888
:2028C000DB6805E0002D40F0F680206803681B69DA21EEE0A068C5B10021BDE8704001F0D8
:2028E00047BDFFF79DFD01280DD1012D03D120680368DB6805E0002D40F0DD802068036873
:202900001B69D921D5E0A06815B940F2FF11E4E740F2FF31E1E7FFF783FD01280DD1012DCC
:2029200003D120680368DB6805E0002D40F0C380206803681B69D821BBE0A068C5B100215E
:20294000BDE8704001F0F7BCFFF76AFD01280DD1012D03D120680368DB6805E0002D40F0A0
:20296000AA80206803681B69D721A2E0A06815B940F2FF11E4E740F2FF31E1E7FFF750FDEC
:2029800001280DD1012D03D120680368DB6805E0002D40F09080206803681B696A2188E03C
:2029A000A068022112E0FFF73BFD01280CD1012D03D120680368DB6804E0002D7BD12068A9
:2029C00003681B696B2174E0A06803212A1C18BF0122BDE8704001F09FBCFFF721FD0128DE
:2029E0000CD1012D03D120680368DB6804E0002D61D1206803681B6975215AE0A06801210E
:202A0000E4E7FFF70DFD01280CD1012D03D120680368DB6804E0002D4DD1206803681B6907
:202A2000692146E0A0680421D0E7012D02D1606801212BE0002D3ED1606801212DE0012AAE
:202A4000836903D15A7000229A8070BD9B7833B94068042101F04CFD6069084901E04069D9
:202A6000074904F01EF8A069BDE87040FFF7B3BECCE90008C60F0020CAEA000884E9000854
:202A800094E90008012A05D140680221BDE8704001F06DBD7AB940680221BDE8704001F031
:202AA0006BBD2068012DC9B2036801D1DB6800E01B69984770BD70BD2DE9F8430646114FA3
:202AC000FFF7E8FD10493A680B68894692EA030816D00025012414EA080F0BD0D9F8002046
:202AE00030462240294618BF0122FFF77DFE3B6863403B600135EDB2112D4FEA4404EAD1F4
:202B0000BDE8F8836C0F0020A00F002073B5054672B68269002354789380354A84F00104AB
:202B200011781646A14205D0324A13819382324A137007E02F48297FFFF728FE2F48297F93
:202B4000FFF724FE012C34702D4E25D12D4C297F2046FFF719FB297FADF8000004F1100038
:202B6000FFF712FBADF80400C2B29DF801009DF80010234628B10020606100241C835C8335
:202B8000D8619DF8050028B10020002458611C835C83D861002417E0174B71781A780A448F
:202BA000D2B254B2022194FBF1F4E4B2C4EBC41102EB41021A702CB1A869FFF707FE002215
:202BC000114601E02246214600233370737062B609B902B94CB16342686849B252B25BB232
:202BE00002B0BDE8704001F0A1BC02B070BD00BFA40F0020AC0F0020980F0020B80F002086
:202C0000C40F002034100020104A08B5104B11681868FF221960FFF797FD0E4BC0B2D861CA
:202C20009B6980B29A8882428BBFC0EB0200002298809A800748FFF769FF0648FFF73CFF01
:202C4000BDE808400348FFF7E1BC00BFB019002028100020700F002008B52820022103F0EF
:202C60005DFF2920022103F059FF2A20022103F055FF2B20022103F051FF28200A4902221D
:202C800003F01AFF2A200949022203F015FF29200749022203F010FFBDE808402B2005491C
:202CA000022203F009BF00BF81300008ED2F0008552F0008BD2E00082DE9F0416B4F8CB0DD
:202CC00038466B4901F068FC38466A4901F066FC6949384601F064FC642003F013FF674B2D
:202CE000002403600226092344608DE84800644B054602941A68634905F14803083001F070
:202D000091FE614B85F85A602B60A5F8586005F151034FF0010885F860605C4E6B6585F89B
:202D20005B8085F861805020356003F0EBFE0D2214238DE80C00564B029405461A685149F4
:202D400000F1400301F06EFE95F8403085F848402B640F2385F84530202385F846306FF098
:202D60007F0385F84730022385F84930082385F84A3085F84B4085F84C4085F84D4085F808
:202D800044404820B56003F0BDFE05238DE80801404B029405461A683A4900F1410301F047
:202DA00041FE85F840404420756003F0ABFE032300930193384B02941A680546314900F164
:202DC000400301F02FFE2B6C062064F317232B643368F56083F8614003F094FE04704470FC
:202DE00084708480B0611C2034747474B474F47403F088FE29494460034640224FF47A7007
:202E0000196098601C745A619A617361DB680790089305910A920B9205A9214ADB2319486B
:202E200006948DF8244001F091FD1E4B97F874101A6801B9FEE7137B052BFAD11348FFF719
:202E4000E5FA1248FFF762FC1048FFF705FF7069154903F026FE0221302003F05FFE4FF43F
:202E60007A7003F06DFF0CB0BDE8F081B4150020A3E90008AFE90008B7E90008B8F10008C1
:202E8000E40100200810002048ED0008700F0020E0010020E8010020C001002068ED0008D1
:202EA000EEE9000838060020C0E9000808B505F06DFDBDE8084004F0A5BB00002DE9F04180
:202EC000214B224D5A78224C05F10C07013238465A70FFF741FC012104F11000FFF748F9C2
:202EE0002846FFF761FC06463846FFF75DFC31460746304606F000FA39468046384606F015
:202F0000FBF90146404606F0EFF804F0D1FB8046FFF716F9414606F0A3FA804641463846A3
:202F200006F0EAF941460746304606F0E5F96060288AFFF7BBFF06F061F880B2676120838C
:202F40006083BDE8F08100BFC40F0020AC0F0020341000202DE9F041214B224D5A78224C25
:202F600005F10C07013A38465A70FFF7F5FB4FF0FF3104F11000FFF7FBF82846FFF714FC0E
:202F800006463846FFF710FC31460746304606F0B3F939468046384606F0AEF9014640465C
:202FA00006F0A2F804F084FB8046FFF7C9F8414606F056FA80464146384606F09DF94146E6
:202FC0000746304606F098F96060288AFFF76EFF06F014F880B2676120836083BDE8F0813A
:202FE000C40F0020AC0F0020341000202DE9F041204B214D1A78214C013228461A70FFF75F
:20300000ABFB01212046FFF7B3F82846FFF7CCFB074605F10C00FFF7C7FB39460646384666
:2030200006F06AF931468046304606F065F90146404606F059F804F03BFB8046FFF780F8BE
:20304000414606F00DFA80464146384606F054F941460746304606F04FF90646A888FFF7E4
:2030600025FF05F0CBFF80B26760208160816661BDE8F081C40F0020AC0F002034100020E3
:203080002DE9F041214B224D1A78224C013A28461A70FFF761FB4FF0FF312046FFF768F85E
:2030A0002846FFF781FB074605F10C00FFF77CFB39460646384606F01FF93146804630466A
:2030C00006F01AF90146404606F00EF804F0F0FA8046FFF735F8414606F0C2F980464146D2
:2030E000384606F009F941460746304606F004F90646A888FFF7DAFE05F080FF80B2676066
:20310000208160816661BDE8F08100BFC40F0020AC0F0020341000200C4A01231370402101
:2031200000235160D360536153701361084A00211381D36093821360064A51601381538172
:20314000D160516113835383D161704708100020AC0F00203410002008B51E49422207F041
:2031600081F81D4A0346917D90F82600014483F8261093F8360092F82210927A014483F82B
:20318000361093F83D1098780A4483F83D20134A9178014499709278997A1144997293F81F
:2031A0002D10114483F82D10997E1144997693F82210114483F8221093F823100A4483F804
:2031C0002320074A12681A87064A1268A3F83F2008BD00BFCAEB00085C000020300000206F
:2031E0008000002084000020064A00231360064A1360064A1360064A1360064BFF221A7060
:20320000704700BF741200206C11002068110020601000205D10002007B5074B074A1B685D
:203220000092074A0749019207484FF4807200F0C5FE03B05DF804FB681100206010002061
:203240005D100020741100205C00002002F07F02212A13B514D199B9022805D0222805D1E4
:20326000094A03F0030313700C4600E00224074B1B6833B102A901F8010D0220984700E0DB
:203280000224204602B010BD5C1000207011002037B502F07F02212A05460C461AD1C9B942
:2032A000202807D021280BD10C480721224600F0C3FD06E009480721224600F031FE00E070
:2032C0000224074B1B6833B102A901F8015D0220984700E00224204603B030BD29000020B7
:2032E0007011002037B51A4D1A4C2A6802AB43F8042D04F118004FF48072174900F02EFE0B
:20330000019B164A2B6012689B1A154ADBB21268C2F58072934212D294F822309B0003F1C2
:20332000804303F5B8431A6822F4804222F0700242F4004242F0800282F440521A60094BF7
:203340001B6813B101200021984703B030BD00BF741200205C000020641000206C11002053
:203360008000002064110020034B002808BF40201881024B186070475C0000208400002046
:20338000002808BF402008B580B200F061FE024B1884024B186008BD5C0000208000002011
:2033A000C20744BF034B1960830744BF024B1960704700BF641100207011002070B50C4604
:2033C00029B31449144A0B6812680D469A1AD2B2C2F1FF02944201D9BAB11446002291B250
:2033E000A14202F1010205D2465C0C49CE540133DBB2F4E72B600A4B1A781206FBD51B787B
:203400001B0604D5FFF708FF01E0104670BD204670BD00BF68110020601000207411002031
:203420005D100020034B1868034B1B68C01AC0B2704700BF741200206C1100200A4B10B541
:203440001A680A4B1B689B1ADBB2994228BF194600238B4206D0064CA45C0132C454D2B2C8
:203460000133F6E7184610BD6C110020741200206410002008B5FFF7E1FF104A136803448A
:20348000DBB213600E4A1268D31ADBB2402B13D80C4B93F822309B0003F1804303F5B84311
:2034A0001A6822F4804222F0700242F4004242F0800282F440521A6008BD00BF6C1100205F
:2034C000741200205C0000200B4B10B51B6819440A4BC9B21B685B1ADBB2934238BF1A464E
:2034E0000023934206D0064C645C0131C454C9B20133F6E7184610BD6C11002074120020A8
:2035000064100020024B187800F00100704700BF5C100020014B1868704700BF29000020BC
:20352000800000F1804000F5B840036823F4E04323F0400343F4004343F080035940016048
:20354000704700000B4B1B685A8A20B90A4909888A1A1A8270470949096831B1D8889B8A19
:20356000134498429CBF01230B70054B186800B110447047E819002038140020A412002031
:2035800030140020104B10B51B685A8A60B90F4CD98824888C4238BF21468A423ABFC2EB21
:2035A00001021A82188210BD0949096831B1D8889B8A134498429CBF01230B70054B1868E0
:2035C00000B1104410BD00BFE8190020A2120020341400203C1400202DE9FF41164B1C6852
:2035E000227802F01F03012B21D1144B2179D3F800C0134BD3F800800023634517D058F8D0
:203600002360376A8FB1B5788D420ED836782E44B1420ADA491BE578A3780095A588C9B254
:203620000195E4880294B84702E00133E5E7022004B0BDE8F08100BFE81900209C12002077
:20364000101400202DE9F341154B1C68227802F01F03012B1FD1134B2179D3F800C0124B4E
:20366000D3F800800023634515D058F82360776A7FB1B5788D420CD836782E44B14208DA96
:20368000491BE578A3780095A488C9B20194B84702E00133E7E7022002B0BDE8F08100BFF1
:2036A000E81900209C1200201014002010B50B4B1B689B7A1BB10A4B05221B681A730024A8
:2036C000084B1B689C4208D2074B1B6853F824305B6903B198470134F2E710BDE819002095
:2036E000380600209C1200201014002010B50024064B1B689C4208D2054B1B6853F8243073
:203700009B6903B198470134F2E710BD9C12002010140020024B04221B681A73704700BF2C
:2037200038060020012906D8044B1B79834294BF0220002070470220704700BFA8120020BD
:2037400030B5134B05461B689A78124B1B7893421CD9114C04EBC2018B889BB954F8320098
:20376000C45C0E4A59002CB1242B03D00A4454800133F5E78B1C0A49D8B210708880A84251
:2037800028BF2846BDE8304002F0C0BD002030BDE819002068010020480100208800002088
:2037A0006C010020014902F0B1BD00BF20010020014902F0ABBD00BF2801002038B5154BD9
:2037C00000221B6801219A72134B4FF4E050196412490C681A645A6418644FF43F405A64C1
:2037E000206018640E4B4FF48010186014460D460C4B1B689C4208D20B4B1B6853F8243072
:20380000DB6803B198470134F2E72B6800221A7338BD00BFE8190020005C004038060020B3
:2038200000E100E09C12002010140020034B1B6D03EBC0004300024818447047005C0040F5
:20384000046000408B4B2DE9F74F1B688A4C0025C0229D725A722565226848F68F13134010
:2038600043F40073284623601021FFF759FE226D824B5200134480221A60236D40215B00C2
:2038800003F1804303F5C0431960226848F68F6313402360284602F057FB2368012523F4F3
:2038A000804323F0700343F4004343F0800383F440532360AC0004F1804404F5B84423681D
:2038C000E8B223F4804323F0700343F4004343F0800323602368590406D5226848F68F73AE
:2038E000134043F4804323600021FFF719FE23685A0606D5226848F68F73134043F0400371
:2039000023600135082DD5D14FF000085C4B00201B68984580F0A1804FEA880B0746594B57
:203920001B6853F80B305A78974280F090809B6A0C2404FB0734A67AE17AB50005F18045F9
:2039400005F5B8452A6848F68F1313404E4A01F0030132F81120DFF820A113432B60E37AED
:20396000296813F0040F48F68F630CBF00224FF480720B4013432B6063684FEAC60903F15B
:203980004043A3F5C0434FEAA30CE37A4FEA4C0C1FFA8CFC13F0080FDAF850202CF0010316
:2039A00037D04A44520002F1804202F5C0421360304620218DE80810FFF7B2FD9DE8081079
:2039C000E27A12F0040F40D0DAF8502025894A44520002F1804202F5C0421360DAF8503023
:2039E00009F104026D081A4452000CEB050302F180429BB202F5C04223F0010313603046A8
:203A0000FFF714FF218905604908304602F09CFA1BE009F104094A44520002F1804202F5B1
:203A2000C0421360E37A5B0703D43046218902F08BFA2B6823F4804323F0700343F4004377
:203A400043F0800383F440532B60013767E71B6903B1984708F1010858E70C4B012218802B
:203A60000B4B18800B4B1B681A7303B0BDE8F04F02F046BEE8190020005C00400860004000
:203A80009C1200201014002074010020A212002038140020380600202DE9F04F884B91B078
:203AA0001860884B01221960874B08911A700023864A87495A5087495A5004331C2BF7D1FD
:203AC0000024C0210491A146A346A24608998C4200F0AA807A4B1B6853F8245003EB840290
:203AE00005932B7809920A93AB8885F802A04B44C82B01DD0020E0E0734B4FF0000818782C
:203B0000AB6A0A336A7890457FD20C2202FB08F20B925A78A3F10A06920644BF0BF101007B
:203B2000C0B206960246072A6CD8099F0B9E3F68B96A07970E440D9600214FEA810CCDF860
:203B400030C00026A1423AD2079F97F801C0664535D2DDF814C00C9F5CF807704FF00C0C42
:203B6000BF6A0CFB067797F80AC00E97944524D197F80BC00D9FCDF80CC0FF7ACCF3C00C31
:203B80000297C7F3C007BC4500F09480DDF808C01CF0100F40F08E80039F17F0100F40F008
:203BA000898007F0070CCDF838C0DDF808C00CF00707DDF838C0BC457CD10136C2E7A142B0
:203BC00001D14645C5D30131A142B6D9049E069F710001F1804101F5C04143F8061CFE7A15
:203BE0005FFA82FC770733F8021C39D57C2931D8033121F00301049E314489B2B1F5007FAB
:203C0000049139D9304B187074E72F4BDDF828C018703148AB684844E2449847AB8801345B
:203C20004B441FFA83F951E72C4A2D4B1168012019605168127A59601A7209F1090292B254
:203C400083F804A05A80274B9A80274B0BF101021A7032E03707CBD43F3121F03F01CAE783
:203C60003E2901D9360703D5013121F00101C2E71F3121F01F01BEE753F80A1C11B9134943
:203C800043F80A1C069F1A70F97A53F80A6C11F0080F18BF0E4F4FFA8CF108BF0D4F01F139
:203CA000FF3C47F82C6008F101080C338B45B8BF934627E70132D2B235E711B0BDE8F08FD7
:203CC000101400209C1200209812002095670008141400207C120020B112002012EC000825
:203CE000A8120020200100203001002030B5039D144C08B1208104E06FF0500020721E20B6
:203D0000607209B1618102E02420A072E1720E490E48002A08BF0A460D498A600022934285
:203D200008BF03460B618A818A820A4B1DB903221A70257430BD8A8304221A700323237416
:203D40008D6130BD3201002040EC00080CEC00084801002068010020F8B5294B03221C6845
:203D60000C21204601F00CFA23684FF080521A61244B1B6823B1DB00013B18460138FDD859
:203D800020460C21042201F0FBF9DFF8A8C01E4BBCF800201D4D1E4C1A800FCC0FC50FCC11
:203DA0000FC594E80F001B4E85E80F000FCE1A4D0FC50FCE0FC5374657F820392B60174BE4
:203DC000174D1B88ACF80030A4F1200C0FCDACE80F000FCDACE80F0095E80F0084E80F0042
:203DE000104C0FCC0FC70FCC0FC723680E4933600E4B0F4A1868BDE8F84001F05FBD00BFB5
:203E000098F0000844010020A0120020A013002054060020A40600207C13002030010020C4
:203E20004CEC00081CEC000814140020380600207C120020D0060020064B1860064B0020AE
:203E40001980064B1A60064B064A1B689A615882FFF778BB3014002038140020A412002036
:203E6000E819002045350008034600201BB11A689B681044FAE770472DE9F8431D4B80467A
:203E80001C681D4B658A38B91868FFF7EDFF401B20824046BDE8F8831C6844B30026334637
:203EA00008EB050293421DD22068C0B11F18BD4216D29D428CBFC3EB05010021BA429ABFD9
:203EC000C3EB0203C1EB0309C1EB000963680B48194430444A4606F0C5F94E4400E01F46B8
:203EE000A46814B90548BDE8F8833B46D8E72046BDE8F883E819002078120020D0130020E8
:203F0000044B054A1860054B00201B689A615882FFF7B2BF78120020793E0008E8190020D2
:203F2000064B1860064B00201980064B1A60064B064A1B689A615882FFF724BB3C140020A5
:203F4000A212002034140020E8190020853500080346998800680022FFF76EBFF0B506463A
:203F60001448B57A1C68006D776800EBC500124D400028580025C0F30900854217D257F837
:203F800015601FFA86FCF6B20E550134B4FBF2F602FB16446E1C864209D24FEA1C260E55D8
:203FA0000134B4FBF2F602FB16440235E5E71C60F0BD00BF005C00400C600040F8B5069F59
:203FC00006463D6807985B1BB3FBF2F402FB1434002CB8BFA41844B903785BB2002B02DC15
:203FE000FF23037032E0047027E001230370338970689C42A8BF1C460023A3421CDA11F8C6
:2040000005E00135B5FBF2FC02FB1C5503F1010CA4455FFA8EFE02DBC0F800E00CE011F840
:2040200005C001354EEA0C2E40F804EBB5FBF2FE02FB1E550233E0E73D60B07AFFF7F6FB32
:20404000A3B20360B07A3021FFF76AFA2046F8BD11220123834205D2013A02D05B009BB210
:20406000F8E77047002B18BF18467047022830B54FF0000314BF002502250C225A43084C04
:20408000A018A2583AB1C27902F00202AA4202D182798A4203D00133082BEED1002030BDC6
:2040A00054150020044A00231360044A1360044BFF221A70704700BF501400204814002062
:2040C0004414002007B5074B074A1B680092074A0749019207484FF48072FFF76FFF03B025
:2040E0005DF804FB50140020481400204414002054140020A801002010B502F07F02212A20
:20410000044619469DF8080027D1012C19D0092C3FD1831E012B3CD8FFF7A8FF0446002816
:2041200037D0C379DB0702D4037A012B2FD02068A18804F1080289B2FFF7F2FE0123237252
:2041400023E0032825D1FFF791FF034608B3027AFAB10068998889B214E0012A19D1032C8E
:204160000ED0062C15D1222804D10B4B1868FFF7C7FE0AE021280CD10848FFF7E9FE04E078
:20418000074811460022FFF757FE002010BD032010BD022010BD00BF4C140020B801002028
:2041A00040140020114B10B50246044603F1180153F8040B8B4242F8040BF9D11B7813707B
:2041C0000B4BA2789B781344A3700A4B227D9B7A13442375084B1868FFF746FE074B207407
:2041E0001B68C0F307206074E38210BD80EC00087C010020A80100204C140020B40100202D
:2042000002F07F02212A05D10B2803D1024A0020136070470220704740140020431E402B54
:20422000034B28BF40201881024B1860704700BFA8010020B4010020014B1860704700BF3D
:204240004C14002010B5022814BF0020022000230C225A43064901338C18E47904F002046E
:20426000844204BF00248C50082BF1D110BD00BF5415002008B5054B002202201A60FFF7EA
:20428000E1FFBDE808400320FFF7DCBF4014002070B50C4629B31449144A0B6812680D46DB
:2042A0009A1AD2B2C2F1FF02944201D9BAB11446002291B2A14202F1010205D2465C0C4991
:2042C000CE540133DBB2F4E72B600A4B1A781206FBD51B781B0604D5FFF7F4FE01E010461A
:2042E00070BD204670BD00BF50140020481400205414002044140020A0F8411000F044BB67
:20430000026C6FF31722026400F03EBB90F84D300BB900F039BB70470123013903FA01F194
:20432000D0F841300AB10B4301E023EA0103C0F84130FFF7EBBF40F2FF32914228BF11460C
:2043400090F8452010B502F00F0201F00F0442EA041280F8452090F84620C1F3051122F0BB
:204360003F02114380F84610BDE81040FFF7CEBF10B540F2FF32914228BF114690F846203B
:2043800001F0030402F03F0242EA8412C1F3870180F8462080F84710BDE81040FFF7B6BFE7
:2043A00010B50021044606224B3005F0D1FF002384F8493004F10800BDE8104000F0E4BACD
:2043C00038B503680446DB680D46984728B1236820461B6929469847012038BD002313706E
:2043E00090F8613073B190F86030002B18BF013090F851309B0705D5A1F16103192B18D886
:204400002039C9B2080608D40D4B585C030616D50223137000F07F007047872902D97831DC
:20442000C8B270470123803903FA01F1002011707047A1F14103192BE4D82031E1E7704781
:20444000BCEC000813B50DF107020446FFF7C6FF18B99DF80700B0B921E00023E21892F85A
:204460004B2082420FD00133062BF7D10023E21892F84B1011B982F84B0004E00133062B27
:20448000F5D100200BE094F849309DF8072004F10800134384F8493000F076FA012002B00F
:2044A00010BD13B50DF107020446FFF797FF68B10023E21892F84B10814203D1002382F83B
:2044C0004B3006E00133062BF3D102E09DF8070060B194F849309DF8072004F1080023EAF8
:2044E000020384F8493000F04FFA012002B010BD38B50025044680F8435080F8445080F8FE
:20450000455080F8401080F8421000F03DFA84F8405084F8425084F8435084F8445084F898
:2045200045502046BDE8384000F02EBA30B590F8405080F8431080F8425080F8442080F865
:204540004530BDE8304000F01FBA90F840208A420CD0002280F8401080F8421080F84320E9
:2045600080F8442080F8452000F00EBA704790F840301943FFF7E9BF90F8403023EA01011A
:20458000FFF7E3BF002202604260826080F874208281C28102677047016070474160704799
:2045A00081607047F7B590F8745004460DBB06462F46236F9F4205D2B36ABBB1B06D9847C9
:2045C000A0B916E0A368A089E189009394E80C00FFF78CFB04F11000216FFFF75DFA40B183
:2045E0000125FFF7B9FB84F8745002E001370436DFE7284603B0F0BD00230367704770B55A
:20460000056F0024AC420AD005F1160650F82660964207D100EB840636698E4202D1052CC2
:2046200002D90DE00134EDE700EB8406B362049BAC4231613364B26504D30135056701E0F8
:20464000002070BD012070BD0148FFF79BBF00BFB415002010B5084904460120FEF7A0FE6A
:2046600006490220FEF79CFE6069FEF77DFEA069FEF786FE012010BD11470008C146000822
:20468000FEF7D0BE07B501210DF10700FEF7D6FE01280CBF9DF807004FF0FF3003B05DF8E5
:2046A00004FB07B501210DF10700FEF7E3FE10B19DF8070001E04FF0FF3003B05DF804FB8F
:2046C00010B50B78222B20D1104CFEF71BFF2378032B0DD8DFE803F00702070700280CBF77
:2046E0000223012303E000280CBF032301232370FEF710FFB0F5966F07D12378022B04D19B
:2047000000200A2100F086FDFEE710BD2C1600201D4B73B51A78022A34D103221A70FEF7D0
:2047200081FE03282ED9FEF77DFE0422011F01A8FEF7CAFE9DF80430312B23D19DF80530C9
:20474000452B1FD19DF80630412B1BD19DF80730462B17D10D4C4FF0C2466FF0060544F073
:2047600001040B4B184685464FF001002146324604B402B401B401B401B401B401B401B4EA
:20478000AE46704702B070BD2C1600209547000800080020024B18460138FDD800F076BD45
:2047A000FF340C0007B50023024600930349044B0448FFF724FF03B05DF804FB30000020A9
:2047C00055460008B415002070B50E4615460024AC4205D23019291BFEF74CFE0444F7E79E
:2047E000204670BD13B50446FEF71CFE30B120460DF107010122FFF7E7FFF5E702B010BD5E
:2048000008B5064B1B681B7B052B05D1FEF77AFE003018BF012008BD002008BD38060020CE
:2048200070B50E461546FFF7EBFF48B146B10024AC4205D23019291BFEF7C0FD0444F7E786
:20484000002070BD07B502AB03F8011D19460122FFF7E6FF002003B05DF804FB38B50546CD
:2048600008460C4605F0FAFD214602462846FFF7D7FF002038BD10B504464068FFF7CEFC37
:204880002269A3693AB9802213E05A791A710AB119680A709B6B002BF7D104F10C0010E0FB
:2048A000997949B159791971197909B1186801709B6B002BF4D103E0511C1A71CAB2F3E72C
:2048C000A068FFF7B9FC012010BD000007B50023024600930349044B0448FFF790FE03B05F
:2048E0005DF804FB7C01002077480008B41500200AB9037843B300238B63836923B9816128
:2049000006E09A6B1AB113468B42FAD11CE0996382681AB901F11403836006E093680BB1B2
:204920001A46FBE701F11403936001F120029A6001F12C038B62002381F8343081F835303F
:2049400081F8363081F83730704700002DE9F041457804460E46174698468DB90948FFF777
:204960004BFEC4F80C80276165612046FFF7AEFF3046FFF717FFBDE8F0410248FFF712BEE7
:20498000BDE8F081B415002038B50489056834B128462146FFF77CFC241A0544F7E720463E
:2049A0002146BDE83840FFF773BC0346F0B5DD6800200A4698615861586218621863D86210
:2049C00055B398791E8A4FF0FF34A8B9B04211D2611C11D12F5C852F04D1441CB44228BFBE
:2049E0004FF0FF3407F00307032F16BF01300530C019EBE70121997199799D6109B15E6177
:204A00000AE0191D596201215C6119626118E4430D4426441D63DE62D86B1946BDE8F040CF
:204A2000FFF766BFF8B5069E04469DF81C509DF82070C16322B11168C1605168016101E00D
:204A4000C260028225B901332360731E238101E02360268120680021228905F079FC657147
:204A60002EB125B11FB923681D70A77101E00123A37120460021FFF798FF2046F8BD000031
:204A800013B5114C0322D4F8C00094F8CC1000F077FB94F8CC204FF4803101FA02F2D4F84F
:204AA000C00003681A6100230193019BB3F5007F02D2019B0133F7E794F8CC10042200F0D6
:204AC0005FFB02B010BD00BF88ED000801498D460149084700500020DD4A000808B5124B52
:204AE000124A1968914201D0002301E0104B07E01048D4188442F9D2C858D0500433F7E7C5
:204B00000D4A934203D2002243F8042BF8E705F0D5F800200146024601F0EEFF074B0BB1CC
:204B200005F0BCF8FEE700BFCCF3000800000020500F0020500F0020F81900209D9C0008D1
:204B400008B50D4B1A680AB90C4A1A601B680C4AD21A824204DB09494242591A914206DAC7
:204B600005F096F80C2303604FF0FF3008BD024A18441060184608BD30160020F81900201B
:204B800050390128FEE701F0BFBF00000B4B10B5196809220A230A4801F040FF094B022221
:204BA00019680948032301F039FFBDE81040074B074819681A221B2301F030BF70040020CF
:204BC00034160020740400204C160020780400206416002010B5044600F082F9034B2046ED
:204BE0001978BDE8104000F017B900BFB4020020F8B50446056800F083FC22680023510108
:204C000001F184410B60802129600121A9622B61EB606379696113B18B4203D02BE04FF4EC
:204C200000436B644FF6FF73D36200256E1CF7B22046394600F06EFCD0B1236848F6FF7125
:204C400003F1340242F8251018336D1017F0010F53F8252014BF6FF0FF016FF47F4101EA0C
:204C6000020214BF68214FF4D0410A4343F82520042E3546DAD1216801224B01490103F125
:204C8000844301F18441C3F880220A60F8BD000038B5274B274C1A68012042F010021A60E7
:204CA00000F04CFA0025002000F014FB65602368182023F40023236000F019FB102000F011
:204CC00016FB00F043F8A560102000F003FB102000F01BFB0028FAD000F039F8164800F0DE
:204CE00021FB182000F0F6FA182000F00EFB0028FAD0022000F0DEFA0021104800F0AEFA62
:204D00004BF67F3000F074FB00F039F80C4B188800F0D4F80B4800F0D5F80B4800F0DCFB46
:204D2000FFF7AEFE00F02DF8FFF72DFF38BD00BF0020024000100240B80200200020000830
:204D4000B6020020D54B0008F14B0008704708B50020014600F024FB01204FF4806100F0F0
:204D60001FFB0021022000F01BFB2D2000F028FBBDE8084003204FF4800100F011BB00F0F0
:204D8000E7B900F025BA00000000000000000000012007E0022005E0032003E0042001E08A
:204DA0000520FFE70D4A0121116072B60C4A00211160074902B4084902B486B005498E4689
:204DC000704700BFAFF30080AFF30080AFF3008000000061F9FFFFFF4569000814ED00E009
:204DE00010E000E0AFF30080AFF30080AFF30080FEE710B50446007900F0A0FA2079BDE848
:204E0000104000F0B3BA03689A6822F4602242F48012114399607047002370B51A461C460A
:204E2000072B4FEA430503DCEE1801FA06F634431D4401FA05F501330A2B42EA0502EFD1BA
:204E40000368DC601A6170BD38B5124D2A6813681C68A10706D5196821F00201196093689A
:204E600003B19847620708D52B681A681B69116821F00401116003B19847E30708D52B68D3
:204E80001A68DB68116821F00101116003B1984738BD00BFE4020020036801225B0103F125
:204EA000844303F58673191F1A6018680028FCD143F8042C0B68002BFCD17047014604201B
:204EC00000F06EBA044B10B504461868A047034B1868A04710BD00BFE4020020E0020020AC
:204EE00010B50446FFF785FF20464FF46021FFF78AFF2368012103F1404308335A015B016A
:204F000002F1844203F18443116520461960BDE81040FFF7C1BF38B550F8313004464D1E12
:204F200003B19847AA00012101FA02F223685A6038BD0000024B01211868FFF7ECBF00BF9A
:204F400028030020024B02211868FFF7E4BF00BF28030020024B03211868FFF7DCBF00BF32
:204F600028030020024B04211868FFF7D4BF00BF28030020024B05211868FFF7CCBF00BF2E
:204F800028030020024B06211868FFF7C4BF00BF28030020024B07211868FFF7BCBF00BF2A
:204FA0002803002038B50446274D9DF8100045F83420012805EBC4056B6004F5022512D016
:204FC0000AD3022814D1AB0003F184430122C3F80021C3F880210BE0AB0003F184430122B0
:204FE000C3F8002104E0AB0003F18443C3F880012046AD0000F096F805F1844501232B6050
:205000000F2C1FD8DFE804F0080A0C0F1215151515151A1A1A1A1A1A40220CE080220AE085
:205020004FF4807207E04FF4007204E04FF4806201E04FF40002054B1A6038BD034B4FF420
:2050400080725A6038BD00BF7C16002000E100E007B500930023FFF7A5FF03B05DF804FB6A
:2050600001F0030189000F238B408A4010B5046824EA03031343036010BD0000084A10B509
:2050800052F83030044653B102EBC00250689847012303FA04F4034B5C6100BF00BF10BD63
:2050A0007C16002000040140104B2DE9F047104DD3F8149004468A4605EBC00500269846B2
:2050C00054450CD80127A74017EA090F04D02B6813B1686898473E4301340835F0E7C8F8C7
:2050E000146000BF00BFBDE8F08700BF000401407C1600200020FFF7C1BF0120FFF7BEBFC2
:205100000220FFF7BBBF0320FFF7B8BF0420FFF7B5BF05200921FFF7C7BF0A200F21FFF7C4
:20512000C3BF000003460A4600F0FC01024808441946FFF795BF00BF08000140034B1A6850
:2051400022F0070210431860704700BF0020024008B5074801F011FE064801F00EFE0648EC
:2051600001F00BFEBDE80840044801F006BE00BF2C030020340300203C030020440300201C
:2051800070B501F00704A4000F25A5400368C80853F82060092A26EA050514BF1646082681
:2051A00006FA04F4082A44EA050443F8204006D1012000FA01F1DA6822EA010106E0092AA6
:2051C00005D1012000FA01F1DA681143D96070BD08B5032000F0B2F8BDE80840032000F076
:2051E000C5B80000014801F0D9BD00BF4C030020014801F0D3BD00BF84030020014801F0CA
:20520000B9BF00BF4C030020014801F0B3BF00BF84030020064B45F255521A604CF6CC42DD
:20522000586099601A604AF6AA221A60704700BF0030004000284FEA011105DA064B00F044
:205240000F00C9B21954704700F16040C9B200F5614080F80013704714ED00E021F0604129
:2052600038B521F07F01084B0843986000241D4660B20F210134FFF7DDFF2B2CF8D1F02317
:2052800085F8233038BD00BF00ED00E0044A054BD16801F4E0610B43D360BFF34F8FFEE7BA
:2052A00000ED00E00400FA05014B13F810007047A0F00008064B5A6822F0030202435A603F
:2052C00080005A6802F00C028242FAD1704700BF00100240030A0121C0B201FA00F003F1B5
:2052E000804303F504331A68104318607047030A0121C0B201FA00F003F1804303F5043346
:205300001A6822EA000018607047030A0222C0B202FA00F003F1804303F504331B68184080
:2053200070470000044B05C85968126821F4741102430A435A6070470010024010B5044661
:20534000FFF7B2FF074B53F82020074B03EB4404637803EBC2039B0003F1844301221A60C0
:2053600010BD00BFBC030020A0F0000810B50446FFF79AFF084B53F82020084B03EB440425
:20538000637803EBC2039B0003F1844301221A6000221A6010BD00BFC8030020A0F00008E1
:2053A00010B5054B054C5A6854F8200022EA00021143596010BD00BF00100240FCF000086C
:2053C00010B50446FFF770FF074B53F82020074B03EB4404637803EBC2039B0003F1844310
:2053E00000221A6010BD00BFD0030020A0F00008024B072258601A60704700BF10E000E00C
:2054000008B5044B1A6801321A60034B1B6803B1984708BDB0190020FC16002011F0010FFC
:2054200070B542EA03030CBF0825002503FA05F5006801F1FF3400F11800C4F3400450F828
:20544000241014BF6FF0FF066FF47F463140294340F8241070BDF8B507680546FB683E69D2
:205460001E4016F0400403D0046A0CB1A0474024F30604D5AB6913B1984744F01004300733
:2054800004D56B6913B1984744F00804710704D52B6913B1984744F00404B20704D5EB68D3
:2054A00013B1984744F00204F30704D5AB6813B1984744F00104E4433C61F8BD036801392F
:2054C00003F140432033DB0003EB8101890001F1844101230B60704710B504460448A047EF
:2054E0000448A0470448A0470448A04710BD00BF240400204C040020DC03002000040020AC
:2055000010B504460079FFF719FF2079BDE81040FFF72CBF03791E2B10D9212B0ED0202B63
:205520000ED9222B01D0252B04D102298CBF0020012070474B1E58425841704701207047A8
:20554000002070470368002203F140430C3301EBC3039B0003F1844302311A6040F8212003
:20556000704738B505460C4613460022FFF756FF28462146BDE83840FFF7A0BF38B5437934
:205580000446022B0D463ED0042A3CD8DFE802F00312202A3600FFF7D5FF2368013D03F11C
:2055A00040432033DB0003EB85039B0003F18443002221E00368002203F140430C3301EB1C
:2055C000C3039B0003F184431A606022082301E010220023FFF722FF20462946BDE8384049
:2055E000FFF76CBF03684FF2F1129A6103229A605B0103F1844301221A6038BD0122BDE850
:205600003840FFF7AEBF38BD10B5074B1C68E16822690A40120605D55B6A1BB198476FF040
:205620008003236110BD00BF2404002010B5074B1C68E16822690A40D20705D59B681BB154
:2056400098476FF00103236110BD00BF24040020F8B50B4F3D68EB682E691E4016F0400472
:2056600003D03C6A0CB1A0474024B30604D5FB6913B1984744F02004E4432C61F8BD00BF90
:2056800024040020F8B5124E3768FB683D691D4015F0100403D0B4690CB1A047102429079F
:2056A00004D5736913B1984744F008046A0704D5336913B1984744F00404AB0704D5F368A7
:2056C00013B1984744F00204E4433C61F8BD00BF240400200148FFF7BEBE00BF4C04002083
:2056E0000148FFF7B8BE00BFDC0300200148FFF7B2BE00BF00040020D36870B59B0638D597
:2057000013689E0635D513689D0702D41368DC0701D553682DE05568C4888388A4B20134D0
:205720009BB29C42EDB2046808D0C6880389B6B29BB29E420FD183889BB263B983889BB240
:20574000E35C86880389B6B29BB29E4235D0838801339BB28380C3889BB2E554C48803899E
:20576000A4B29BB29C4217BFC388002301339BB2C380D368180622D513681B061FD58888B0
:20578000CB8880B29BB2984212D088880B6880B2185C8C880B89A4B29BB29C4218BF8B883F
:2057A000C0B21ABF01339BB200238B80506070BDD36823F08003D36070BD0023CAE770BDE0
:2057C00002480349034AFFF797BF00BF0C170020001700200038014002480349034AFFF70F
:2057E0008BBF00BF18170020301700200044004002480349034AFFF77FBF00BF2417002035
:205800003C17002000480040294B072818BF18701A78052A49D8DFE802F003131E222A353B
:20582000244A4FF6FB71106C014011644FF43F41116406221A70204B1B685A7B1A73704726
:205840001C4A4FF6FB71106C014011644FF43F41116404222AE002225A70032226E05A78AC
:20586000013AD2B25A705B780BBB04221BE0114A116C89B241F01001116405221A700A223E
:205880005A7070475A78013AD2B25A705B7873B9084A4FF6EF73116C0B401364064B1B6821
:2058A0005A7B1A730622024B00E006221A707047B8190020005C00403806002070B504466E
:2058C000807B0D461646FFF739FD084A084B09491A60094B09480B600949656008600221CF
:2058E000A6601B681172984770BD00BFC8190020E8190020C019002054060020A406002072
:20590000E4190020F8B56C4D6C4B2A685C6C1268A4B202F48062224206D06FF480625A640E
:20592000674B1B685B6898472B681B6823409F0403D5624A6FF400515164DE0406D55F4B20
:205940006FF4C0525A640020FFF75EFF2A681168214008050FD5594B186C80B240F00806AC
:2059600040F00C001E641864107B5073032010736FF4C0525A648B0503D5504B6FF40072EE
:205980005A64CF0506D54D4B6FF480725A640720FFF73AFF2B681B6803F40043234200F0F4
:2059A0008980464B5A6C110440F184806FF4004112F00F06596458D1196848F68000084015
:2059C0000028EED088B23F4C00F4405525803E4D00F0300028801868D60620F4804020F05B
:2059E000700040F4004040F0800080F400501860186820F4E04020F0400040F4004040F02F
:205A0000800080F02000186001D5080607D5196848F60F720A401A6000F08EFE0BE0186853
:205A200040F68F7202401A600A0502D500F09CFC01E000F001FE214B22881968288821F4D9
:205A4000804121F0700141F4004141F08001514019601A6822F4E04222F0400242F400424B
:205A600042F0800242401A60F8BDB40004F1804404F5B84427683B040CD5226840F68F73EE
:205A800013402A682360926806F18043013B52F823309847380684D5226848F60F731340FE
:205AA00023602B6806F180465B68013E53F82630984776E7F8BD00BF38060020005C0040C6
:205AC000C0190020B4190020B6190020800000F1804000F5B840036823F4804323F0700308
:205AE00043F4004343F08003594001607047000018B9034B07221B681A820248704700BF9E
:205B0000E81900209C06002037B5114B1A681D46127802F07F02212A01D0022016E0A0F1B3
:205B20002003012B0B4B0C4C1B6888BF002423B102A901F8010D02209847002CEDD02B6877
:205B4000002528469C615D82A047284603B030BDE819002058190020F15A000813B5104BB9
:205B60001B681A7802F07F02212A14D1022806D0222806D19A780B4B02F003021A7000243F
:205B800000E00224084B1B6833B102A901F8010D0220984700E00224204602B010BD00BFE8
:205BA000E8190020481700205819002021B9022834BF00200220704702207047044B1B6819
:205BC0009B7A1BB1034B05221B681A73704700BFE819002038060020024B04221B681A73E7
:205BE000704700BF38060020054B1B689B78032B04D8044901EBC30100F088BB00207047DA
:205C0000E819002084060020014900F07FBB00BF4C060020014900F079BB00BFC8060020F9
:205C20000C4B00221B6801219A720B4B4FF4E05019640A4909681A645A6418644FF43F40B6
:205C40005A6408601864064B4FF4801018600A73704700BFE8190020005C004038060020F8
:205C600000E100E02049214B0A681B6870B59B1A13F0FF030E461E4905D10A78013AD2B2E8
:205C80000A70FAB170BD0120087000211948402B28BF40230C46184D11F0010FAD5C01F11F
:205CA0000101EDB21CBF44EA0525056002F101020CBF2C4604309942D2B2ECD3D90748BF3F
:205CC000046032600D4A0E49106D40000B50536823F4E04323F0400343F4004343F080038D
:205CE00083F03003536070BD601900204C180020501900208061004049170020005C00403B
:205D0000146000402DE9F843494B4A4C1B6800254FF0C0089D7283F809802565236848F63F
:205D20008F16334043F400732360236848F2800723F4E04323F040033B4383F010032360BB
:205D4000226D3D4B52004FF0400943F80290236D80225B0003F1804303F5C0431A60236841
:205D6000284623F4E24323F070031B041B0C2360324B1B6893F82C1000F0E6F828464FF4E4
:205D80004051FFF7A3FEA3680220334043F4C063A360226D2A4B520013444FF480721A6082
:205DA000A368294623F4E04323F040033B4383F02003A360FFF78AFEE36803203340E36020
:205DC000226D204B520013444FF488721A60494600F0BAF803204FF44051FFF777FE63680B
:205DE00001201E406660226D174B520043F802806368294623F4E04323F040033B4383F0A3
:205E000020036360FFF762FE104B01221B6828461A7300F075FC0E4BFF221D600D4B1D601D
:205E20000D4B1D600D4B1D600D4B1A70BDE8F883E8190020005C004008600040C019002058
:205E4000206000403860004010600040380600205C190020541900204C180020601900205D
:205E60005019002070B50C4611B31249124A0B6812680D469A1AD2B2C2F1FF02944201D9CB
:205E8000A2B11446002291B2A14202F1010205D2465C0A49CE540133DBB2F4E72B60084BAF
:205EA0001B781B0604D5FFF7DDFE01E0104670BD204670BD4C1800206019002049170020F0
:205EC00050190020034B1868034B1B68C01AC0B2704700BF5C190020541900200A4B10B59C
:205EE0001A680A4B1B689B1ADBB2994228BF194600238B4206D0064CA45C0132C454D2B2FE
:205F00000133F6E7184610BD541900205C1900205018002010B5FFF7E1FF094A04461368E8
:205F20000344DBB21360074A1268D31ADBB2402B04D803204FF44051FFF7C8FD204610BDA9
:205F4000541900205C190020104B3E291B6D03EBC0000F4B4FEA400003440ED94A09C80605
:205F600008BF02F1FF32C1F3090108BF92B241F4004141EA82221A6070474A08C80748BFCF
:205F8000013241EA82211960704700BF005C00400C60004010B5064C18B9236801221A8297
:205FA00010BD044B1B681B68984720680A3010BDE8190020E419002010B5064C18B92368A0
:205FC00001221A8210BD044B1B689B68984720680C3010BDE8190020E419002010B5204B82
:205FE00018B91B6802221A8210BD1E4A1968002010800C78134614F07F040DD14A7A91068A
:2060000044BF0221197012F0400F1A7814BF22F0010242F0010214E0012C1FD0022C1ED1A4
:20602000097901F00F02920002F1804202F5B84211F0800F126806D002F03002102A07D18E
:2060400001221A7004E002F44052B2F5805FF6E7054B1B681B699847024810BD104610BD54
:20606000E8190020BA190020E4190020234A2DE9F84314689046238A267A214FA3B9042E94
:2060800012D120490A78012A0AD11F4A10681F4A80B202445200136030223A800B7027E017
:2060A00010233B80072623E0A58AAB428CBF022604269D4228BF1D462846A36998478146C0
:2060C000002000F0CFFB2A460146484600F063FB2946002000F0E2FB238A4FF440525B1BFF
:2060E0002382638A1D4430233B80094B65821A80D8F800301E72BDE8F88300BFE81900203A
:20610000B619002064190020505C004002300020B419002010B50A4B0A491B6849789A7805
:2061200091420AD3D97841B99C8834B99A72064B1B685B689847204610BD022010BD00BFF0
:20614000E8190020D0060020E419002038B50E4A0E4C126823689269187999789047236868
:206160009A7A7AB170B95A7962B9DD7855B9084B1B68DB689847236828461A79DA729A7884
:206180001A7338BD022038BDC0190020E8190020E419002038B52F4B1B68187810F07F0036
:2061A00004D15A7A22F020025A7238BD02284ED15A88002A4CD15A79002A49D11A79264DB2
:2061C00022F08000840004F1804101F5B84109682D7812F0800F14BF01F0300101F44051E2
:2061E000A84234D2002932D09B7A83B304F1804404F5B844120623680CD503F03003102BA6
:206200001FD1C4B2204600F01CFB2046302100F0F3FA16E003F44053B3F5805F11D128B94D
:206220000E4B93F82C1000F047FB01E000F0F9FA236823F4804323F070039BB283F4405306
:206240002360074B1B685B699847002038BD022038BD00BFE8190020D006002054060020C7
:20626000E419002038B51D4B1D4D19682D780A7922F08004A30003F1804000F5B840006857
:2062800012F0800F14BF00F0300000F44050AC4222D24C8804BBF8B1897AE9B103F1804384
:2062A00003F5B84312F0800F1A6807D022F4E04222F0400292B282F0100206E022F48042EF
:2062C00022F0700292B282F480521A60054B1B689B699847002038BD022038BDE819002031
:2062E000D0060020E419002008B5064B1B685A7A42F020025A72044B1B68DB6998470020F1
:2063000008BD00BFE8190020E4190020054B1A68538A18B98988CB1A13827047086818442D
:20632000704700BFE819002008B50B4B002093F82C1000F0C1FA094B1B68187A082806D1B1
:20634000074B4FF480521A80064B10221A80B0F109035842584108BD54060020E8190020DF
:20636000B4190020B619002073B5934E934B3268934D92B213445B001A682B68197A092910
:206380000FD092B2520002F1804202F5C04211781970517859709188598011899980928976
:2063A000DA8001221A72DA885C78002A61D11A7812F07F023AD1092C02D1FFF7ABFE44E057
:2063C000052C0FD193F90220002A01DA08234DE0DA78002AFAD19A88002AF7D19B7A002B06
:2063E00037D0F3E7032C13D19A78012A07D0754B20461B685B699847032828D135E09A88EE
:20640000002AF4D15B7A9806F1D5FFF76DFF1CE0012CECD19A78012AE9D19A88002AE6D112
:206420005B7A9906E3D5FFF7B5FE0EE0012A04D10B2CDCD1FFF78AFE07E0022AD7D1012C4F
:20644000F1D0032CD3D1FFF70DFF10B1CFE70028BCD132685C4B92B213445B0000221A60A7
:206460005A4B30221A80062300E009232A681372CEE0062C13D11A78520677D1DA78514B5B
:20648000012A02D11B68DB6967E0022A02D11B681B6A62E0032A69D11B685B6A5DE0002C8F
:2064A0003CD15988002961D15A6822F0FF02B2F5003F5BD11A7812F07F0204D19B88002B74
:2064C00000F0AA8052E0012A0CD13E4A1879126892699047002849D12B689B7A002B40F0BE
:2064E0009B8043E0022A41D11B79394803F00F018A0002F1804202F5B8421268007813F0E3
:20650000800F14BF02F0300202F4405281422DD213F0700F2AD1002A7ED127E0082C03D1A6
:206520001B785B067AD021E00A2C1FD11A7802F07F02012A1AD19A7AC2B15988B1B95A6847
:2065400022F0FF02B2F5803F10D11E4A1879126892699047002863D008E03BB12A680024B7
:20656000548293612046984720460AE0154B1A682B68126958789047032802D1104B1B6849
:2065800005E02B684FF6FF711A8A8A4201D1092203E0022800D012B908221A7238E093F95F
:2065A000001000292EDAD988019101988242054810D9019A1A821EE0505C0040043000209F
:2065C000E8190020C019002002300020B6190020D00600208A420ED2016891F82C108A42C4
:2065E00001D2002105E092FBF1F401FB142212B901210C4A1170026892F82C209A82FFF708
:2066000035FD05E003221A72074B4FF440521A80FFF78AFE02B070BD044B9FE7044B9DE7EC
:20662000044B9BE764190020B4190020DD5F0008955F0008B95F0008F8B52B4D2C68237A49
:20664000032B01D0052B41D1A369228AABB1A2B1A68A964228BF164630469847238A0746F8
:206660009B1B2382638A00203344638200F008F932460146384600F0A6F8238A53B11B4B83
:2066800000204FF4405201461A8000F007F9184B30221A80238AA28A9A4202D82B6803229E
:2066A00002E01BB12B6805221A720CE02A6806211172104A1168104A89B20A445200136043
:2066C0000B4B30221A802B681B7A06E0072B03D10A4B1B68DB68984708232A681372BDE883
:2066E000F840FFF721BE00BFE8190020B4190020B6190020505C004002300020C01900209A
:2067000030B50B4B1C780023A3420CD203F1805202F5B85291000D6848F68F722A401A43F1
:206720000A600133F0E7034B40F08000186030BDD00600204C5C004010B5134C23681A7A60
:20674000022A01D0042A04D1FFF790FC23681B7A13E0062A10D15A78052A09D11A785206CE
:2067600006D19878FFF7CCFF084B1B681B6A9847074B1B689B689847082322681372BDE8A1
:206780001040FFF7D1BD00BFE8190020E4190020C0190020704730B501F10051013201F527
:2067A0004051521049000023934200F1020009D010F8015C10F8024C44EA052421F823404B
:2067C0000133F1E730BD01F1005101F5405149005308F0B51C460E46054634B156F8047BFA
:2067E000013C25F8027BA4B2F7E7D20744BF11F8232000F81320F0BD800000F1804000F568
:20680000B8400368CA0623F4E04323F040039BB248BF83F010038A0648BF83F0200303604B
:206820007047800000F1804000F5B84003685B0406D5026848F68F73134043F48043036084
:206840007047800000F1804000F5B84003685B0606D5026848F68F73134043F040030360E6
:2068600070470000054B1B689BB203EBC00000F1005000F54050400000887047505C004062
:20688000044B1B689BB203EBC000034B03445B0018887047505C004004300020044B1B68D2
:2068A0009BB203EBC000034B03445B0019607047505C0040023000200D4B3E291B689BB2F0
:2068C00003EBC0000B4B03444FEA430209D94B09C80604BF03F1FF339BB29B0243F400439E
:2068E00004E04B08C90748BF01339B0213607047505C00400630002008B5114B01211C688E
:2069000003222046FEF73CFC002301211A469342206834BF02254FF40035B2F5007F05619F
:2069200003F1010303D0002A08BF012101E04FF0FF31B3F5007F04BF52180023E7E700BF25
:206940009CF0000808B5034B0BB1AFF3008062B6FFF7D2FF00000000C288838892B29BB2F5
:20696000C188D31A828889B292B2914203D2028992B20132134498B2704710B503690446DB
:206980005868FFF7E9FF90B123695B6899881A6889B2505C99881A8989B292B2914217BF53
:2069A0009A880022013292B2C0B29A8010BD4FF0FF3010BD08B503695868FFF7CDFF08BD18
:2069C00003695B689988DA8889B292B2914205D09A881B6892B2985CC0B270474FF0FF306A
:2069E000704703699A689088D18880B289B28842F9D11A6813685B06FCD5704713B50469E5
:206A00008DF8071020460DF10701012200F0ECFB0028F7D0012002B010BD000030B50025DB
:206A200045604FF47A758560024D016105600275437530BD90F10008F8B505460C46164639
:206A40008F18BC4206D02B6828461B6814F8011B9847F6E73046F8BD38B505460C46084650
:206A600041B103F0FBFC2B6802469B6828462146984738BD38BD08B503681B68984708BD6F
:206A800008B503685B68984708BD38B50D210546FFF7F1FF0A2104462846FFF7ECFF2044F3
:206AA00038BD38B50446FFF7EBFF05462046FFF7ECFF284438BDFEE7302830B50C4615D876
:206AC000A1B1012A04D0022A0CBF0223002300E01346074A000115181258287B117922466F
:206AE0000B39C9B2BDE83040FEF7B2BA30BD00BF88ED0008FEF7CCB808B5FCF7DDF8FCF747
:206B000083F8FCE703F002B9034B1A6822F0E06242F080621A60704704000140302870B53E
:206B20003BD8082939D8DFE801F0051A080B0E11081417000024032213E00024042210E04E
:206B4000002422460DE0002409220AE00024082207E001240B2204E001240F2201E00024BD
:206B600007220E4B00011E18317B1858FEF708FB706890B1717B24B10122BDE87040FEF701
:206B8000FDBC0368013903F140432033DB0003EB81039B0003F184431C6070BD88ED000804
:206BA000FFF790B907B501210DF10700FFF796F901280CBF9DF807004FF0FF3003B05DF828
:206BC00004FB07B501210DF10700FFF7A3F910B19DF8070001E04FF0FF3003B05DF804FB8E
:206BE000002242604FF47A728260014A02607047D0F1000870B516460D4631B10E4B1B6801
:206C00001B7B052B03D0002070BD084670BD0B4B1B782BB928463146BDE87040FFF722B93B
:206C20000024B44205D22819311BFFF71BF90444F7E7204670BD00BF380600207819002045
:206C400007B502AB03F8011D19460122FFF7D2FF03B05DF804FB38B5054608460C4603F097
:206C6000FDFB214602462846BDE83840FFF7C2BF70B50E4615460024AC4205D23019291B21
:206C8000FFF748F90444F7E7204670BD13B50446FFF718F930B120460DF107010122FFF785
:206CA000E7FFF5E702B010BD0148FFF799BF00BF6819002030280ED8084B00011A18127B4B
:206CC000012101FA02F21B581B689B681A420CBF0020012070470020704700BF88ED000878
:206CE000302810D8084B00011A18127B1B58012000FA02F2D1F1010138BF0021090102FADD
:206D000001F11B681961704788ED00080A4B1A680A4B9B6800BF00BF074909688A42F5D150
:206D2000C3F53B4330218033B3FBF1F34FF47A7000FB0230704700BFB019002010E000E0FE
:206D400038B50446FFF7E2FF054644B100F014F8FFF7DCFF401BB0F57A7F01D2F5E738BD7B
:206D6000013C05F57A75F3D138BD20B1C000431E18460138FDD87047704710B504460079E0
:206D8000FEF7DCFA2079BDE81040FEF7EFBA03685A6822EA0101596070470000F0B5036841
:206DA00085B01A68002501925A69044602928B4A03951268C260426A960600F1C680426891
:206DC000002A00F0D58151889588C8077ED50299C90704D51288520042F0010280E00299CB
:206DE0008F072AD5012D019A0EDC22F4806201921A609A690392019A42F4007201921A605E
:206E0000002D00F0928113E0022D0BD142F4006201921A609A690392019A22F480620192E1
:206E20001A6005E042F4806201921A609A6903925A6842F480625A609AE1029802994606A6
:206E4000C1F380011AD5E1B9032D01DC012D09D1D1881B6990684E1CD68043549388013BDC
:206E6000938007E0AB1E012B04D820464FF48061FFF78DFF012D00F37B8156E1002900F0CE
:206E80007781032D03D1019921F4806104E0022D04D1019941F4007101911960D1881B6956
:206EA00090684E1CD68043549388022D03F1FF33938040F05D81D3889168581CD080206852
:206EC0000069C8549388013B93802EE10298C00708D51DB1596841F480615960128852002C
:206EE0001A6145E10298870744BF986903900298029EC0F3C010760704D4D5F1010638BF5C
:206F0000002600E00126F6B218B9002E40F02C812EE175B1D18896684F1CD780715C013D67
:206F200019619580002800F02381002D40F02081A3E0002E00F01C814A0700F1F680019A77
:206F400042F4007201921A60EFE0029A970747D59A6985600392039AD60619D4039A12F0D5
:206F6000800F9A680CD0100408D59A68DD6840F2013305F0FE0513401D4309E0DD6805E048
:206F800011049D6802D5C5F3090501E0C5F34605039B606B13F0040314D038B1C3882BB1EF
:206FA000E36A03B19847636B0022DA80206B60B1A36A002205808280154603B19847236BD9
:206FC000DD8002E008B10580C38023685A6842F480625A60032384F82330C9E0B01900204B
:206FE000029AD20615D59B69406B039338B1C3882BB1E36A03B19847636B0022DA80236829
:207000001968019A42F4806201920A431A600123E1E70298029DC0F3800015F0800518BF29
:207020005D689A6918BFC5F380250392039A12F0040228D0226B1AB19688D188711A00E0E8
:20704000114605F0FF0615B9002800F0918000208DF802003AB131B1D0889568471CD78065
:207060002A5C8DF802209DF80220D2B21A61002977D0002E7CD001297AD120464FF4806144
:20708000FFF785FE74E08DF80320029D626B15F040051CBF5D68C5F38025EDB21AB1968840
:2070A000D188711A00E011468DB190B90029E4DD1B699068DBB28DF80330D388032903F108
:2070C0000105D5809DF80320C25451DCD5E700284ED0032903D1019820F4806004E00229BC
:2070E00004D1019840F40070019018601B690029DBB28DF8033006DDD38890685E1CD6807D
:207100009DF80320C254002D32D0236801291B69DBB28DF80330B0DD636BDA889968501CCA
:20712000D8809DF803308B54A7E7A38B013B9BB2A3839BB120464FF48061FFF728FE636828
:2071400003F10C02DB89626013F0010F236814BF40F2015240F201121A6009E06360022381
:2071600039E7002E89D103E0002D7FF4D3AEE3E605B0F0BD13B5036804465A6900929B6962
:207180000193184B1B68C360009B03F470638360436A99061CD54FF48061FFF7F8FD236833
:2071A0001A6842F480621A60009A520510D5606B6FF480625A6138B1C3882BB1E36A03B109
:2071C0009847636B0022DA80012384F8233007E0236800225A619A61FF2384F82330019BBC
:2071E00002B010BDB0190020F0B583680546046800209F88DE88BFB2B6B2B74204D0E36842
:2072000023F08003E36027E026683606F7D59042F5D00E5C01306660EBE7DF889E88BFB230
:20722000B6B20137B74211F800C01DD0DF881E89BFB2B6B2B74213D0DF881E68BFB206F8E0
:2072400007C0DF881E89BFB2B6B2B74218D0DE880136B6B2DE8001309042AB68DDD303E093
:207260009E88B6B2002EE7D19A88DB8892B29BB29A4200D1F0BDE36843F08003E360F0BD39
:207280000026E7E72DE9F04120F00047FC0D7F3C162C064618DC002C80461DDB194F27415C
:2072A000074223D0184901F01FFF002102F0E0F9E0B1002E04DD4FF4000343FA04F4A04437
:2072C00028EA0700BDE8F081B7F1FF4F0ED3014601F00AFFBDE8F0810B4901F005FF0021E7
:2072E00002F0C6F910B1002E07DB17B93046BDE8F0814FF07E50BDE8F0814FF00040BDE869
:20730000F08100BFFFFF7F00CAF249712DE9F04F8BB01D4680468946144600F019FADFF88E
:20732000ACA206469AF900300F46013304D02046294601F087F820B9304639460BB0BDE820
:20734000F08F4046494601F07DF8834600282CD1204629460022002301F0F6FD0028EBD064
:20736000944B9AF90010944E00220120CDE906234B1CCDF820B0CDE90289CDE904458DE8D6
:2073800041000DD002290BD0684601F083F8002800F09580089B1BB102F07AFC089B0360A5
:2073A000DDE906010BB0BDE8F08F002200234046494601F0C9FDF8B120462946002200234D
:2073C00001F0C2FD834600284DD07B489AF90030CDE904450121002200240025CDE902899C
:2073E000CDE90645019000910892002BCCD0714B0022CDE90623D3E73046394601F01CF898
:207400008346002860D0002200233046394601F09BFD002890D04046494601F00DF80028CD
:207420008AD02046294601F007F8002884D09AF900306148CDE904450421002200240025B6
:20744000022BCDE90289CDE9064501900091089200F08280684601F01DF800287CD0089B44
:20746000002B9DD098E72046294600F0E5FF00283FF462AF204629460022002301F06EFD6A
:2074800000283FF459AF4C4A9AF8001001230192CDF820B0CDE90289CDE904450093002210
:2074A000002934D10023CDE90623684600F0F2FF0028D4D102F0ECFB21230360CFE702F018
:2074C000E7FB2123036065E74046494600F0B4FF002898D02046294600F0AEFF002892D093
:2074E0003046394600F0AEFFB8B9334A9AF8006001230890CDE90289CDE9044501920093F8
:20750000002E2ED100240025CDE90645CDE72B4B0229CDE90623CDD0C7E727499AF9003042
:20752000032201910092CDF820B0CDE90289CDE90445404649460022F3B9214F4FF06046F5
:207540000023CDE9066701F009FD002840D19AF90030022B7FF47EAF02F09AFB22230360F6
:207560007DE70020002102460B4601F0AFFB022ECDE906019ED098E7124F00260023CDE9F8
:20758000066701F0EBFC0028E1D000220E4B2046294601F071FA04460D4600F083FF2246AA
:2075A0002B4601F0D1FC0028D1D1044B0022CDE90623CCE70000F03FF0F100080000F0FFC8
:2075C000FFFFEF470000F07F0000E03FD206002000220A4B2046294601F04EFA04460D46CF
:2075E00000F060FF22462B4601F0AEFC0028AED1034B4FF06042CDE90623A8E70000E03F65
:20760000FFFFEFC72DE9F0478AB004460D4600F0FBFDDFF898A006469AF900300F46013303
:207620000FD02046294600F00DFF50B14FF000084FF0000942464B462046294601F08EFCA1
:2076400020B9304639460AB0BDE8F08716499AF8006001220023CDE90445CDE90245019161
:207660000092089366B9CDE90689684600F012FF80B1089B9BB9DDE906010AB0BDE8F087FF
:207680004046494642464B4601F020FB022ECDE90601EAD102F0FCFA21230360E9E702F0B7
:2076A000F7FA089B0360E6E7F4F10008D206002070B58AB0054600F067FE224C064694F9DB
:2076C0000030013308D0284600F0FAFF20B12846002101F0AFFF10B930460AB070BD1A498F
:2076E00001220023284601910092089301F070F92478CDE90401CDE902017CB90022002333
:20770000CDE90623684600F0C5FE88B1089BA3B9DDE9060101F092FC0AB070BD002000217D
:2077200002460B4601F0D2FA022CCDE90601E9D102F0AEFA21230360E8E702F0A9FA089B06
:207740000360E5E7D2060020FCF10008000000002DE9F04F23F0004B91B089460F465BEAB0
:207760000201CDE9022314461D46804606462ED0634B29F0004A9A4522DC1FD0604B9B45F6
:207780001EDC77D0002F78DB0022049264BB5C4B9B4500F091805B4B9B4565D0B5F1804F97
:2077A00000F0F983584B9D421ED1002F1CDB4046494611B0BDE8F04F00F026BD0028DDD064
:2077C0000AF1404A0AF5801A5AEA060A04D14D49002011B0BDE8F08F4C4811B0BDE8F04F8E
:2077E00000F05ABE002104914046494600F020FEE6B9BAF1000F04D0424B27F040429A4279
:2078000014D1002DC0F20884002FE2DA0AF1404ADDF810B00AF5801A5BEA0A0B5ED0049A54
:20782000012AD6D101F100431946D2E7FB0F03F1FF3C049B53EA0C034ED0354B9B456DDD3D
:2078400003F104739B4540F3EF83324B9A4540F39C83002D40F39C8327A1D1E90001024640
:207860000B4601F009F9B4E7002DC0F24B8440464946AEE7002C85D0A2E7274B9B4536DC63
:20788000A3F154739B4540F38D834FEA2B5340F21342934240F33E84C3F58663033324FA6D
:2078A00003F202FA03F3A3427FF46EAF02F00102C2F10202049269E70AF1404303F58013D1
:2078C000334384D0134B9A4540F39E83002DC0F25F83DDE902017CE74046494602460B46B2
:2078E00000F016FF02460B4601F0F0F971E7022304934BE7AFF300809C7500883CE4377E3A
:207900000000F07F0000F03F0000E03F80F200080000E041FFFFEF3FFFFF3F43BAF5801F15
:2079200080F2EE83AA4B0022CDF804C001F0A4F8DDF804C08A466FF034034FEA2A55A54A91
:20794000CAF3130AA5F2FF354AF07F541D4492450F9544F4401440F3D0839F4B9A4540F38B
:20796000EF83DDF83CA000250AF1010ACDF83CA0A4F580142B46994ADB000E931344D3E908
:207980000067214632463B46CDF804C0CDE90A0100F0BEFE3246804689463B46DDE90A01CB
:2079A00000F0B8FE02460B4600208D4901F08EF9CDE90C01DDE90C234046494601F05CF808
:2079C000CDE90601DDE906AB611041F0005101F500214B190021CDE908AB0891DDE908AB69
:2079E00000225046594614461D4601F045F802460B464046494600F08BFE32468046894611
:207A00003B462046294600F083FE02460B46DDE90A0100F07DFE02460B465046594601F00B
:207A20002BF802460B464046494600F071FEDDE90C2301F021F806460F46DDE90601024661
:207A40000B4601F019F802460B4604460D4601F013F84FA3D3E90023804689462046294666
:207A600001F00AF84CA3D3E9002300F053FE22462B4601F001F84AA3D3E9002300F04AFE3D
:207A800022462B4600F0F8FF47A3D3E9002300F041FE22462B4600F0EFFF45A3D3E90023B0
:207AA00000F038FE22462B4600F0E6FF42A3D3E9002300F02FFE02460B464046494600F073
:207AC000DBFFDDE9062304460D465046594600F021FE32463B4600F0CFFF22462B4600F07C
:207AE00019FE5246804689465B465046594600F0C3FF00223B4BCDE90A0100F00BFE4246D0
:207B00004B4600F007FE08980D46044622462B465046594600F0B0FF224682468B462B4683
:207B20003046394600F0A8FF002206460F46204629462C4B00F0ECFDDDE90A2300F0E8FD09
:207B400002460B464046494600F0E2FDDDE9062300F092FF02460B463046394600F0DAFDE3
:207B60008046894642464B465046594600F0D2FD13A3D3E9002308980D46044600F07CFF26
:207B800011A3D3E90023CDE90601204629462BE0EF4E454A287ECA3F65DBC9934A86CD3FC2
:207BA00001411DA96074D13F4D268F515555D53FFFAB6FDBB66DDB3F033333333333E33F73
:207BC000000000E009C7EE3FF5015B14E02F3EBE000040438E98030079B60B0028F2000850
:207BE0000000F03F0000084000F046FF524606460F465B462046294600F08AFD02460B461A
:207C00004046494600F084FD9FA3D3E9002300F033FF02460B463046394600F07BFDDDF8D0
:207C200038A0AB4B5344D3E9002300F073FD82460F988B4600F0BAFE0E9AA64B044613447E
:207C4000D3E900670D4652465B46DDE9060100F061FD32463B4600F05DFD22462B4600F04E
:207C600059FD089822462B468046894600F050FD32463B4600F04CFDDDE9062300F048FD0D
:207C800002460B465046594600F042FDDDF804C082468B46049900224B1E53EA0C030CBF76
:207CA0008D4B8E4BDDE90201CDE90823DDE90223CDE9042300230493DDE904452B462246FF
:207CC00000F026FD42464B4600F0D6FE524606460F465B46DDE9020100F0CEFE02460B46BC
:207CE0003046394600F016FD42464B4682468B462046294600F0C0FE06460F463B4650469F
:207D00005946324600F006FD754B8046994289460D4640F34B8101F13F4303F5E003034342
:207D200040F012825AA3D3E900235046594600F0F1FC3246CDE902013B464046494600F0DA
:207D4000E7FC02460B46DDE9020101F025F9002840F00882CC464FEA2C53A3F2FE334FF41A
:207D6000801018412844C0F30A515E4AA1F2FF3342FA03FEC1F58261C0F3130420EA0E0378
:207D8000033144F4801040FA01F1002D0491BCBF4942049100223046394600F0B9FC064656
:207DA0000F463246504659463B4600F0B3FC049A12050292002438A3D3E9002320460D46C1
:207DC00000F05AFE3246804689463B462046294600F09EFC02460B465046594600F098FC1C
:207DE0002FA3D3E9002300F047FE2FA3D3E9002306460F462046294600F03EFE02460B46B1
:207E00003046394600F086FC06460F4632463B464046494600F07EFC42464B4604460D462C
:207E200000F076FC02460B463046394600F070FC224682468B4620462B46294600F01CFEA5
:207E40001BA3D3E9002306460F4600F015FE1AA3D3E9002300F05CFC32463B4600F00CFE0A
:207E600017A3D3E9002300F055FC32463B4600F003FE15A3D3E9002300F04AFC32463B4678
:207E800032E000BFAFF30080FD033ADC09C7EE3FFE822B654715973C00000000432EE63F07
:207EA000EF39FAFE422EE63F396CA80C615C20BED0A4BE726937663EF16BD2C541BDBB3E47
:207EC0002CDE25AF6A56113F93BDBE166CC1663F18F2000808F200080000F0BF0000F03FCC
:207EE000FFFF8F40FFFF0F0000F0C6FDACA3D3E9002300F00FFC32463B4600F0BDFD0246E1
:207F00000B462046294600F003FC06460F4632463B462046294600F0AFFD0022804689468A
:207F2000304639464FF0804300F0F2FB02460B464046494600F0CAFE524606460F46204668
:207F40005B46294600F098FD52465B4600F0E2FB02460B463046394600F0DAFB22462B465A
:207F600000F0D6FB02460B4600209B4900F0D0FB029C02460C44B4F5801FC0F23781234697
:207F8000DDE9080100F078FD23E4002DFFF664AC002000211DE44046494642464B4600F014
:207FA0006BFD16E400210491FFF7F0BB8B4B21F0004C9C4540F3BD8001F17D5303F53C137B
:207FC00003F55053034340F0DB8032463B46CDF804C000F09DFB02460B465046594600F06D
:207FE000C7FFDDF804C000283FF4B5AEDDE908016DA3D3E9002300F03FFD6BA3D3E900238D
:2080000000F03AFDFFF7E5BB002DC1DA039B029803F10041FFF7DDBB02460B4600206E4970
:2080200000F054FEFFF7F0BB6D4B9A45ADDD6A4B9A453FF70EAC0022674BCDF804C000F06B
:2080400067FB5BA3D3E9002304460D4600F014FD59A3D3E9002306460F462046294600F002
:208060000BFD224682468B462B462046294600F003FD00228046894620462946594B00F0A1
:20808000FBFC02460B464EA1D1E9000100F040FB22462B4600F0F0FC02460B460020524972
:2080A00000F036FB02460B464046494600F0E4FC45A3D3E9002300F0DFFC02460B46504660
:2080C000594600F025FB04460D4622462B463046394600F01FFB002032463B4680468946CE
:2080E00000F016FB02460B462046294600F010FBDDF804C082468B46CCE500252B463AE47F
:2081000000231AE442464B460020334900F0DEFDFFF75FBB002C7FF465ABC3F5826303332C
:208120004BFA03F202FA03F35B4565D00494FFF732BB2D4B9C453FF70EAE049B029339E625
:208140004FF48025012316E421A3D3E90023DDE9080100F091FC1EA3D3E9002300F08CFC12
:20816000FFF737BBDDE9080119A3D3E9002300F083FC17A3D3E9002300F07EFCFFF729BB61
:2081800009A3D3E90023DDE9080100F075FC06A3D3E9002300F070FCFFF71BBBAFF3008052
:2081A0003E5555555555C53F59F3F8C21F6EA501000000604715F73F44DF5DF80BAE543EE6
:2081C000555555555555D53FFE822B654715F73F9C7500883CE4377E0000F03FFFCB9040B4
:2081E000FEFFEF3F0000D03F0000E03F049A00F0E7F902460B46C3E602F00102C2F10202CA
:208200000492FFF7C8BA00BF21F0004C2DE9F8434FEA1C5CDFF86C814FEA0C5CC445064678
:208220000F460B46024600F08F8000296FDD0F1578D0A7F2FF37C3F31303F90743F480130B
:2082400060D4D10F4FF0000C01EB43037F105200654616204FF400116C189C424FEAD27694
:208260004FEA420202DC1B1B65188C44013806EB43034FEA5101EFD1804620264FF00041D9
:2082800009E023D0D40F013E4FEA510104EB43034FEA42021ED0AB4201EB0804F1DD04F00E
:2082A0000049B9F1004F04EB010809D0A9465B1B944288BF03F1FF33121B08444D46E1E72F
:2082C000B8F1000FF2DB05F10109F0E79442E6D91D46D7E71A4304D0431C41D000F00103F7
:2082E000184446084FEA6C031CF0010F03F17F5303F5001318BF46F0004603EB0751304630
:20830000BDE8F883D10F01EB4303520099E721F00043034322D051BB0F46D30A153F5205E4
:20832000002BFAD013F480111DD15B00D80201F10101FAD5C1F10100C1F1200422FA04F42D
:2083400007448A40234374E702460B4600F094FB32463B4600F0DEF9BDE8F883BDE8F8832F
:208360000CF1010CBEE7202401200021E6E702460B4600F0CDF902460B4600F0A7FCBDE8DB
:20838000F88300BF0000F07F20F00042B2F1FF4FF8B5044603462DD25AB300283DDBB2F5BE
:2083A000000F4FEAE0502CD37F38C3F31603C20743F4000348BF5B00002740105B003E4605
:2083C00019244FF08072B5189D4202DC5B1BAE181744013C4FEA43034FEA5202F3D113B13D
:2083E00007F001031F447F1007F17C5707EBC050F8BDF8BD014600F07FFF214600F074FEDB
:20840000F8BD14F400020FD15B00190202F10102FAD5C2F101021044C6E7014600F062FE34
:20842000014601F01DF8F8BD01221044BCE700BF21F00041704700BF41F0004101F58010A1
:20844000C00F704731F0004310B408D00F4AA3F5801494420AD804205DF8044B70470028B2
:208460000CBF022003205DF8044B7047B3F5801F01D20320F7E7064A934201D00020F2E787
:20848000D0F1010038BF0020EDE700BFFFFFDF7F0000F07F0020704700200149704700BFEE
:2084A0000000F87F2DE9F043C1F30A5CACF2FF37132F83B002460B460D46894680464FEADF
:2084C000D17630DC002F4CDB3A49394101EA030010432DD0490801EA030858EA02080CD049
:2084E0004FF480233B41132F25EA010141EA030914BF4FF000084FF000482F494B4601EBFA
:20850000C606D6E9004542462046294600F002F9CDE90001DDE9000122462B4600F0F8F80C
:2085200003B0BDE8F083332F07DDB7F5806F3ED01046194603B0BDE8F083ACF2134C4FF0C5
:20854000FF3121FA0CF10142F2D049080142D4D04FF0804848FA0CFC20EA010141EA0C08FA
:20856000CBE721F000410143E2D0C3F3130101434C420C431048590C240B490404F40024C1
:2085800044EA010300EBC601D1E900452046294600F0C0F8CDE90001DDE900012B46224624
:2085A00000F0B6F821F0004343EAC671C2E700F0B1F8BFE7FFFF0F0038F20008000000003E
:2085C000C1F30A532DE9F041904606460F460A461BBB21F00043034334D0354B002200F076
:2085E0004BFA344B064698450F463BDBC1F30A53363B0A46434440F2FE718B4216DD28A1A0
:20860000D1E9000132463B4600F074F824A3D3E9002300F031FABDE8F08140F2FF74A342E9
:2086200027D0434440F2FE718B42E8DC002B0BDD22F0FF4222F4E00242EA035730463946B1
:20864000BDE8F081BDE8F08113F1350F17DA4CF250339845D3DC14A1D1E9000132463B46FF
:2086600000F048F810A3D3E9002300F005FABDE8F08102460B4600F04DF8BDE8F08122F03D
:20868000FF4222F4E002363342EA0357304639460022094B00F0F0F9BDE8F081AFF3008036
:2086A0009C7500883CE4377E59F3F8C21F6EA50100005043B03CFFFF0000903CAFF30080A8
:2086C00030F0004001D102207047A0F50003B3F1FE4F01D204207047054B421E9A4201D8F3
:2086E00003207047B0F1FF4358425841704700BFFEFF7F0030B403F0004321F0004243EAFE
:20870000020130BC704700BF81F0004102E000BF83F0004330B54FEA41044FEA430594EA89
:20872000050F08BF90EA020F1FBF54EA000C55EA020C7FEA645C7FEA655C00F0E2804FEA80
:208740005454D4EB5555B8BF6D420CDD2C4480EA020281EA030382EA000083EA010180EA65
:20876000020281EA0303362D88BF30BD11F0004F4FEA01314FF4801C4CEA113102D0404287
:2087800061EB410113F0004F4FEA03334CEA133302D0524263EB430394EA050F00F0A7806B
:2087A000A4F10104D5F1200E0DDB02FA0EFC22FA05F2801841F1000103FA0EF2801843FA8D
:2087C00005F359410EE0A5F120050EF1200E012A03FA0EFC28BF4CF0020C43FA05F3C018C1
:2087E00051EBE37101F0004507D54FF0000EDCF1000C7EEB00006EEB0101B1F5801F1BD3BA
:20880000B1F5001F0CD349085FEA30004FEA3C0C04F101044FEA445212F5800F80F09A8080
:20882000BCF1004F08BF5FEA500C50F1000041EB045141EA050130BD5FEA4C0C404141EBA2
:20884000010111F4801FA4F10104E9D191F0000F04BF01460020B1FA81F308BF2033A3F197
:208860000B03B3F120020CDA0C3208DD02F1140CC2F10C0201FA0CF021FA02F10CE002F163
:208880001402D8BFC2F1200C01FA02F120FA0CFCDCBF41EA0C019040E41AA2BF01EB0451F9
:2088A000294330BD6FEA04041F3C1CDA0C340EDC04F11404C4F1200220FA04F001FA02F3A1
:2088C00040EA030021FA04F345EA030130BDC4F10C04C4F1200220FA02F001FA04F340EA75
:2088E0000300294630BD21FA04F0294630BD94F0000F83F4801306BF81F480110134013DD3
:208900004EE77FEA645C18BF7FEA655C29D094EA050F08BF90EA020F05D054EA000C04BF39
:208920001946104630BD91EA030F1EBF0021002030BD5FEA545C05D14000494128BF41F04C
:20894000004130BD14F580043CBF01F5801130BD01F0004545F0FE4141F470014FF000005E
:2089600030BD7FEA645C1ABF194610467FEA655C1CBF0B46024650EA013406BF52EA03350D
:2089800091EA030F41F4002130BD00BF90F0000F04BF0021704730B54FF4806404F13204E7
:2089A0004FF000054FF0000150E700BF90F0000F04BF0021704730B54FF4806404F13204DC
:2089C00010F0004548BF40424FF000013EE700BF42004FEAE2014FEA31014FEA02701FBF53
:2089E00012F07F4393F07F4F81F06051704792F0000F14BF93F07F4F704730B54FF4607421
:208A000001F0004521F0004120E700BF50EA010208BF704730B54FF000050AE050EA0102FD
:208A200008BF704730B511F0004502D5404261EB41014FF4806404F132045FEA915C3FF4EB
:208A4000DCAE4FF003025FEADC0C18BF03325FEADC0C18BF033202EBDC02C2F1200300FA33
:208A600003FC20FA02F001FA03FE40EA0E0021FA02F11444C1E600BF70B54FF0FF0C4CF43C
:208A8000E06C1CEA11541DBF1CEA135594EA0C0F95EA0C0F00F0DEF82C4481EA030621EAED
:208AA0004C5123EA4C5350EA013518BF52EA033541F4801143F4801338D0A0FB02CE4FF070
:208AC0000005E1FB02E506F00042E0FB03E54FF00006E1FB03569CF0000F18BF4EF0010E9A
:208AE000A4F1FF04B6F5007F64F5407404D25FEA4E0E6D4146EB060642EAC62141EA55515D
:208B00004FEAC52040EA5E504FEACE2EB4F1FD0C88BFBCF5E06F1ED8BEF1004F08BF5FEA31
:208B2000500E50F1000041EB045170BD06F0004646EA010140EA020081EA0301B4EB5C04E0
:208B4000C2BFD4EB0C0541EA045170BD41F480114FF0000E013C00F3AB8014F1360FDEBFC2
:208B6000002001F0004170BDC4F10004203C35DA0C341BDC04F11404C4F1200500FA05F342
:208B800020FA04F001FA05F240EA020001F0004221F0004110EBD37021FA04F642EB06019D
:208BA0005EEA430E08BF20EAD37070BDC4F10C04C4F1200500FA04F320FA05F001FA04F24B
:208BC00040EA020001F0004110EBD37041F100015EEA430E08BF20EAD37070BDC4F1200512
:208BE00000FA05F24EEA020E20FA04F301FA05F243EA020321FA04F001F0004121FA04F2B5
:208C000020EA020000EBD3705EEA430E08BF20EAD37070BD94F0000F0FD101F00046400056
:208C200041EB010111F4801F08BF013CF7D041EA060195F0000F18BF704703F000465200B8
:208C400043EB030313F4801F08BF013DF7D043EA0603704794EA0C0F0CEA135518BF95EA34
:208C60000C0F0CD050EA410618BF52EA4306D1D181EA030101F000414FF0000070BD50EA37
:208C8000410606BF1046194652EA430619D094EA0C0F02D150EA013613D195EA0C0F05D174
:208CA00052EA03361CBF104619460AD181EA030101F0004141F0FE4141F470014FF00000DE
:208CC00070BD41F0FE4141F4780170BD70B54FF0FF0C4CF4E06C1CEA11541DBF1CEA13556C
:208CE00094EA0C0F95EA0C0F00F0A7F8A4EB050481EA030E52EA03354FEA013100F08880C7
:208D00004FEA03334FF0805545EA131343EA12634FEA022245EA111545EA10654FEA002624
:208D20000EF000419D4208BF964244F1FD0404F5407402D25B084FEA3202B61A65EB0305C7
:208D40005B084FEA32024FF480104FF4002CB6EB020E75EB030E22BFB61A754640EA0C003D
:208D60005B084FEA3202B6EB020E75EB030E22BFB61A754640EA5C005B084FEA3202B6EB9E
:208D8000020E75EB030E22BFB61A754640EA9C005B084FEA3202B6EB020E75EB030E22BF4D
:208DA000B61A754640EADC0055EA060E18D04FEA051545EA16754FEA06164FEAC30343EA59
:208DC00052734FEAC2025FEA1C1CC0D111F4801F0BD141EA00014FF000004FF0004CB6E7AC
:208DE00011F4801F04BF01430020B4F1FD0C88BFBCF5E06F3FF6AFAEB5EB030C04BFB6EB0E
:208E0000020C5FEA500C50F1000041EB045170BD0EF0004E4EEA113114EB5C04C2BFD4EB4B
:208E20000C0541EA045170BD41F480114FF0000E013C90E645EA060E8DE60CEA135594EA1C
:208E40000C0F08BF95EA0C0F3FF43BAF94EA0C0F0AD150EA01347FF434AF95EA0C0F7FF433
:208E600025AF104619462CE795EA0C0F06D152EA03353FF4FDAE1046194622E750EA410654
:208E800018BF52EA43067FF4C5AE50EA41047FF40DAF52EA43057FF4EBAE12E74FF0FF3CDF
:208EA00006E000BF4FF0010C02E000BF4FF0010C4DF804CD4FEA410C7FEA6C5C4FEA430C7F
:208EC00018BF7FEA6C5C1BD001B050EA410C0CBF52EA430C91EA030F02BF90EA020F002018
:208EE000704710F1000F91EA030F58BF994208BF90422CBFD8176FEAE37040F00100704725
:208F00004FEA410C7FEA6C5C02D150EA013C07D14FEA430C7FEA6C5CD6D152EA033CD3D0FA
:208F20005DF8040B704700BF8446104662468C461946634600E000BF01B5FFF7B7FF00288C
:208F400048BF10F1000F01BD4DF808EDFFF7F4FF0CBF012000205DF808FB00BF4DF808EDBC
:208F6000FFF7EAFF34BF012000205DF808FB00BF4DF808EDFFF7E0FF94BF012000205DF8CF
:208F800008FB00BF4DF808EDFFF7CEFF94BF012000205DF808FB00BF4DF808EDFFF7C4FF74
:208FA00034BF012000205DF808FB00BF4FEA410212F5001215D211D56FF47873B3EB625264
:208FC00012D94FEAC12343F0004343EA505311F0004F23FA02F018BF404270474FF0000095
:208FE000704750EA013005D111F0004008BF6FF0004070474FF00000704700BF4A0011D239
:2090000012F5001211D20DD56FF47873B3EB62520ED44FEAC12343F0004343EA505323FA70
:2090200002F070474FF00000704750EA013002D14FF0FF3070474FF0000070474FEA4102BC
:20904000B2F1E04324BFB3F5001CDCF1FE5C0DD901F0004C4FEAC0024CEA5070B2F1004F76
:2090600040EB830008BF20F00100704711F0804F21D113F13872BCBF01F00040704741F4AB
:2090800080114FEA5252C2F11802C2F1200C10FA0CF320FA02F018BF40F001004FEAC1237C
:2090A0004FEAD32303FA0CFC40EA0C0023FA02F34FEA4303CCE77FEA625307D150EA01339E
:2090C0001EBF4FF0FE4040F44000704701F0004040F0FE4040F40000704700BF80F0004012
:2090E00002E000BF81F0004142001FBF5FEA410392EA030F7FEA226C7FEA236C6AD04FEA80
:209100001262D2EB1363C1BFD218414048404140B8BF5B42192B88BF704710F0004F40F4DB
:20912000000020F07F4018BF404211F0004F41F4000121F07F4118BF494292EA030F3FD0B1
:20914000A2F1010241FA03FC10EB0C00C3F1200301FA03F100F0004302D5494260EB400052
:20916000B0F5000F13D3B0F1807F06D340084FEA310102F10102FE2A51D2B1F1004F40EBCC
:20918000C25008BF20F0010040EA03007047490040EB000010F4000FA2F10102EDD1B0FA7C
:2091A00080FCACF1080CB2EB0C0200FA0CF0AABF00EBC25052421843BCBFD04018437047EF
:2091C00092F0000F81F4000106BF80F400000132013BB5E74FEA41037FEA226C18BF7FEA90
:2091E000236C21D092EA030F04D092F0000F08BF0846704790EA010F1CBF0020704712F0F2
:209200007F4F04D1400028BF40F00040704712F100723CBF00F50000704700F0004343F0DB
:20922000FE4040F4000070477FEA226216BF08467FEA23630146420206BF5FEA412390EA8F
:20924000010F40F4800070474FF0000304E000BF10F0004348BF40425FEA000C08BF70470F
:2092600043F0964301464FF000001CE050EA010208BF70474FF000030AE000BF50EA01027D
:2092800008BF704711F0004302D5404261EB41015FEA010C02BF84460146002043F0B643B1
:2092A00008BFA3F18053A3F50003BCFA8CF2083AA3EBC25310DB01FA02FC634400FA02FC49
:2092C000C2F12002BCF1004F20FA02F243EB020008BF20F00100704702F1200201FA02FCE2
:2092E000C2F1200250EA4C0021FA02F243EB020008BF20EADC7070474FF0FF0C1CEAD0528E
:209300001EBF1CEAD15392EA0C0F93EA0C0F6FD01A4480EA010C400218BF5FEA41211ED051
:209320004FF0006343EA501043EA5111A0FB01310CF00040B1F5000F3EBF490041EAD371FC
:209340005B0040EA010062F17F02FD2A1DD8B3F1004F40EBC25008BF20F00100704790F058
:20936000000F0CF0004C08BF49024CEA502040EA51207F3AC2BFD2F1FF0340EAC250704751
:2093800040F400004FF00003013A5DDC12F1190FDCBF00F000407047C2F10002410021FA25
:2093A00002F1C2F1200200FA02FC5FEA310040F1000053EA4C0308BF20EADC70704792F060
:2093C000000F00F0004C02BF400010F4000F013AF9D040EA0C0093F0000F01F0004C02BF64
:2093E000490011F4000F013BF9D041EA0C018FE70CEAD15392EA0C0F18BF93EA0C0F0AD063
:2094000030F0004C18BF31F0004CD8D180EA010000F00040704790F0000F17BF90F0004F6D
:20942000084691F0000F91F0004F14D092EA0C0F01D142020FD193EA0C0F03D14B0218BF7D
:20944000084608D180EA010000F0004040F0FE4040F40000704740F0FE4040F44000704758
:209460004FF0FF0C1CEAD0521EBF1CEAD15392EA0C0F93EA0C0F69D0A2EB030280EA010C02
:2094800049024FEA402037D04FF0805343EA111143EA10130CF000408B4238BF5B0042F1A2
:2094A0007D024FF4000C8B4224BF5B1A40EA0C00B3EB510F24BFA3EB510340EA5C00B3EB9C
:2094C000910F24BFA3EB910340EA9C00B3EBD10F24BFA3EBD10340EADC001B0118BF5FEA1C
:2094E0001C1CE0D1FD2A3FF650AF8B4240EBC25008BF20F0010070470CF0004C4CEA5020A1
:209500007F32C2BFD2F1FF0340EAC250704740F400004FF00003013A37E792F0000F00F011
:20952000004C02BF400010F4000F013AF9D040EA0C0093F0000F01F0004C02BF490011F4B3
:20954000000F013BF9D041EA0C0195E70CEAD15392EA0C0F08D142027FF47DAF93EA0C0F3E
:209560007FF470AF084676E793EA0C0F04D14B023FF44CAF08466EE730F0004C18BF31F0BF
:20958000004CCAD130F000427FF45CAF31F000437FF43CAF5FE700BF4FF0FF3C06E000BF1E
:2095A0004FF0010C02E000BF4FF0010C4DF804CD4FEA40024FEA41037FEA226C18BF7FEA2D
:2095C000236C11D001B052EA530C18BF90EA010F58BFB2EB030088BFC81738BF6FEAE170F0
:2095E00018BF40F0010070477FEA226C02D15FEA402C05D17FEA236CE4D15FEA412CE1D043
:209600005DF8040B704700BF844608466146FFE70FB5FFF7C9FF002848BF10F1000F0FBD3E
:209620004DF808EDFFF7F4FF0CBF012000205DF808FB00BF4DF808EDFFF7EAFF34BF0120B7
:2096400000205DF808FB00BF4DF808EDFFF7E0FF94BF012000205DF808FB00BF4DF808EDDF
:20966000FFF7D2FF94BF012000205DF808FB00BF4DF808EDFFF7C8FF34BF012000205DF8F8
:2096800008FB00BF4FEA4002B2F1FE4F0FD34FF09E03B3EB12620DD94FEA002343F0004311
:2096A00010F0004F23FA02F018BF404270474FF00000704712F1610F01D1420205D110F0E7
:2096C000004008BF6FF0004070474FF0000070474BB942B9002908BF002802D04FF0FF31DF
:2096E000084600F03BB882B0EC462DE9005000F01DF8DDF804E002B00CBC70472DE9704FAB
:20970000089E14461D468046894600F029F804FB01F3A4FB00AB00FB05329344B8EB0A0845
:2097200069EB0B09C6E90089BDE8708F2DE9704F089E14461D468046894600F061F900FBD3
:2097400005F5A0FB04AB04FB0154A344B8EB0A0869EB0B09C6E90089BDE8708F704700BF1B
:2097600000292DE9F00FC0F2A1800024002BC0F29880154606460F46002B3FD18A4258D98B
:20978000B2FA82F34BB1C3F1200201FA03F720FA02F29D4000FA03F61743290CB7FBF1F2DF
:2097A00001FB1277A8B200FB02F34FEA164C4CEA0747BB4209D97F1902F1FF3C80F0058120
:2097C000BB4240F20281023A2F44FF1AB7FBF1F301FB137100FB03F0B6B246EA0141884267
:2097E00008D9491903F1FF3780F0F180884240F2EE80023B43EA0242002303E08B420AD94D
:2098000000231A461046194614B1404261EB4101BDE8F00F7047B3FA83F8B8F1000F40F0D0
:2098200088808B4202D3824200F2E28000230122E8E712B90123B3FBF2F5B5FA85F2002A7D
:209840003AD17F1B280C1FFA85FC0123B7FBF0F100FB11770CFB01F24FEA164848EA07474A
:20986000BA4207D97F1901F1FF3802D2BA4200F2C4804146BF1AB7FBF0F200FB12700CFBCD
:2098800002FCB6B246EA0040844507D9401902F1FF3702D2844500F2AE803A4642EA01421B
:2098A000B0E7E443524263EB430362E7404261EB41014FF0FF3459E79540C2F1200927FAE5
:2098C00009F126FA09F99740280CB1FBF0F800FB18111FFA85FC0CFB08F349EA07094FEA91
:2098E000194747EA01418B4206FA02F608D9491908F1FF327AD28B4278D9A8F102082944E9
:20990000C91AB1FBF0F300FB13170CFB03F21FFA89F949EA0747BA4207D97F1903F1FF3100
:2099200060D2BA425ED9023B2F44BF1A43EA08438CE7C8F1200225FA02F103FA08FC27FA3F
:2099400002F320FA02F207FA08F741EA0C0C4FEA1C49B3FBF9F109FB11331FFA8CFA0AFB9F
:2099600001FB17433A0C42EA03439B4505FA08F008D913EB0C0301F1FF3235D29B4533D9FE
:2099800002396344CBEB0303B3FBF9F209FB12330AFB02FABFB247EA0347BA4508D917EB78
:2099A0000C0702F1FF331BD2BA4519D9023A674442EA0145A5FB0001CAEB07078F424FF0C4
:2099C00000030AD305D02A461CE76246FDE63B4610E706FA08F68642F5D26A1E002311E72C
:2099E0001A46E5E70B46A0E71146CBE7904687E74346424606E7023A50E702392F4439E7D7
:209A00002DE9F00F144605460E46002B43D18A4253D9B2FA82F757B1C7F1200620FA06F6E0
:209A200001FA07F302FA07F400FA07F51E43210CB6FBF1F201FB1266A0B200FB02F32F0C31
:209A400047EA0646B34209D9361902F1FF3780F0FD80B34240F2FA80023A2644F61AB6FB45
:209A6000F1F301FB136100FB03F0ADB245EA0141884208D9091903F1FF3680F0E98088423B
:209A800040F2E680023B43EA0242002310461946BDE8F00F70478B424CD8B3FA83F6002E08
:209AA0004FD18B4202D3824200F2DD80BDE8F00F0023012210461946704712B90124B4FBDC
:209AC000F2F4B4FA84F2002A40F08280091B260CA7B20123B1FBF6F006FB101107FB00F2A5
:209AE0004FEA154C4CEA01418A4207D9091900F1FF3C02D28A4200F2C8806046891AB1FB8B
:209B0000F6F206FB121107FB02F7ADB245EA0145AF4208D92C1902F1FF3180F09B80A742BC
:209B200040F29880023A42EA004210461946BDE8F00F704700231A4610461946BDE8F00F45
:209B40007047C6F1200522FA05F703FA06F421FA05F301FA06FB20FA05F53C434FEA14482C
:209B6000B3FBF8FC08FB1C331FFA84F909FB0CFA45EA0B0B4FEA1B4545EA03439A4502FA23
:209B800006F204D91B190CF1FF356FD3AC46CAEB0303B3FBF8F508FB153309FB05F91FFA9B
:209BA0008BFB4BEA0347B94504D93F1905F1FF3362D31D4645EA0C4CACFB0223C9EB070798
:209BC0009F424FF000054AD346D062462B465DE79440C2F1200921FA09FC914020FA09F913
:209BE000260CBCFBF6F806FB18CCA7B207FB08F349EA01094FEA194141EA0C4C634500FA5E
:209C000002F509D91CEB040C08F1FF323BD2634539D9A8F10208A444C3EB0C0CBCFBF6F372
:209C200006FB13C107FB03F21FFA89F949EA01418A4207D9091903F1FF3022D28A4220D99E
:209C4000023B2144891A43EA084343E73A4605E7334618E70A4666E7B0409042B5D20CF156
:209C6000FF32002312E7334632460FE79A458DD9ACF1020C23448AE7B9459AD9023D2744CD
:209C800098E70346DEE79046C6E70238214435E7014B1868704700BF000B002008B50021AE
:209CA000044601F085FE044B1868C36B03B198472046FAF767FF00BF4CF2000870B50F4E12
:209CC0000F4D761BB61007D0043D0024013455F8043F9847A642F9D10A4E0B4D03F070FE2E
:209CE000761BB61008D0043D0024013455F8043F9847A642F9D170BD70BD00BFCCD90008B4
:209D0000CCD90008E8D90008CCD90008024B0146186800F00BB800BF000B0020024B0146DB
:209D2000186802F0DFBE00BF000B00202DE9F04F01F10B05162D83B0064627D935F00705E0
:209D400027D4A94225D8304600F04CFBB5F5FC7F26D2C14F4FEAD50C07EBCC03DC689C4249
:209D600000F0D2816368E26823F0030323445868A16840F00105CA60304691605D6000F0CE
:209D800033FB0834204603B0BDE8F08F1025A942D9D900240C232046336003B0BDE8F08F27
:209DA0005FEA552C00F08980BCF1040F00F260814FEA951C0CF1380C4FEA4C01A64F07EBB5
:209DC0008101CC68A14205D10CE0002B79DAE468A14207D0626822F00302531B0F2BF4DD4A
:209DE0000CF1FF3C0CF1010C9B4B3C6903F1080E744500F07E81616821F003014A1B0F2A68
:209E000000F36481002AC3F814E0C3F810E069DAB1F5007F80F03A81C9088A104FF00108A0
:209E200008FA02F803EBC1015A68886848EA0202A060E1605A608C60C4604FEAAC0301207A
:209E4000984090425BD8024206D12CF0030C400002420CF1040CFAD007EBCC084446E1460D
:209E6000E3689C4207D146E1002A80F25781DB689C4200F04081596821F003014A1B0F2A00
:209E8000F2DD1C4654F808CFD96845F0010942F001081D44C3F804903046CCF80C10C1F8F4
:209EA00008C07D613D61C5F80CE0C5F808E0C5F80480AA5000F098FA64E77E214FF03F0CDF
:209EC0007CE722445068E368A16840F00105CB6030469960556000F087FA0834204603B062
:209EE000BDE8F08F21444B68304643F001034B6000F07AFA0834204603B0BDE8F08FBC68CD
:209F0000636823F00309A94504D3C5EB09030F2B00F39180514B524A1968136805EB010A69
:209F2000013304EB090B00F061810AF5805A0AF10F0A2AF47F6A2AF00F0A30465146019251
:209F400000F054FAB0F1FF3F8046019A00F00181834500F2FB80DFF814C1C345DCF8003024
:209F60005344CCF8003000F04A8112683C4901321BBFCBEB080B5B44C1F80080CCF80030FA
:209F800018F0070300F01481C3F10802C3F5805390440833C244CAF30B0ACAEB030A5146A1
:209FA0003046CDF804C000F021FA431CDDF804C000F03581C8EB0002524442F00102DCF8A5
:209FC0000030BC425344C7F80880CCF80030C8F80420DFF898A015D0B9F10F0F40F2EB8044
:209FE0006168A9F10C0222F0070201F0010142EA010E0520A1180F2AC4F804E04860886060
:20A0000000F21181174ABC6811688B4288BF1360154A11688B4288BF1360626822F00302F7
:20A020009542C5EB020301D80F2B04DC304600F0DBF90024A6E645F0010243F001032544DF
:20A0400062603046BD606B6000F0CEF90834204603B0BDE8F08F00BF040B00208419002005
:20A06000100F0020801900207C19002088190020BCF1140F61D9BCF1540F00F28F804FEA1E
:20A08000153C0CF16E0C4FEA4C0197E64B0A042B58D9142B00F2AD8003F15B02500007EB4F
:20A0A00080008368DFF8B881834200F08A805A6822F00302914202D29B689842F7D1D96800
:20A0C0007A68E160A3608C60DC60B6E645F0010742F001012544676030465D611D61C5F886
:20A0E0000CE0C5F808E06960AA50083400F07CF948E65A68A1E609F1010919F0030F04F1E0
:20A1000008047FF4ADAE2DE004F108036469A34208BF0CF1020C3FF467AE23E61944486876
:20A120001C4654F8082FDB6840F001054D603046D3609A6000F058F924E60CF15B0C4FEA89
:20A140004C013BE68A0938325000A8E7BC423FF402AFBC68626822F0030261E7D8F8008036
:20A1600098457AD11CF0030FA8F108030CF1FF3CF4D17B6823EA00037B60400098423FF6DB
:20A18000BEAE00283FF4BBAE0342CC467FF464AE400003420CF1040CFAD05DE6BCF5AA7F3A
:20A1A00019D84FEAD53C0CF1770C4FEA4C0105E64FF48053EEE60123C8F8043044460022C5
:20A1C0002EE7921001209040D8F8042019460243C8F8042075E740F254539C451BD84FEA19
:20A1E000954C0CF17C0C4FEA4C01E7E50AF1100AA3E6542B1FD80A0B6E3250004FE7CBF39A
:20A200000B0100297FF4B1AE0AEB0901BA6841F001015160F6E6FC214FF07E0CCEE501229A
:20A220004FF0000ACBE604F10801304602F05AFCDAF80030E6E6B3F5AA7F03D8CA0B773270
:20A2400050002CE740F25452934203D88A0C7C32500024E7FC207E2221E77B688DE700BF9A
:20A26000040B0020844641EA000313F0030349D1403A23D30B6803604B6843608B68836022
:20A28000CB68C3600B6903614B6943618B698361CB69C3610B6A03624B6A43628B6A8362FA
:20A2A000CB6AC3620B6B03634B6B43638B6B8363CB6BC36340304031403ADBD230320BD38C
:20A2C0000B6803604B6843608B688360CB68C36010301031103AF3D20C3205D351F8043BF8
:20A2E00040F8043B043AF9D2043208D0D2071CBF11F8013B00F8013B01D30B880380604613
:20A30000704700BF082A13D38B07B1D010F00303AED0C3F10403D21ADB071CBF11F8013B6F
:20A3200000F8013BA4D331F8023B20F8023B9FE7043AD9D3013A11F8013B00F8013BF9D2C8
:20A340000B7803704B7843708B78837060467047F0B4840743D0541E002A3ED0CDB203468A
:20A3600003E0621E002C38D0144603F8015B9A07F7D1032C2AD9CDB245EA05250F2C45EAB8
:20A38000054515D9A4F110073F0903F1100606EB07161A46156055609560D5601032B2428F
:20A3A000F8D104F00F040137032C03EB07130DD91E462246043A032A46F8045BFAD8221F91
:20A3C00022F003020432134404F003042CB1C9B21C4403F8011BA342FBD1F0BC70471446A1
:20A3E0000346C6E7704700BF704700BF38B5074C0023054608462360FAF7A2FB431C00D03F
:20A4000038BD2368002BFBD02B6038BDF01900200EB4F0B59CB021AC54F8042B0E4906467F
:20A4200023464FF4027E6FF0004508684FF6FF7702A9029606960194ADF814E004950795DF
:20A44000ADF8167000F03AF8029B00221A701CB0BDE8F04003B07047000B002020F003011C
:20A4600010F00300C0F1000051F8043B00F1040C4FEACC0C6FF000021CBF22FA0CF21343E2
:20A480004FF0010C4CEA0C2C4CEA0C4CA3EB0C0222EA030212EACC1204BF51F8043B04306E
:20A4A000F4D013F0FF0F1FBF013013F47F4F013013F47F0F18BF0130704700BF2DE9F04F4A
:20A4C000C9B010930C9191460D9002F0D7FB00681590FFF7C3FF0C9C1890A3891E0603D54E
:20A4E0002369002B01F0818038ACA44608942B9400250024CDE91645002311932D932C93EA
:20A500001A9319930E93664699F80030002B00F0F880252B00F0F58009F1010201E0252B5E
:20A5200004D0137814460132002BF8D1C9EB04057DB12C9B2D9A01332A44072BC6F80090A0
:20A5400075602D922C9300F3C28008360E9828440E902378002B00F0C280002394F801805D
:20A560001A468DF88F300F93099304F101094FF0FF340A9409F10109A8F12003582B00F2B5
:20A58000C583DFE813F06A02C303C3037102C303C303C303C303C303C30314036603C30354
:20A5A0009D00C000C30378027F027F027F027F027F027F027F027F027F02C303C303C30323
:20A5C000C303C303C303C303C303C303C30390027103C3037103C303C303C303C3036A034C
:20A5E000C303C3037800C303C303C303C303C3035900C303C303AF02C303C303C303C303CB
:20A60000C303C303C303C303C303C30337034803710371037103FF024803C303C3030803D2
:20A62000C303C5027C002003A303C303D902C3035F00C303C303DE00DDF824C04CF0100C07
:20A64000CDF824C0099CA20600F15483099CE30600F1BD85DDF824C01CF0400F00F0B7853B
:20A66000DDF840C00025BCF800400CF1040C0123CDF840C08CE0099D45F010050995DDF827
:20A6800024C01CF0200340F02A83DDF824C01CF0100240F0A485DDF824C01CF0400300F0A2
:20A6A0009E85DDF840C01346BCF800400CF1040C0025CDF840C06BE00F9C109364420F947C
:20A6C000099D45F00405099599F8008052E70D980C992BAA02F02AFE40B938AE36E72D9BB1
:20A6E00023B10D980C992BAA02F020FE0C9C0E98A38913F0400F18BF4FF0FF3049B0BDE8A8
:20A70000F08F4C4625E799F8008009F10100B8F12A0F01F00C81A8F13003092B98BF002138
:20A7200001F26B8010F8018B01EB810103EB4101A8F13003092BF5D941EAE1710A9181465C
:20A740001AE7099DA14CAF061A948DF88F2040F1D181DDF840C00CF1070323F0070303F15E
:20A7600008041094D3E90045DDF824C01CF0010F00F0628454EA050000F05E8430234CF0D9
:20A78000020C8DF890308DF89180CDF824C002234FF0000A8DF88FA00A99002905DBDDF884
:20A7A00024C02CF0800CCDF824C054EA050040F0C5820A99002940F0C182002B40F0388454
:20A7C000DDF824C01CF0010F00F0328448AF3023089D07F8413DEC1BDDF828C00025644500
:20A7E000A8BFA446CDF82CC01495BAF1000F02D00B9D01350B95099B13F00203129302D081
:20A800000B9D02350B95DDF824C01CF0840CCDF84CC040F090820F9DDDF82CC0CCEB050B1D
:20A82000BBF1000F40F38782BBF1100F2D992C9ADFF8A0A12CDD1B97304657461025CA469F
:20A840000C9EA1460D9C06E0ABF1100BBBF1100F00F1080017DD01321031072A2D912C9248
:20A8600007604560F0DD204631462BAA02F05EFD00287FF43BAFABF1100BBBF1100F2D9933
:20A880002C9A38A8E7DC4C46D146BA461B9F064601320BEB010C072ACDF8B4C02C9286E8D4
:20A8A000000C00F31A849DF88FA00836BAF1000F0FD02C9B0CF1010C01330DF18F010122AA
:20A8C000072BCDF8B4C02C9386E8060000F3A4830836129B73B12C9B0CF1020C013324A9DE
:20A8E0000222072BCDF8B4C02C9386E8060000F387830836139D802D00F0CA820A9DC4EB6C
:20A90000050ABAF1000F3BDDBAF1100F2C9B304D2BDD0A9432464FF0100B2E4661460D9C0C
:20A920000C9D06E0AAF1100ABAF1100F02F1080217DD01331031072B2D912C9382E8400842
:20A94000F0DD204629462BAA02F0F0FC00287FF4CDAEAAF1100ABAF1100F2D992C9B38AA9E
:20A96000E7DC0A9C35468C4616460133D444072BCDF8B4C02C9386E8200400F335830836D4
:20A98000099DED0500F124822C9BA4440133072BCDF8B4C0376074602C9300F30F8308364D
:20A9A000099C630749D50F9D0B982C1A002C44DD102C2C9BDFF81CA02BDD57461025624670
:20A9C000DDF83080DDF834A00BE000BF84F2000850F20008A4F20008103C102C06F10806AC
:20A9E00015DD01331032072B2D922C9337607560F2DD504641462BAA02F098FC00287FF4F1
:20AA000075AE103C102C2D9A2C9B38AEE9DC9446BA460133A444072BCDF8B4C02C93C6F874
:20AA200000A0746009DD0D980C992BAA02F07EFC00287FF45BAEDDF8B4C00E9C0B980F9D4B
:20AA4000A842ACBF241864190E94BCF1000F40F0C18200232C9338AE56E599F80080002AD9
:20AA60007FF488AD202285E5099D45F00105099599F800807EE5099D45F08005099599F800
:20AA8000008077E50024A8F130030F94214619F8018B01EB810103EB4101A8F13003092BA5
:20AAA000F5D90F9168E5DDF824C08DF88F204CF0100CCDF824C0099CA50640F1B280109D8D
:20AAC000E91D21F00701D1E900230831109114461D46002A73F1000CC0F294839DF88FA0BC
:20AAE000012359E6099DB64CAF068DF88F201A943FF52FAE099DED0640F14384DDF840C03D
:20AB00000025DCF800400CF1040CCDF840C02BE6DDF824C08DF88F201CF0200F00F040843D
:20AB2000109C21680E9CE5172B46109D224604351095C1E90023E7E4109C4FF0000A2768BA
:20AB40008DF88FA0251D002F00F0E9850A9C3846002CC0F29B855146224602F093F80028AC
:20AB600000F013860A9CC01BA042B8BF0446109524EAE475CDF828A0CDF850A00B959DF8A5
:20AB80008FA032E6DDF824C04CF0400CCDF824C099F80080EEE499F800804B46B8F16C0FDB
:20ABA00000F07F84099D45F010050995E2E4109C109D24682B1D002C0F94FFF67DAD109390
:20ABC00099F80080D6E4109BDDF824C0109D7D4804351C684FF0780830234CF0020C109516
:20ABE0008DF89030CDF824C000258DF891801A900223CDE5109B109D1A68012400230435D0
:20AC00009A460B948DF8B82010958DF88F300A9314932EAFEFE5099C8DF88F20A5063FF5C2
:20AC20004EAFDDF824C01CF0100F40F0DF82DDF824C01CF0400F00F0D982DDF840C0BCF9B9
:20AC400000400CF1040CE51722462B46CDF840C03FE799F800802B228CE4099D45F0080531
:20AC6000099599F8008085E4109D8DF88F20EB1D23F0070303F1080CCDF840C0D3E90045E8
:20AC8000CDE91645DDE91601FDF7DCFB0128DDE9160140F05C8300220023FEF75FF900282C
:20ACA00040F063859DF88FA003250B95099D464F25F08005454B0024099500250A94B8F15D
:20ACC000470FD8BF1F46032414958EE5DDF824C04CF0200CCDF824C099F800804AE4109C2A
:20ACE000E31D23F0070303F108051095D3E9004500234DE5109DEB1D23F0070303F1080C61
:20AD0000D3E90045CDF840C0012341E58DF88F20B8F1000F3FF4E3AC00234FF0010C9A4626
:20AD2000CDF82CC08DF8B8808DF88F300A93149364462EAF5FE5DDF8B4C0B7E5012B00F051
:20AD4000EC80022B0DF1DF0318D1DDF868C0194604F00F0022091CF8000042EA05722B091C
:20AD6000087052EA03000F4614461D4601F1FF31EED1089DCDE91E23EC1B2DE5E00840EA62
:20AD8000457004F00702E908303250EA010C1F461A7004460D4603F1FF33EFD1099CCDE99A
:20ADA0001C01E007394640F1C180302A00F0BE80089D1F463023EC1B01F8013C0CE500BFCC
:20ADC00070F2000884F2000864F2000860F20008B8F1650F40F3AD80DDE916010022002334
:20ADE000CDF81CC0FEF7B0F8DDF81CC0002800F026812C9BAA4901330CF1010C0122072B58
:20AE0000CDF8B4C02C9386E8060000F3ED820836259B119CA34203DB099DEC077FF5C0AD7C
:20AE20002C9B189C0133159DA444072BCDF8B4C0356074602C9300F33E830836119D6C1E0C
:20AE4000002C7FF7ADAD102C2C9B964D40F3978110276246DDF83480DDF830A004E0083696
:20AE6000103C102C40F38A8101331032072B2D922C9386E8A000F2DD404651462BAA02F025
:20AE800055FA00287FF432AC2D9A2C9B38AEE7E70F9D0B98C0EB050ABAF1000F7FF72EAD94
:20AEA000BAF1100F2C9B7F4D2BDD129432464FF0100B2E4661460D9C0C9D06E0AAF1100AAD
:20AEC000BAF1100F02F1080217DD01331031072B2D912C9382E84008F0DD204629462BAA6A
:20AEE00002F024FA00287FF401ACAAF1100ABAF1100F2D992C9B38AAE7DC129C35468C464E
:20AF000016460133D444072BCDF8B4C02C9386E8200400F30F820836F0E4002D08BF0A2C0D
:20AF200080F03881303448AF07F8414D089DEC1B52E4119C012C2C9C40F3D28101340CF1C4
:20AF400001030122072C2D9337602C94726000F3D8810836159DDDF8608001343560189D3E
:20AF60009844072CCDF8B4802C94756000F3D5810836DDE9160100220023FDF7E5FF119D05
:20AF8000002840F0B9806B1E013401379844072C2C94CDF8B4803760736000F3E280083665
:20AFA000DDF864C00134199DC44427AB072CCDF8B4C02C9486E828007FF7F1AC0D980C99B4
:20AFC0002BAA02F0B3F900287FF490ABDDF8B4C038AEE5E40D980C992BAA02F0A7F9002857
:20AFE0003FF437ADFFF782BB0D980C992BAA02F09DF900287FF47AABDDF8B4C038AEBFE4CE
:20B000000D980C992BAA02F091F900287FF46EABDDF8B4C038AE6DE40D980C992BAA02F050
:20B0200085F900287FF462ABDDF8B4C038AE50E40A9C38AFFFF7D0BB0223FFF7A9BB259B3A
:20B04000002B40F3DD81119C149DDDF844A0AC42A8BF2C46002CBA440BDD2C9BA444013361
:20B06000072BCDF8B4C0376074602C9300F31E830836149D24EAE4742C1B002C40F3D78055
:20B08000102C2C9B074D40F3A3810A974FF010082F4662462546DDF834B00C9C09E000BF79
:20B0A000A0F2000850F200080836103D102D40F38B8101331032072B2D922C9386E8800190
:20B0C000F2DD584621462BAA02F030F900287FF40DAB2D9A2C9B38AEE7E70D980C992BAAF8
:20B0E00002F024F900287FF401AB9DF88FA0DDF8B4C038AEFFF7DABB6F1E002F7FF750AF4B
:20B10000102FAE4D23DD43464FF0100ADDF83480DDF830B004E0103F102F06F1080615DD6C
:20B1200001341033072C2D932C9486E82004F2DD404659462BAA02F0F9F800287FF4D6AA8B
:20B14000103F102F2D9B2C9C38AEE9DC98460134B844072CCDF8B4802C9486E8A0007FF7A7
:20B160001EAF0D980C992BAA02F0E0F800287FF4BDAADDF8B4802C9C38AE11E7944601335A
:20B18000A444072BCDF8B4C02C93356074607FF706AC13E70DF1DF0B204629460A22002306
:20B1A000FEF796FA30328BF80020204629460A220023FEF78DFA04460D4654EA050C5F46D4
:20B1C0000BF1FF3BE8D1089DEC1BFFF705BB109D01232C68043510950025FFF7D9BA109D80
:20B1E0002C68043510950025FFF7D2BA109D2C6804351095E51722462B46002A73F1000CA8
:20B20000BFF66CAC4FF02D0A644265EB45058DF88FA00123FFF7C0BA0D980C992BAA02F052
:20B2200085F800287FF462AADDF8B4C038AE149D259C2F44119DAC4242DB099DE9073FD474
:20B240001198C7EB0A05041BAC42B8BF2546002D0BDD2C9BAC440133072BCDF8B4C0376093
:20B2600075602C9300F34C82083625EAE575641B002C7FF795AB102C2C9B504D7FF77FAF2D
:20B2800010276246DDF83480DDF830A004E00836103C102C7FF772AF01331032072B2D92F9
:20B2A0002C9386E8A000F2DD404651462BAA02F03DF800287FF41AAA2D9A2C9B38AEE7E738
:20B2C000189D2C9BAC44159D01333560189D072BCDF8B4C075602C9300F3F4810836AFE797
:20B2E000099DEA073FF52AAE01340CF101080123072CCDF8B4802C94376073607FF74FAE83
:20B300002FE70D980C992BAA02F010F800287FF4EDA92D9B2C9C38AE1CE60D980C992BAA36
:20B3200002F004F800287FF4E1A9DDF8B4802C9C38AE1EE60D980C992BAA01F0F7FF002811
:20B340007FF4D4A9DDF8B4C038AEFFF7D7BAFDF779F8002840F0BB80099C194F194B4FF09F
:20B36000030C24F0800409940A90CDF82CC01490B8F1470FD8BF1F4664469DF88FA0FFF73B
:20B3800034BA099C640640F15081DDF840C00025BCF800400CF1040CCDF840C0FFF7E4B95B
:20B3A000DDF824C01CF0100F00F04681109C0E9D2368043410941D60FFF7A6B850F2000819
:20B3C0006CF2000868F200082C463D460A9F94460133A444072BCDF8B4C02C93356074607E
:20B3E0003FF71AAF083622E70D980C992BAA01F09DFF00287FF47AA9DDF8B4C038AE07E582
:20B400002C9AB74901320CF1010C0120072ACDF8B4C02C923160706000F3F78008361C4675
:20B420002CB9119D1DB9099DE8077FF5B9AA2C9B159D189901333560189D6144072B2D91FA
:20B4400075602C9300F3DE8106F108026442002C40F30B81102CA34D40F34881A34610262D
:20B460000C46DDF83480DDF830A006E00832ABF1100BBBF1100F40F3378101331034072B15
:20B480002D942C9382E86000F0DD404651462BAA01F04CFF00287FF429A92D9C2C9B38AA88
:20B4A000E5E7099C09F1010944F02004099493F80180FFF75FB80D980C992BAA01F036FFC4
:20B4C00000287FF413A9DDF8B4C038AEB6E40A9D28F0200A013500F0A580BAF1470F04D142
:20B4E0000A9D002D08BF01250A95DDF824C0DDE916234CF4807C002BCDF848C0C0F29C8131
:20B50000DDE91645CDE920454FF0000BB8F1660F00F09B81B8F1460F00F0A981BAF1450F64
:20B520000ABF0A9C0A9D651C022025A926AA29AB8DE821000392049302910D98DDE92023DD
:20B5400000F04EFBB8F1670F074602D0B8F1470F05D1DDF824C01CF0010F00F09C81BAF112
:20B56000460F07EB050400F01C81DDE9200100220023FDF7E9FC002840F00581299B9C4269
:20B5800006D930215A1C29921970299B9C42F9D8DB1BBAF1470F119300F0ED80B8F1650F39
:20B5A00040F3F281B8F1660F00F06881259C1494119C149DAC4200F33281DDF824C01CF0CE
:20B5C000010F40F0AD8125EAE5732C464FF06708BBF1000F40F0B280129D0B930995CDF8A9
:20B5E00028B09DF88FA0FFF700B90D984021FEF79DFB20602061002800F0BF81DDF830C04F
:20B600004023CCF81430FEF76FBF0D980C992BAA01F08CFE00287FF469A8259CDDF8B4C04C
:20B6200038AEFDE606240A945FE7109D2C68043510950025FFF798B8DDF824C01CF0400F95
:20B6400000F08780109C0E9D2368043410941D80FEF75ABF0D980C992BAA01F067FE0028ED
:20B660007FF444A82D992C9B38AADDF844C00133119C8C44072BCDF8B4C02C93176054601D
:20B680003FF79CAC02F10806FFF78AB9CDF828A0FEF7E4FE10950A9D20EAE07C0446CDF8CD
:20B6A0002CC014959DF88FA0FFF79FB80D980C992BAA01F03BFE00287FF418A8DDF8B4C0F7
:20B6C00038AED6E40D980C992BAA01F02FFE00287FF40CA8259CDDF8B4C038AEB0E500BFFA
:20B6E000A0F2000850F2000821465C4601332144072B2D912C9315605460ABDC0832B4E790
:20B700000D980C992BAA01F011FE00287EF4EEAF259C1199DDF8B4C00C1B38AEA5E50A9CE2
:20B72000BA46062C28BF062424EAE47C0A9714971095CDF82CC0974FFFF757B8129D4FF0DD
:20B740002D0A099500250B938DF88FA00A95FFF74FB8DDF840C00E9CDCF800300CF1040C71
:20B76000CDF840C01C60FEF7CFBE4FF02D0A8DF88FA0FFF799BA259BDC1C19DB0A9C9C4263
:20B7800016DB149314E7234602E724EAE47CCDF82CC00A9C10950A9014909DF88FA0FFF762
:20B7A00024B83B78302B00F0AD80259D2C44DCE6A8F10208591E00292591BABF49422D2341
:20B7C0002B2309298DF89C808DF89D3065DC302330318DF89E308DF89F1028AB119D27AA28
:20B7E000119C9A1A012D1992144440F3B7800134002524EAE4731495EAE6002481460A948C
:20B80000FEF7BABE0D980C992BAA01F08FFD00287EF46CAF259C2D992C9B38AA16E6149C8E
:20B82000119D002CD4BFC4F1020401242C4424EAE4734FF06708CBE61799169801F10041F6
:20B84000209021914FF02D0B60E60A9D032025A926AA29AB019500900392049302910D9803
:20B86000DDE9202300F0BCF90A9D074677E60A9C032025A926AA29AB0194ECE7259D0A9CBE
:20B88000002D149563DDB4BB099DE80733D4149C24EAE4739CE6299B7AE60DF1AA023E4D97
:20B8A000CB1785FB0150C3EBA00000EB8003A1EB43010928134601F130021A70014603F1D6
:20B8C000FF32ECDC00F130010DF1AB04C9B2944203F8011C5AD90DF19D001A4601E012F81E
:20B8E000011BA24200F8011FF9D10DF5907CC3EB4C03F63B72E70A9D6C1C149D2C4424EA73
:20B90000E47365E6DDE9200100220023FDF71CFB00287FF44AAFC5F1010525952C4424E6CA
:20B92000149D4FF067086C1C24EAE47350E6109DDDF840C02D680CF10403002D99F801802B
:20B940000A9510938146BEF615AEFEF710BE7CB9099DE9070CD401231C4639E6DDF824C09B
:20B960001CF001037FF443AF149324EAE4732FE60A9DAC1C24EAE4732AE60D9D0C232B60E9
:20B980004FF0FF30FEF7BABE259B13E70DF19E0324E700BF98F2000867666666024B13B16D
:20B9A000024800F07DB870470000000019CA00082DE9F04F384B85B01B68029003F5A47246
:20B9C00001930F460392019BD3F84881B8F1000F1CD0DDF80CB04FF00109DA46D8F8043017
:20B9E0005C1E11D408F188059E1C05EB830508EB860677B1EB6FBB420BD0013C631CA5F105
:20BA00000405A6F10406F4D1244A7ABB05B0BDE8F08FD8F8042056F8043C013AA24216BFC5
:20BA20000022C8F8044046F8042C002BE5D009FA04F2D8F88811D8F804B00A4210D0D8F8B0
:20BA40008C110A420ED1029855F8041C9847D8F804305B45B7D1DAF800304345CDD0B2E74C
:20BA60009847F4E755F8040C9847F0E7D8F804306BB9D8F8003063B14046CAF80030FEF750
:20BA80004DF9DAF80080B8F1000FA7D1BEE7D8F80030C2469846F6E74CF200081D9D00086E
:20BAA000014600200246034601F0C0BC2DE9F04F03690D6983B09D42834600F38C80013DD2
:20BAC00001F1140400F1140A54F825205AF825300132B3FBF2F8AA00914600925244A144BC
:20BAE0000192B8F1000F3ED000263046224653468C4652F8047B19681FFA87FE3F0C0EFB42
:20BB0000086E07FB08F606EB1E461FFA8EFECEEB000E8FB2B0B27744C0EB114000EB274042
:20BB2000BFB247EA0047914543F8047B4FEA20404FEA1646DDD2009A61465AF8023093B99E
:20BB4000019A131F9A450CD252F8043C4BB9A2F1080302E01A68043B1AB99A4505F1FF35B0
:20BB6000F8D3CBF81050584601F0F2FA00282EDB08F101085346002254F8046B1868B1B2D0
:20BB8000511A87B2360C3944C6EB104000EB214289B241EA0241A14543F8041B4FEA22426D
:20BBA000EAD25AF825200AEB850382B91A1F92450BD253F8042C42B9083B02E01A68043B31
:20BBC0001AB99A4505F1FF35F8D3CBF81050404603B0BDE8F08F002003B0BDE8F08F00BF88
:20BBE0002DE9F04F016C9BB0044692469B46279D41B1436C01229A404B608A6001F0B2F8A3
:20BC000000232364BBF1000FD94633DB00232B60A54B1A4609EA0303934214D050465946AD
:20BC200000220023FDF790F9804648B3269E289D01233360002D00F0CA809C482860013835
:20BC40001BB0BDE8F08F269D42F20F732B60BAF1000F00F0A5809648289E002EF0D0C37855
:20BC6000002B00F0B68000F10803289D2B601BB0BDE8F08F01232BF000492B60CB46C7E766
:20BC800019AA18AB8DE80C00204652465B4601F0EFFA5FEA19550A9040F08B80189F199D2B
:20BCA0006FF482633D449D42C0F295821F3305F212425B1B09FA03F32AFA02F243EA0200C0
:20BCC000FCF764FE0126013DB846A1F1F87116960022784BFCF71CFD6DA3D3E90023FCF732
:20BCE000CBFE6DA3D3E90023FCF714FD064628460F46FCF75BFE6AA3D3E90023FCF7BCFE94
:20BD000002460B4630463946FCF704FD06460F46FDF74CF939460790002230460023FDF702
:20BD20001DF9002840F02982079E162E00F222826149524601EBC6015B46D1E90001FDF726
:20BD40002BF9002800F04C82013E079600260E96C5EB0805013D069500F126820025089542
:20BD6000079E002EC0F21782069D0D963544002606950C96249D092D2DD8052DC4BF043D91
:20BD80002495249EC8BF0025A6F10203D8BF0125032B22D8DFE813F0B7039E02C0039A0476
:20BDA000464A434BC9F3130000280CBF1046184652E7CBF3130343F07F51CDF858805046AC
:20BDC000A5F2FF3541F44011DDF8608080E73C4836E7C31C49E7002524950025656429460B
:20BDE000204600F099FF4FF0FF390126099025952064CDF83C900B96199B002BC0F2D280CB
:20BE0000079E0E2E00F3CE802B4B03EBC603D3E90001CDE9040125990029C0F28083DDE9F9
:20BE2000042359465046FCF751FFFDF7BFF80546FCF7BCFDDDE90423FCF71EFE02460B462C
:20BE400050465946FCF764FC099A05F13003B9F1010F06460F46137002F1010B64D000225B
:20BE6000184BFCF709FE0022002306460F46FDF76BF8002840F08180DDF82480099DC844A4
:20BE8000DDE904AB05F10209039428E0AFF3008061436F63A787D23FB3C8608B288AC63F99
:20BEA000FB799F501344D33F0000F07FA1F20008C0F200080000F83FD0F20008B4F2000843
:20BEC000A0F2000800002440FCF7D6FD0022002306460F46FDF738F8002840F0C183524660
:20BEE0005B4630463946FCF7F1FEFDF75FF80546FCF75CFD52465B46FCF7BEFD02460B4668
:20BF000030463946FCF704FC05F1300EC14509F801EC4C4606460F464FF00002A74B09F1B1
:20BF20000109D1D1A346039C32463B4630463946FCF7F0FB06460F463246DDE904013B469C
:20BF4000FDF70CF840B9DDE9040132463B46FCF7FBFF90B1EB0710D51BF8015C099A05E02F
:20BF60009A4200F0298413F8015C9B46392D0BF1FF33F5D06A1CD2B21A7020460A9900F019
:20BF8000F1FE079E269D731C289E00228BF800202B60002E00F025830998C6F800B01BB005
:20BFA000BDE8F08F0B9D002D00F00381249E012E40F3DC820C9E09F1FF37BE42C0F28983FA
:20BFC000F71BB9F1000FC0F28784089D4B46089E20461E440896069E01211E44069600F0E3
:20BFE00063FF064665B10698002809DD03460899AB42A8BF2B46C91AC01A0891ED1A06902F
:20C000000C9A002A1DDD0B9B002B00F05883002F11DD31463A46204600F0EEFF06463146A0
:20C020000A9A204600F04AFF0A998046204600F099FECDF82880DDF830E0BEEB070240F033
:20C040008F822046012100F02FFF80460D98002805DD414620460D9A00F0CEFF80462499E0
:20C06000012940F3C18200270D98002840F0AF820120069B034413F01F0300F0A180C3F1D8
:20C080002002042A40F3B7840899069AC3F11C0319441A4408911D4406920899002905DDD5
:20C0A0000A99089A204600F0F5FF0A90069A002A04DD4146204600F0EDFF80460E9B002B49
:20C0C00040F06A82B9F1000F40F3A6820B98002840F088800B9D0A9FDDF824B006E03946CE
:20C0E00020460A22002300F047FE074638464146FFF7DCFC30300BF805000135A945EEDCE0
:20C10000DDF824B082460A97B9F1010FACBFCB440BF1010B00250A990122204600F0BAFFD7
:20C1200041460A9001F014F8002840F309831BF8012C099905E0994200F08B8213F8012C23
:20C140009B46392A0BF1FF33F5D001321A704146204600F007FE002E3FF40FAF2DB1B54215
:20C1600003D02946204600F0FDFD3146204600F0F9FD02E701260E96EAE50798FCF716FC43
:20C1800032463B46FCF7E0FE00287FF4CDAD079E013E0796C8E5079E089DAD1B089575422C
:20C1A00000260C950D96E5E56D42002608950696D6E50C9F089D0B9E14E700BF000024406B
:20C1C0001C23DDF820E006989E441844CDF820E01D44069061E7A748401B0AFA00F06FE5D9
:20C1E0000E90B5E5002D05DD31462A46204600F051FF0646002F40F0E9823746099D099891
:20C200004D4408950AF001050B95DDF82890451C0AE000F0B1FD394606460A22204600235A
:20C2200000F0AAFD0746013541464846FFF73EFC31468346484600F08BFF414603903A46BD
:20C24000204600F0A9FFC268691E03460BF1300A0691002A40F0938119464846029300F039
:20C2600077FF029B024619462046029200F07AFD029A2AB9249B1BB90B98002800F09383C0
:20C28000039B002BC0F2348205D1249818B90B99002900F02D82002A00F3AC82DDF820E07E
:20C2A00005F801AC7545AB4600F0B48249460A220023204600F060FDBE42814631462046CE
:20C2C0004FF00A024FF00003A3D100F055FD06460746A8E700260B96079EDDF894E0B64444
:20C2E0000EF10109B9F1000FCDF83CE04E4640F350810021172E61640AD9012204235B0050
:20C3000003F11400B042114602F10102F7D96164204600F001FD0E2E099020643FF66CAD46
:20C32000002D3FF469AD079DCDE912AB002D40F31C82514B05F00F0203EBC2032D11D3E923
:20C340000067EB0640F1CD814C4B50465946D3E90823FCF7BBFCCDE9100105F00F054FF09A
:20C3600003088DB1DFF814A130463946EE0705D5DAE9002308F10108FCF77EFB6D100AF158
:20C38000080AF3D106460F46DDE9100132463B46FCF79CFC82468B460E9D45B1504659465C
:20C3A0000022374BFCF7DAFD002840F0AA824046FCF7FCFA52465B46FCF75EFB0022314BF9
:20C3C000FCF7A8F90646A1F15077B9F1000F00F05A81079DC84617950B9D002D00F02382D8
:20C3E000254B002003EBC80353E902232649FCF76DFC32463B46FCF78BF9CDE910015946F2
:20C400005046FCF7D3FD0546FCF7D0FA02460B4650465946FCF77CF93035099ECDE90401BE
:20C42000DDE90423DDE91001EDB2357006F1010BFCF7B2FD002840F0AB82DDE904230020BD
:20C440000F49FCF765F902460B46DDE91001FCF7A3FD002840F0A282B8F1010F40F38181C6
:20C46000B044CDF85090A246C146DDE90467DDE9104519E0EEFBFFFFD0F2000898F30008AB
:20C480000000F03F00001C400000E03F0020A849FCF73EF922462B46FCF760FD002840F036
:20C4A0007B82CB4500F05A81204629460022A14BFCF7E2FA00229F4B04460D463046394654
:20C4C000FCF7DAFA0F460646FCF770FD8046FCF76DFA02460B4630463946FCF719F908F1E8
:20C4E00030085FFA88F822462B460BF8018B06460F46FCF733FD32463B460028C6D0179E93
:20C500005446079639E500260B96259800283CDD06460F908146ECE601260B96F5E7B9F12F
:20C52000000F3FF77CAC40F0C680DDE904010022814BFCF7A1FA52465B46FCF723FDC84677
:20C540004E4600287CD0259DDDF824B0ED4307954146204600F006FC002E7FF406AE0CE577
:20C560000A99204600F048FD0A906AE5169D002D00F0B88103F233430C9F089D27E501467D
:20C58000204600F0EFFB01227AE6012625960F96B14600216164BBE60A98414600F0D8FDE5
:20C5A0000028BFF68FADDDF81CE00A990EF1FF3E20460A220023CDF81CE000F0DDFB0A90DA
:20C5C0000B98002840F00982DDF83C907AE5D8F8103008EB8303186900F018FCC0F12000F6
:20C5E00047E50998FFF72CBBBAF1000F7FF43BADCBF31303002B40F07C812BF000473F0DA2
:20C600003F05002F3FF430AD089A069B0132013308920693012727E5249902297FF756AD25
:20C62000B9F1000F8FD141464B460522204600F0A3FB804641460A9800F08AFD002882DDC1
:20C64000079D312301350795099D2B7005F1010B7EE7079809993123013007900B7076E535
:20C66000A346039C89E44046FCF7A0F902460B4650465946FCF700FA0022304BFCF74AF826
:20C680000646A1F150775046594600222A4BFCF73FF832463B4682468B46FCF77DFC0028D9
:20C6A00040F0BD80324607F1004350465946FCF755FC002855D04FF00008464643E70A99F4
:20C6C0000C9A204600F098FC0A90BAE401260B9602E60C9D0D9E7B1B1E440C970D96002729
:20C6E0006FE4DDE912014FF00208CDE9100138E6002ACDF82890D94611DD0A990122204600
:20C7000000F0C8FC41460A9000F022FD002840F35D81BAF1390F00F01B8109F1310A069BA7
:20C72000354683F800A003F1010B3E460FE500BF0000F03F000024400000144000001C40E9
:20C7400003D11AF0010F7FF4F2AC5B4613F8012C9B46302A03F1FF33F8D0F8E4DDF8509047
:20C760005446DDE912ABFFF747BB079E7542002D00F0C280A34B05F00F0203EBC203D3E986
:20C780000023DDE91201FCF777F92D1182468B4600F02E819C4E4FF00208EA0705D5D6E907
:20C7A000002308F10108FCF767F96D1006F10806F3D182468B46EFE5079E099D30222A7017
:20C7C0000136312207961A70FFF7D7BB7168204600F0A2FA336905469A1C920006F10C0122
:20C7E0000C30FDF73FFD20462946012200F052FC074603E5BAF1390FCDF8289000F0A880DA
:20C80000069D0AF101032B703546069E06F1010B3E469CE43546CDF828903E467BE44FF09B
:20C82000000846460CE7774908F1FF3501EBC50132463B46D1E900011095FCF71DF9CDE9BA
:20C84000140159465046FCF7B1FB0546FCF7AEF802460B4650465946FBF75AFFDDF824E019
:20C860003035B8F1010F06460F468EF800500EF1010B1ED0099D6B1E03EB080A0022634B2B
:20C88000FCF7FAF80F460646FCF790FB8046FCF78DF808F1300802460B4630463946FBF7A5
:20C8A00037FF05F8018F5545E8D1109D06460F46AB440022564BDDE91401FBF72BFF3246F3
:20C8C0003B46FCF74BFB00284DD0179E099A07961BF8015CFFF74ABB089E0023C9EB060571
:20C8E000FFF775BB189B0C9FC3F13603089DFFF76EBB5746FFF7B8BBDDE912AB4FF0020831
:20C900004AE5B9F1000F3FF4AEAE0F9E002E7FF728AF00223D4B50465946FCF7ADF8824639
:20C9200008F101008B46FCF741F802460B4650465946FCF7A1F80022364BFBF7EBFE079D84
:20C940000646013DA1F150771795DDF83C8043E53546069B069E3922327003F1010B3E464E
:20C960000999FFF7EEBBDDE9142300202849FBF7CFFE32463B46FCF70FFB00283FF4F1AE39
:20C980005B4613F8012C9B46302A03F1FF33F8D0179D0795FFF7F1BA45465446179E099A27
:20C9A0000796FFF7E3BABAF1390FCDF82890CFD0039B3546002B069EC8BF0BF1310A86F814
:20C9C00000A006F1010B3E46FFF7C1BB7FF4A7AE1AF0010F3FF4A3AE9BE6314620460A22CE
:20C9E0000023DDF83C9000F0C7F90646FFF76ABB4FF00208D0E43FF450ABC3F13C03FFF748
:20CA0000E0BB00BFD0F2000898F30008000024400000E03F00001C4038B5094D094C641B69
:20CA2000A41018BF05EB840505D0013C55F8043D9847002CF9D1BDE8384000F0D5BF00BF1D
:20CA4000F4D90008F8D90008F8B5234D0F460446FDF7C8FCAB685E6826F00306F11B01F6B9
:20CA6000EF7121F47F6121F00F01A1F58057B7F5805F07DB20460021FDF7B8FCAB683344AD
:20CA8000984204D02046FDF7AFFC0020F8BD20467942FDF7ABFC01300DD0104BAA68196856
:20CAA000F61B46F001062046C91B56601960FDF79BFC0120F8BD20460021FDF797FCAB682D
:20CAC000C21A0F2ADEDD064D04492D6842F00102401B5A600860D5E7040B002088190020F3
:20CAE000100F00202DE9F0410D460646002955D0FDF778FC55F8041CDFF870C1A5F1080444
:20CB000021F00103E218DCF808005768904227F0030768D011F00101576032D00021D0197A
:20CB20004068C00706D43B44906800294DD0D268C260906043F001026260E350E1B9B3F536
:20CB4000007F2DD35A0A042A69D89809383041000CEB810CDCF808204449624565D0516897
:20CB600021F003018B4202D292689445F7D1D368E360A2609C60D4603046BDE8F041FDF774
:20CB800033BC55F8085C0CF10808641BA0682B44404542D0E568C560A860C0E7BDE8F08124
:20CBA000DB089A1001209040DCF804100CEBC3039A680143A260E360CCF8041030469C607D
:20CBC000D460BDE8F041FDF70FBC294DA842AED143F00102CCF81440CCF81040E060A0600B
:20CBE0006260E350C8E71F44CB0707D455F8081C641AE368A2680F44D3609A601D4B47F01E
:20CC000001021B6862609F42CCF80840B4D31A4B30461968FFF718FFAEE701217FE7142A94
:20CC20000BD802F15B00410092E780100125854048681346284348609AE7542A03D8180B75
:20CC40006E30410084E7B2F5AA7F03D8D80B773041007DE740F254518A4203D8980C7C30E2
:20CC6000410075E7FC217E2072E700BF040B00200C0B00200C0F00208419002000487047E7
:20CC8000140F0020830770B4C9B240D0541E2AB303788B4223D0431C04E0FCB105781446C7
:20CCA0008D421CD013F0030F184604F1FF3203F10103F2D1032C14D8651E54B303788B4278
:20CCC0000DD0421C002302E004788C4207D0AB42104603F1010302F10102F5D1002070BCB0
:20CCE000704741EA0126034646EA06461A6818467240A2F1013525EA020212F0803F03F143
:20CD00000403D9D1043C032C1846EFD8D4E71446D0E72046E3E700BFC26C70B505460C4623
:20CD20004AB152F8240080B1016842F8241000220261C26070BD2122042100F0CBFBE86444
:20CD400002460028EDD1002070BD012101FA04F6721D2846920000F0BDFB0028F3D044607B
:20CD60008660E4E731B1C36C4A6853F82200086043F82210704700BF2DE9F0430F6983B093
:20CD80008846814601F1140500242E680134B1B2360C02FB013302FB06F699B206EB1343A3
:20CDA00001EB0341A74245F8041B4FEA1343ECDC4BB1D8F80820974209DA08EB8702013743
:20CDC0005361C8F81070404603B0BDE8F083D8F80410484601310193FFF79EFFD8F8102043
:20CDE00008F10C010232044692000C30FDF73AFAD9F84C20D8F80410019B52F82100C8F8D1
:20CE0000000042F82180A046D7E700BF030C1B04B3B90004102310F07F4F04BF0002083335
:20CE200010F0704F04BF0001043310F0404F04BF80000233002807DB420003D42020704717
:20CE40000023E8E7581C704718467047036813F0070207D0D90720D49A0720D49B080360E3
:20CE60000220704799B209B91B0C102213F0FF0F04BF1B0A0832190704BF1B090432990763
:20CE800004BF9B080232D90704D45B0801D1202070470132036010467047002070475B0837
:20CEA00003600120704700BF10B50C460121FFF733FF01224461026110BD00BF2DE9F04F0B
:20CEC0000D69D2F8109085B04D450C46924604DA2A4654464D468A469146A36805EB090754
:20CEE00061689F42C8BF0131FFF716FF00F1140606EB87084645019005D23346002043F872
:20CF0000040B9845FBD80AF1140C0CEB89091434CC45009404EB85055BD2CDF80880039734
:20CF2000C8465CF8043B9CB224B3009A33464FF0000900E00B4652F8047B19681FFA87FBBA
:20CF40001FFA81FA380C090C04FB0BAA04FB0010D14400EB19401FFA89F949EA0047194654
:20CF600095424FEA104941F8047BE3D8C3F804905CF8043C5FEA134924D0D6F800A0009B50
:20CF8000504631464FF0000B00E011461A88000C09FB02001FFA8AFA83444AEA0B400A461C
:20CFA00042F8040B53F8047B48684FEA174A84B209FB0A4A9D420AEB1B4A4FEA1A4BE4D8F3
:20CFC000C1F804A0E04506F10406AAD8DDF80880039F002F0ADD58F8043CA8F104081BB136
:20CFE00004E058F8043D0BB9013FFAD1019B18461F6105B0BDE8F08F12F003032DE9F0414B
:20D00000144607460E462CD1A4101CD0BD6C002D30D04FF0000804E0641014D02868A8B1B6
:20D020000546E307F8D5384631462A46FFF746FFAEB17268FB6C641053F82210316043F8F1
:20D0400022600646EAD13046BDE8F081384629462A46FFF733FF2860C0F80080E0E7064663
:20D06000DAE70B4A013B52F823200023FFF784FE0646C9E701213846FFF74EFE40F2712194
:20D0800001220023416102610546B8640360C0E7C0F300082DE9F84F0B694FEA621A0AEB9E
:20D0A00003098B6809F101069E420F4693468046496804DD5B009E4201F10101FADC40467F
:20D0C000FFF72AFEBAF1000F00F1140409DD00231A4625460133534545F8042BFAD104EBA9
:20D0E00083043A6907F114031BF01F0B03EB820C21D0CBF1200A002200E02C46196825460F
:20D1000001FA0BF10A4345F8042B53F8042B634522FA0AF2F1D362600AB109F10206D8F812
:20D120004C307A68013E53F822100661396043F82270BDE8F88F53F8042B9C4544F8042B16
:20D14000EDD953F8042B9C4544F8042BF3D8E6E702690B6910B4D21A15D19B001430143112
:20D160001944034401E0984211D253F8042D51F8044DA242F7D0944294BF01204FF0FF30F4
:20D180005DF8044B704710465DF8044B704700205DF8044B704700BF2DE9F0470D4604465F
:20D1A000114628461646FFF7D3FF071E56D04FDB4FF0000969682046FFF7AEFD2F693269BE
:20D1C00014351436C0F80C9000F1140305EB870C06EB8208002155F8044B56F8042B1FFA0F
:20D1E00084FA8A441FFA82F9110CC1EB1441C9EB0A0201EB224192B242EA0142B04543F83F
:20D20000042B4FEA21412C46E5D8AC45984615D954F8046BB2B21144360C06EB214689B20F
:20D2200041EA0642A44543F8042B4FEA2641EFD8EB43634423F0030304334344043B22B9FB
:20D2400053F8042D013F002AFAD00761BDE8F0872B464FF0010935461E46ABE7204639468A
:20D26000FFF75AFD012347610361BDE8F08700BF2DE9F043012183B01D46C3F30A561446E5
:20D280000A9FFFF749FDC5F3130380460EB143F48013019324B302A840F8084D6846FFF746
:20D2A000D5FD002835D19DE80C00C8F81420002B0CBF01240224C8F81830C8F81040DEB9F9
:20D2C00008EB8403A0F2324038601869FFF79EFD0B9BC0EB44101860404603B0BDE8F083B8
:20D2E00001A8FFF7B3FD019B01242030C8F81430C8F81040002EE3D0A6F2334909EB0003CE
:20D300003B600B9BC0F135001860404603B0BDE8F083019BC0F1200103FA01F1C340009A23
:20D3200001930A43C8F81420C1E700BF2DE9F04F946883B0924680460D461668002C6FD053
:20D340004FF0000B08688B685C46002C43D09C421F4645D3AB8913F4906F44D06F6929692C
:20D3600007EB470707EBD777C1EB0009621C7F104A44974234BF17463A465B0535D5114673
:20D380004046FCF7D3FC002839D029694A460190FCF768FFAA89019B22F4906242F080027C
:20D3A000AA81C9EB070203EB09006F612B612860AA602746A1464A46594600F0BBF8DAF8A8
:20D3C0000820AB682868DB1B4844141BAB602860CAF8084024B3D6F800B074680836B4E72A
:20D3E0002746A146E7E7B946E5E7404600F008F903460028D5D140462969FFF773FBAA8903
:20D400000C23C8F8003042F0400200234FF0FF30AA81CAF80830CAF8043003B0BDE8F08FF6
:20D420002046CAF8044003B0BDE8F08FF0B5274C85B026680746D6F84841002C40D0656821
:20D440001F2D1EDD224818B94FF0FF3005B0F0BD4FF4C870039102920193FCF757FC039961
:20D460000446029A019B0028EED0D6F848510020256060600546C6F84841C4F88801C4F8E5
:20D480008C013FB96B1C00200235636044F8251005B0F0BD0126AE4004EB8500C0F88820AA
:20D4A000D4F88821022F42EA0602C4F88821C0F80831E7D1D4F88C311E43C4F88C61E1E729
:20D4C00006F5A674C6F84841B9E700BF4CF200080D9D000810B502FB01F1FCF727FC044685
:20D4E00068B150F8042C22F00302043A242A18D8132A06D8034600221A605A609A602046EE
:20D5000010BD00231B2A036043600FD9242A8360C36005BF0361436100F1100300F11803B8
:20D52000E9E70021FCF714FF204610BD00F10803E1E700BF8842F0B410D98C18A0420DD282
:20D540008518531E42B121462A4611F8014D013B02F8014D5C1CF8D1F0BC70470F2A44D91E
:20D5600040EA01039B0744D1A2F110073F0900EB071610360C4603462568103343F8105C74
:20D580006568103443F80C5C54F8085C43F8085C54F8045C43F8045CB342EDD17B1C02F005
:20D5A0000F0C1B01BCF1030F1944034423D90E461D46644656F8047B043C032C45F8047B7C
:20D5C000F8D8ACF1040424F00304043402F0030223442144002ABFD01A4411F8014B03F859
:20D5E000014B9342F9D1F0BC70470346002AF3D1B2E70346F0E76246002AEDD1ACE700BF0B
:20D600002DE9F04F0C4683B090468146002900F0BA80FCF7E7FE08F10B0654F8043C162E8E
:20D6200023F00305A4F108074BD810210E46B0454CD88D4251DADFF884B37819DBF808E016
:20D64000864500F0A680426822F0010C8444DCF804C01CF0010F54D000221046DB076FD4E3
:20D6600054F8083CC3EB070ADAF8043023F003032B44002862D0704500F0E98002EB030E67
:20D680008E455BDBC3688268D046D3609A6058F8081FDAF80C302A1F242ACB60996000F2F7
:20D6A0002381132A40F2B08023681B2ACAF808306368CAF80C3000F22B8108340AF11003AC
:20D6C000A3E026F00706002E3146B0DA0C230020C9F8003003B0BDE8F08FA046AA1B0F2A7A
:20D6E00003F001031AD82B437B603D446B6843F001036B604846FCF777FE404603B0BDE8CE
:20D70000F08F22F0030202EB050C8C45A6DBC2688168A046CA6065469160DFE7B919334356
:20D7200042F001007B600A4448605368083143F0010353604846FFF7D5F9DBE78B4233DA19
:20D7400041464846FCF7F2FA80460028D2D054F8043CA0F1080123F001023A44914200F0C8
:20D76000BC802A1F242A6ED8132A42D803462246116819605168596092689A60214648463B
:20D78000FFF7B0F9B6E7114603B0BDE8F04FFCF7CDBADEF8042006F1100C22F00302501958
:20D7A00060453DDA704659E7D04658F8080FDAF80C102A1F242AC160886000F2A080132A5D
:20D7C00040F29B8021681B2ACAF808106168CAF80C1000F2B28008340AF1100221681D4654
:20D7E0001160616857465160A3689360DAF8043074E723681B2A03606368436062D800F176
:20D80000080304F10802B3E74346226875461A60626857465A60A2689A60DAF804305DE7AD
:20D82000831B374443F00103CBF808707B6054F8043C484603F001031E4344F8046CFCF771
:20D84000D3FD20465AE72146FFF774FE96E702EB030C06F110029445FFF670AF574657F827
:20D86000081FDAF80C302A1F242ACB60996000F28680132A77D923681B2ACAF8083063689E
:20D88000CAF80C3000F2848008340AF1100322681A6062685A60A2689A60C6EB0C020AEB0A
:20D8A000060342F00102CBF808305A60DAF80430484603F001031E43CAF80460FCF794FDDF
:20D8C00038461BE7A368242A8360E368C3602BD000F1100304F110024AE750F8042CA04689
:20D8E00022F003021544F9E62146404675465746FFF720FEDAF80430F0E642466EE7214660
:20D9000040461D465746FFF715FEDAF80430E5E6A368242ACAF81030E368CAF8143018D013
:20D9200010340AF1180370E7226900F118030261616904F1180241611AE7A168242ACAF8A7
:20D940001010E168CAF814100FD010340AF1180244E722690AF12003CAF81820626918345B
:20D96000CAF81C2051E73B4691E721690AF12002CAF8181061691834CAF81C102EE7214667
:20D980003846CDF804C0FFF7D5FDDDF804C084E7A368242ACAF81030E368CAF8143003D035
:20D9A00010340AF1180372E722690AF12003CAF8182062691834CAF81C2068E7040B00207E
:20D9C000F8B500BFF8BC08BC9E4670479DB90008F56A0008112100081931000849460008E0
:20D9E0008D4B0008A96C0008F8B500BFF8BC08BC9E467047ED200008D470FF7F01000000D3
:20DA0000000000000000000020212223242526270001020304050607101112131415161732
:20DA200018191A1B1C1D1E1F2C00C20100000008020300004200000059310008000000003A
:20DA4000E9310008000000000000000000000000913200084D3200085C0000201932000883
:20DA6000000000004000000800000000000000001000000BE53200080000000040000000E4
:20DA8000400000004000000000030000000000000000000000000000000000000000000003
:20DAA000000000000000000000000000000000000000000000000000000000000000000066
:20DAC000000000000000000000000000000000000000000000000000000000000000000046
:20DAE000000000000000000000000000000000000000000000000000000000000000000026
:20DB0000000000000000000000000000000000000000000000000000000000000000000005
:20DB2000A812002000000000320100201200000000011201000200000140AF1E240000025C
:20DB400001020001F40100007CEC00080400000040EC0008000000000CEC00080000000024
:20DB60000000000000000000030000008800002000000000000000020004000601010000EC
:20DB800019000000A541000800000000A5400008000000000000000075420008F940000891
:20DBA00001420008A8010020C5400008000000004000000B4000000089EC00080900000033
:20DBC000ACEC0008050C0901A1018503150026FF0319002AFF03751095018100C000000082
:20DBE0009CEC0008A4EC0008B4EC000805010902A10185010901A100050919012908150003
:20DC0000250195087501810205010930093109381581257F750895038106C0C00501090425
:20DC2000A101851415002501750195200509190129208102150025073500463B0175049549
:20DC400001651405010939814205010901A100150026FF03750A950409300931093309344D
:20DC60008102C0150026FF03750A9502093609368102C005010906A1018502050719E029E1
:20DC8000E7150025017501950881029501750881039506750815002565050719002965814A
:20DCA00000050819012908950875019102C00000000010000500008000000100B00200203E
:20DCC000002801400100000000240140001200000000000000000000000000000000000063
:20DCE000C0020020C80200200000024007000000000000000B000000000000000C000000F8
:20DD0000000000000D000000000000000E000000000000000F0000000000000010000000C9
:20DD20000000000011000000E8020020000801400B000000000C01400C01000000100140C9
:20DD40000D020000001401400E030000005400400000000000000000000000003403002063
:20DD6000000000000000000000000706121F20000000000000000000000000000000000045
:20DD8000000000000058004000000000000000000000000034030020000000000000000094
:20DDA00000000B0A1321220000000000000000000000000000000000000000001C1002408A
:20DDC0001810024014100240101002400C1002401C10024018100240141002400004004031
:20DDE0001C0100000000000000000000000000000000000000000000000000000000000006
:20DE0000000800401D0100000000000000000000000000000000000000000000000000009C
:20DE200000000000002C01401A00000000000000000000000000000000000000000000005B
:20DE4000000000000000000000000000000000401B01000000000000000000000000000066
:20DE6000000000000000000000000000000000007C04002010050020A4050020003801408B
:20DE80000C1700200017002020AA44000000000000000000000000000000000000000000FA
:20DEA000000000000000000000000000000000000000000000000000000000000000000062
:20DEC000000000000000000000000000000000000000000000000000000000000000000042
:20DEE000000000000000000000000000000000000000000000000000000000000000000022
:20DF00000000000000000000000000002825000000440040181700203017002010552200F3
:20DF20000000000000000000000000000000000000000000000000000000000000000000E1
:20DF40000000000000000000000000000000000000000000000000000000000000000000C1
:20DF60000000000000000000000000000000000000000000000000000000000000000000A1
:20DF8000000000000000000000000000000000000000000000000000000000000000000081
:20DFA0002926000000480040241700203C1700201055220000000000000000000000000035
:20DFC000000000000000000000000000000000000000000000000000000000000000000041
:20DFE000000000000000000000000000000000000000000000000000000000000000000021
:20E00000000000000000000000000000000000000000000000000000000000000000000000
:20E0200000000000000000000000000000000000000000002A2700003C06002000BF00006E
:20E04000000000000000000000002D0040F1000843000000215C0008055D00089567000824
:20E0600095670008095B00085D5B0008AD5B0008155C0008095C0008E95B0008000000002E
:20E080004000000083F10008040000001CF100081200000010F100080C00000000C20100C1
:20E0A0000000080095670008BD5B0008956700089567000895670008956700089567000820
:20E0C00095670008D95B00082EF1000812000000040101000000000000000000C4090020D4
:20E0E0002C0A0020940A00200000000000000000000000000000000000000000000000000C
:20E1000000000000000000000000000048F2000800000000000000000000000000000000BD
:20E120000000000000000000000000000000000000000000000000000000000000000000DF
:20E140000000000000000000000000000000000000000000000000000000000000000000BF
:20E1600000000000000000000000000000000000000000000000000000000000000000009F
:20E1800001000000000000000E33CDAB34126DE6ECDE05000B000000000000000000000052
:20E1A00000000000000000000000000000000000000000000000000000000000000000005F
:20E1C00000000000000000000000000000000000000000000000000000000000000000003F
:20E1E00000000000000000000000000000000000000000000000000000000000000000001F
:20E200000000000000000000000000000000000000000000000000000000000000000000FE
:20E220000000000000000000000000000000000000000000000000000000000000000000DE
:20E240000000000000000000000000000000000000000000000000000000000000000000BE
:20E2600000000000000000000000000000000000000000000000000000000000000000009E
:20E2800000000000000000000000000000000000000000000000000000000000000000007E
:20E2A00000000000000000000000000000000000000000000000000000000000000000005E
:20E2C00000000000000000000000000000000000000000000000000000000000000000003E
:20E2E00000000000000000000000000000000000000000000000000000000000000000001E
:20E300000000000000000000000000000000000000000000000000000000000000000000FD
:20E320000000000000000000000000000000000000000000000000000000000000000000DD
:20E340000000000000000000000000000000000000000000000000000000000000000000BD
:20E3600000000000000000000000000000000000000000000000000000000000000000009D
:20E3800000000000000000000000000000000000000000000000000000000000000000007D
:20E3A00000000000000000000000000000000000000000000000000000000000000000005D
:20E3C00000000000000000000000000000000000000000000000000000000000000000003D
:20E3E00000000000000000000000000000000000000000000000000000000000000000001D
:20E400000000000000000000000000000000000000000000000000000000000000000000FC
:20E420000000000000000000000000000000000000000000000000000000000000000000DC
:20E440000000000000000000000000000000000000000000000000000000000000000000BC
:20E4600000000000000000000000000000000000000000000000000000000000000000009C
:20E4800000000000000000000000000000000000000000000000000000000000000000007C
:20E4A00000000000000000000000000000000000000000000000000000000000000000005C
:20E4C00000000000000000000000000000000000000000000000000000000000000000003C
:20E4E00000000000000000000000000000000000000000000000000000000000000000001C
:20E50000D80600200000000000000000040B0020040B00200C0B00200C0B0020140B0020F2
:20E52000140B00201C0B00201C0B0020240B0020240B00202C0B00202C0B0020340B002063
:20E54000340B00203C0B00203C0B0020440B0020440B00204C0B00204C0B0020540B002043
:20E56000540B00205C0B00205C0B0020640B0020640B00206C0B00206C0B0020740B002023
:20E58000740B00207C0B00207C0B0020840B0020840B00208C0B00208C0B0020940B002003
:20E5A000940B00209C0B00209C0B0020A40B0020A40B0020AC0B0020AC0B0020B40B0020E3
:20E5C000B40B0020BC0B0020BC0B0020C40B0020C40B0020CC0B0020CC0B0020D40B0020C3
:20E5E000D40B0020DC0B0020DC0B0020E40B0020E40B0020EC0B0020EC0B0020F40B0020A3
:20E60000F40B0020FC0B0020FC0B0020040C0020040C00200C0C00200C0C0020140C00207D
:20E62000140C00201C0C00201C0C0020240C0020240C00202C0C00202C0C0020340C00205A
:20E64000340C00203C0C00203C0C0020440C0020440C00204C0C00204C0C0020540C00203A
:20E66000540C00205C0C00205C0C0020640C0020640C00206C0C00206C0C0020740C00201A
:20E68000740C00207C0C00207C0C0020840C0020840C00208C0C00208C0C0020940C0020FA
:20E6A000940C00209C0C00209C0C0020A40C0020A40C0020AC0C0020AC0C0020B40C0020DA
:20E6C000B40C0020BC0C0020BC0C0020C40C0020C40C0020CC0C0020CC0C0020D40C0020BA
:20E6E000D40C0020DC0C0020DC0C0020E40C0020E40C0020EC0C0020EC0C0020F40C00209A
:20E70000F40C0020FC0C0020FC0C0020040D0020040D00200C0D00200C0D0020140D002074
:20E72000140D00201C0D00201C0D0020240D0020240D00202C0D00202C0D0020340D002051
:20E74000340D00203C0D00203C0D0020440D0020440D00204C0D00204C0D0020540D002031
:20E76000540D00205C0D00205C0D0020640D0020640D00206C0D00206C0D0020740D002011
:20E78000740D00207C0D00207C0D0020840D0020840D00208C0D00208C0D0020940D0020F1
:20E7A000940D00209C0D00209C0D0020A40D0020A40D0020AC0D0020AC0D0020B40D0020D1
:20E7C000B40D0020BC0D0020BC0D0020C40D0020C40D0020CC0D0020CC0D0020D40D0020B1
:20E7E000D40D0020DC0D0020DC0D0020E40D0020E40D0020EC0D0020EC0D0020F40D002091
:20E80000F40D0020FC0D0020FC0D0020040E0020040E00200C0E00200C0E0020140E00206B
:20E82000140E00201C0E00201C0E0020240E0020240E00202C0E00202C0E0020340E002048
:20E84000340E00203C0E00203C0E0020440E0020440E00204C0E00204C0E0020540E002028
:20E86000540E00205C0E00205C0E0020640E0020640E00206C0E00206C0E0020740E002008
:20E88000740E00207C0E00207C0E0020840E0020840E00208C0E00208C0E0020940E0020E8
:20E8A000940E00209C0E00209C0E0020A40E0020A40E0020AC0E0020AC0E0020B40E0020C8
:20E8C000B40E0020BC0E0020BC0E0020C40E0020C40E0020CC0E0020CC0E0020D40E0020A8
:20E8E000D40E0020DC0E0020DC0E0020E40E0020E40E0020EC0E0020EC0E0020F40E002088
:20E90000F40E0020FC0E0020FC0E002000000200FFFFFFFFCCF2000880F2000880F20008C9
:20E9200080F2000880F2000880F2000880F2000880F2000880F2000880F20008FFFFFFFF85
:20E94000FFFFFFFFFFFFFFFFFFFF0000000000002564202564204D256420707265737365E7
:20E96000640A002564202564204D25642072656C65617365640A004225642070726573737A
:20E9800065640A0066616C7365207363726F6C6C65640A0074727565207363726F6C6C6543
:20E9A000640A00436C6F636B776F726B5049004465765465726D003230323130353331005C
:20E9C000736574757020646F6E650000EA00EB00EC00ED00EE00EF00F000F1008100F20061
:20E9E000800087008200F300F400F500FA00050C0901A1018503150026FF0319002AFF03F1
:20EA0000751095018100C005010906A1018502050719E029E71500250175019508810295E1
:20EA20000175088103950675081500256505071900296581000508190129089508750191ED
:20EA400002C005010904A101851415002501750195200509190129208102150025073500D6
:20EA6000463B0175049501651405010939814205010901A100150026FF03750A9504093042
:20EA80000931093309348102C0150026FF03750A9502093609368102C005010902A1018534
:20EAA000010901A1000509190129081500250195087501810205010930093109381581250B
:20EAC0007F750895038106C0C000E800E900F80060005B005D002D003D00310032003300BA
:20EAE0003400350036003700380039003000B100B300DA00D900D800D7007100770065008C
:20EB0000720074007900750069006F0070006100730064006600670068006A006B006C002B
:20EB20007A0078006300760062006E006D002C002E002F005C003B002700B200B00086009E
:20EB4000840085002000FFFFFFFFCE00D000F90060005B005D00CC00CD00C200C300C400FF
:20EB6000C500C600C700C800C900CA00CB00B100C100D300D600D200D5007100770065000E
:20EB80007200740079007500D1006F0070006100730064006600670068006A006B006C0043
:20EBA0007A0078006300760062006E006D00F700F6002F005C003B002700D400B000860069
:20EBC000840085002000FFFFFFFF080B0002020201020904000001020201000524000110A7
:20EBE0000524010301042402060524060001070580031000FF09040100020A0000000705C3
:20EC00000002400000070580024000004D61706C650009020000000100C0320095670008F3
:20EC2000AD360008956700089567000895670008ED36000895670008956700081537000856
:20EC40004C6561664C61627300000000BD370008453800089567000895670008D93500081B
:20EC60004536000825370008B1370008A53700084137000800000000400000000403090405
:20EC80000904000001030100000921100100012200000705800340000A0000001C020020ED
:20ECA00057000000730200203B000000C401002019000000EC0100203000000000000000F2
:20ECC000000000002A2B280000000000000000000000000000000000000000002C9EB4A099
:20ECE000A1A2A434A6A7A5AE362D3738271E1F20212223242526B333B62EB7B89F848586C7
:20ED00008788898A8B8C8D8E8F909192939495969798999A9B9C9D2F3130A3AD35040506B1
:20ED20000708090A0B0C0D0E0F101112131415161718191A1B1C1DAFB1B0B5000000000070
:20ED40000000000000000000C1430008596A0008396A000845440008A3440008A1430008C5
:20ED60000000000000000000454800085D480008396A000881460008A34600088546000813
:20ED8000E5470008000000002C0300204C040020C8020020000100002C0300204C040020D6
:20EDA000C8020020010201002C0300204C040020C8020020020302002C0300204C040020F6
:20EDC000C8020020030403002C03002000000000C8020020040004002C03002000000000AF
:20EDE000C8020020050005002C030020DC030020C8020020060106002C030020DC0300208C
:20EE0000C8020020070207002C03002024040020000000000801FF002C03002024040020C2
:20EE2000000000000902FF002C03002024040020000000000A03FF002C030020240400208E
:20EE4000000000000B04FF002C03002000000000000000000C00FF002C03002000000000FB
:20EE6000000000000D00FF002C03002000000000000000000E00FF002C03002000000000DB
:20EE8000000000000F00FF0034030020DC030020C80200200003080034030020DC030020C3
:20EEA000C8020020010409003403002000000000000000000200FF003403002000000000AB
:20EEC000000000000300FF003403002000000000000000000400FF0034030020000000007F
:20EEE000000000000500FF003403002000040020000000000601FF00340300200004002012
:20EF0000000000000702FF003403002000040020000000000803FF003403002000040020E9
:20EF2000000000000904FF003403002000000000000000000A00FF0034030020000000000E
:20EF4000000000000B00FF003403002000000000000000000C00FF003403002000000000EE
:20EF6000000000000D00FF003403002000000000000000000E00FF003403002000000000CA
:20EF8000000000000F00FF003C03002000000000C802002000000A003C03002000000000B1
:20EFA000C802002001000B003C03002000000000C802002002000C003C03002000000000A5
:20EFC000C802002003000D003C03002000000000C802002004000E003C030020000000007D
:20EFE000C802002005000F003C03002000000000000000000600FF003C0300200000000050
:20F00000000000000700FF003C03002000000000000000000800FF003C0300200000000025
:20F02000000000000900FF003C03002000000000000000000A00FF003C0300200000000001
:20F04000000000000B00FF003C03002000000000000000000C00FF003C03002000000000DD
:20F06000000000000D00FF003C03002000000000000000000E00FF003C03002000000000B9
:20F08000000000000F00FF004403002000000000000000000200FF002C0300203403002054
:20F0A0000109010A010F0100001B02060000020000000204000001020103010401050000ED
:20F0C0000000000000150016001C0000010C000E00000202010B00000001000200000000BB
:20F0E00000000000000000000000000000000000010E00110012000000000017F0000000D7
:20F1000000070000003800000000C00000C000000C034D00610070006C00650012034C00D1
:20F120006500610066004C006100620073001201000202000040AF1E0400000201020001F3
:20F1400009024300020100C0320904000001020201000524000110052401030104240206C1
:20F160000524060001070582034000FF09040100020A000000070503024000000705810295
:20F1800040000004030904000000000000000000FD690008596A0008396A0008B569000811
:20F1A0007B690008C1690008E3690008000000000000000000000000B76A0008596A0008E9
:20F1C000396A0008000000000000000000000000416C0008576C0008396A0008A16B000845
:20F1E000C36B0008A56B00088D6C000800000000706F7700737172740000000073717274D6
:20F20000660000000000000000000000000000000000004003B8E23F00000000000000006C
:20F2200006D0CF43EBFD4C3E000000000000F03F000000000000F83F00000000000030439B
:20F2400000000000000030C343000000D8060020303030303030303030303030303030307A
:20F26000494E4600696E66004E414E006E616E0030313233343536373839414243444546B8
:20F28000000000003031323334353637383961626364656600000000286E756C6C29000000
:20F2A0003000000020202020202020202020202020202020496E66696E69747900000000D4
:20F2C0004E614E00504F5349580000002E000000000000000000F03F0000000000002440DD
:20F2E00000000000000059400000000000408F40000000000088C34000000000006AF84039
:20F300000000000080842E4100000000D01263410000000084D797410000000065CDCD4181
:20F32000000000205FA00242000000E876483742000000A2941A6D42000040E59C30A24277
:20F340000000901EC4BCD64200003426F56B0C430080E03779C3414300A0D88557347643C6
:20F3600000C84E676DC1AB43003D9160E458E143408CB5781DAF154450EFE2D6E41A4B44C4
:20F3800092D54D06CFF08044F64AE1C7022DB544B49DD9794378EA440080E03779C341433D
:20F3A000176E05B5B5B89346F5F93FE9034F384D321D30F94877825A3CBF737FDD4F157525
:20F3C00005000000190000007D00000000DA0008FFFFFFFFFFFFFFFFFFFFFFFFFFFFFFFFC0
:20F3E000FFFFFFFFFFFFFFFFFFFFFFFFFFFFFFFFFFFFFFFFFFFFFFFFFFFFFFFFFFFFFFFF2D
:20F40000FFFFFFFFFFFFFFFFFFFFFFFFFFFFFFFFFFFFFFFFFFFFFFFFFFFFFFFFFFFFFFFF0C
:20F42000FFFFFFFFFFFFFFFFFFFFFFFFFFFFFFFFFFFFFFFFFFFFFFFFFFFFFFFFFFFFFFFFEC
:20F44000FFFFFFFFFFFFFFFFFFFFFFFFFFFFFFFFFFFFFFFFFFFFFFFFFFFFFFFFFFFFFFFFCC
:00000001FF
